:020000040000FA
:10000000616869646E696920202000CF05F0E0CF47
:1000100006F00001E9CF0CF0EACF07F0E1CF08F0DD
:10002000E2CF09F0D9CF0AF0DACF0BF0F3CF12F01C
:10003000F4CF13F0FACF14F0F5CF15F0F6CF16F099
:10004000F7CF17F000C00EF001C00FF002C010F0A3
:1000500003C011F09DA030EF00F09EB0CCEF01F096
:100060009DAA36EF00F09EBA78EF00F00EC000F0C7
:0F0070000FC001F010C002F011C003F00CC0E986
:1000800007C0EAFF078E08C0E1FF09C0E2FF0AC00F
:10009000D9FF0BC0DAFF12C0F3FF13C0F4FF14C086
:1000A000FAFF15C0F5FF16C0F6FF17C0F7FF0450A2
:1000B00006C0E0FF05C0D803F00CC0E9FF07C0EAA6
:1000C000FF078E08C0E1FF09C0E2FF0AC0D9FF0B9D
:1000D000C0DAFF12C0F3FF13C0F4FF14C0FAFF151B
:1000E000C0F5FF16C0F6FF17C0F7FF045006C0E0CA
:1000F000FF05C0D8A66B01C0A5F2A551611A6250D8
:10010000000A000107E0010A11E0030A14E0FD0AF9
:1001100018E024D01EC060F0A6C268F0A5C267F047
:10012000A5C261F067C0A7F2D4DF1DD0A6C266F0F9
:10013000A5C265F018D0A5C263F063C0A7F2C9DFFD
:1001400012D0615209E11B50655C04E0652C04D0BB
:10015000665202E160C01EF0626A0DD0A5C2A7F22D
:10016000B8DF630600D06250020804E2635202E185
:10017000626801D0622A9E9A36EF00F073656E6461
:100180003A20255820255820256320747970653D34
:100190002558200D0A0073656E643A2025582025E5
:1001A0005820256320747970653D2558200D0A007C
:1001B00073656E643A2025582025582025632074E5
:1001C0007970653D2558200D0A0073656E643A20EC
:1001D0002558202558202563200D0A0073656E647C
:1001E0003A2072656C65736558200D0A0073656E60
:1001F000643A20255820255820256320747970659D
:100200003D2558200D0A0073656E643A202558205C
:100210002558202563200D0A0073656E643A20720C
:10022000656C65736520255820255820256320744A
:100230007970653D2558200D0A000073656E643A9B
:1002400020255820255820256320747970653D2588
:10025000580D0A000073656E643A2020202558204E
:10026000255820255820255820256320747970654D
:100270003D2558200D0A000073656E643A2025580C
:1002800020255820256320747970653D25580D0A76
:10029000000073656E643A20202025582025586F91
:1002A000A9531BE0A7C203F0036A1F50200FE96E99
:1002B000000E0320EA6EEFCFACF2A7C2EAFFA6C29F
:1002C000E9FFACC2EFFF1F2A1F503F0801E21F6A7F
:1002D000A62BD8B4A72BA907E3D7010E6FA9531BF0
:1002E000E0A7C203F0036A1F50200FE96E000E035F
:1002F00020EA6EEFCFACF2A7C2EAFFA6C2E9FFACDC
:10030000C2EFFF1F2A1F503F0801E21F6AA62BD829
:10031000B4A72BA907E3D7010E6EE92EFED700D0B4
:1003200001BEE9D701BCF1D712000201A8BF11D06C
:100330000F0E006EA73900160A0E005C03E2300EA5
:10034000002602D0A851002600C0A9F20001CBDF90
:1003500002010F0EA7176EE92EFED700D001BEE9ED
:10036000D701BCF1D712000201A8BF11D00F0E00B7
:100370006EA73900160A0E005C03E2300E0026025A
:10038000D0A851002600C0A9F20001CBDF02010F66
:100390000EA717D700011200020E0201A76F3F0E31
:1003A000A66FA86B000162D701525AE002014151C9
:1003B000730803E0415173083DE140C2A7F2370ED4
:1003C000A86F0001B2DF3D0E0201A96F00018BDFB3
:1003D000D700011200020E0201A76F3F0EA66FA800
:1003E0006B000162D701525AE002014151730803C8
:1003F000E0415173083DE140C2A7F2370EA86F00FB
:1004000001B2DF3D0E0201A96F00018BDF018DDF1C
:10041000200E0201A96F000166DF0201A52BE4D7BF
:100420000D0EA96F00015FDF0A0E0201A96F000126
:100430005ADF02014151630803E04151430811E1D1
:1004400042C2A9F200014FDF43C2A9F24CDF6E0E97
:10045000F66E040EF76E060E0201A66F000188DF2D
:1004600002019E90000136EF00F025632563206FA6
:100470006B200A0D0000206F6B207472616E736D2B
:1004800069740A0D00000A0D596F757220494420E5
:1004900069733A2025780A0D0A0D000066726F6EA6
:1004A000743D20255820206261636B3D25582073E0
:1004B000656E6420746F3D2558200D0A000072613E
:1004C0006D20726564696E67200D0A200000200DA2
:1004D0000A20000072616D20656E64200D0A200004
:1004E0000A0D0A0D456E7465722073656E64206195
:1004F0006464726573732028312D323535293A20B2
:100500000000020EEA6EA30EE96EEF500DE0060E3B
:10051000016E006A002EFED7012EFBD77B0E006E07
:10052000002EFED7EF2EF3D712006CDD1D6A1E6A77
:100530001F6A9D8AC00EF212C0EF10F0080E000272
:100540000EEA6EA30EE96EEF500DE0060E016E008E
:100550006A002EFED7012EFBD77B0E006E002EFE0A
:10056000D7EF2EF3D712006CDD1D6A1E6A1F6A9D3D
:100570008AC00EF212C0EF10F0080E016E050E00D8
:100580006E002EFED78D909690060E006E002EFE09
:10059000D702019C378D92D8B09682D8A0969296B9
:1005A0008084A0FED7012E01D002D00001E7D7053C
:1005B0000E006E002EFED78D00C09CF29682060EB5
:1005C000006E002EFED7968084A0FED784B2D8801D
:1005D00084A2D8900136050E006E002EFED79690AC
:1005E0008D909B2FEBD79682060E006E002EFED7C5
:1005F0008D929C51D8A496920000968084A0FED73C
:10060000050E006E002EFED78D909690060E006EA1
:10061000002EFED78D92969200014CEF03F0968249
:10062000050E006E002EFED79680060E006E002E80
:10063000FED78D929692050E006E002EFED78D90FD
:10064000969098C29CF27ADF97C29AF202019B6B55
:1006500097C29CF2000172DF96C29CF26FDF968215
:10066000050E006E002EFED79680060E006E002E40
:10067000FED784A0FED78D929692050E006E002EB6
:10068000FED78D909690010E020198259A6F9C6F6F
:10069000000154DF006A8DD701C099F296920000E4
:1006A000968084A0FED7050E006E002E2EFED78405
:1006B000A0FED78D929692050E006E002EFED78D6D
:1006C000909690010E020198259A6F9C6F0001543C
:1006D000DF006A8DD701C099F2969200009680845F
:1006E000A0FED7050E006E002EFF94C2F7FFEBD7D9
:1006F000120002018D51100DF350080F906F916B95
:1007000091C28FF290C28EF2100E9025016E000EF3
:100710009121036E8F51035C26E303E101508E5D4E
:1007200022E2080E8E5D926F000E8F59936F690E54
:100730009225016E000E9321036E01C094F2956F15
:100740008FC297F28EC296F2A20E986F000167DFF9
:1007500095C2EAFF94C2E9FF01C0EFFF02018E2BB0
:10076000D8B48F2BD1D70001B5EF11F002019D5104
:10077000070B006E9D31016E013201321F0E011612
:1007800001509F25E96E000EA021EA6E016A012A40
:10079000002A01D00136002EFDD79E5303E0015000
:1007A000EF1203D0011E0150EF16000112000201EA
:1007B0008D6B8D6B8D5118083BE38DC29DF2010E40
:1007C0009E6FA06FFE0E9F6F0001D0DF8DC29DF265
:1007D00002019E6B020EA06F9F6F0001C7DF8DC2EA
:1007E0009DF202019E6B020EA06F060E9F6F00012C
:1007F000BDDF8DC29DF202019E6B020EA06F0A0E3C
:100800009F6F0001B3DF8DC29DF202019E6B020E4D
:10081000A06F0E0E9F6F0001A9DFDF8DC29DF20257
:10082000019E6B020EA06F060E9F6F0001BDDF8D53
:10083000C29DF202019E6B020EA06F0A0E9F6F0016
:1008400001B3DF8DC29DF202019E6B020EA06F0EFE
:100850000E9F6F0001A9DF6A016A21D082A8F2D73A
:10086000080E006E956B008E0ED0009E0CD0D890B6
:1008700082A8D8809533008C06D0009C002EF7D734
:100880009551016E0CD0A70E00BE2D0E016E012EEB
:10089000FED7000000BEE9D700BCEFD7E8D70001C3
:1008A00053EF04F0C8D701501200006A016A020138
:1008B0009851D89099B100260032013299B30026A0
:1008C0000032013299B500260032013299B7002674
:1008D0000032013299B900260032013299BB00265C
:1008E0000032013299BD00260032013299BF002644
:1008F000003201320001EBEF04F00201966B946BC1
:100900000A0E956F936B9151921103E1000E016EE7
:10091000C3D09651962B036A9125E96E925103201C
:10092000EA6EEFCF97F297512D080DE1010E946F0B
:100930009651962B036A9125E96E92510320EA6E37
:10094000EFCF97F20DD097512B080AE19651962BD5
:10095000036A9125E96E92510320EA6EEFCF97F278
:1009600097512F08D8B090D097513908D8A08CD083
:100970009751300821E1036A96519125E96E925111
:100980000320EA6EEF507808E19651962B036A91A6
:1009900025E96E92510320EA6EEFCF97F297512F1F
:1009A00008D8B090D097513908D8A08CD097513042
:1009B0000821E1036A96519125E96E92510320EADC
:1009C0006EEF50780851390816E30A0E986F93C2FB
:1009D00099F200016AD7300E0201975D0124936FEE
:1009E0009651962B036A9125E96E92510320EA6E87
:1009F000EFCF97F2E4D748D09551100845E19751D1
:100A0000600806E297517A0803E39751DF0B01D0A3
:100A10009751976F97512F0803E29751390806E2D3
:100A20009751400831E2975146082EE397512F081D
:100A30000CE29751390809E39339986FF00E981733
:100A4000300E975D9825936F09D09339986FF00E0B
:100A50009817410E975D0A0F9825936F9651962B24
:100A6000036A9125E96E92510320EA6EEFCF97F267
:100A70009751600806E297517A0803E39751DF0B1C
:100A800001D09751976FC6D7942D04D095510A087D
:100A900001E1936D93C201F0000175EF05F00201D1
:100AA0008D6B036A8D518E0F016E020E032201C001
:100AB00091F203C092F20001F5DE92C2EAFF91C208
:100AC000E9FF0150EF6E0D0809E002018D510208A7
:100AD000D8B002D0000102D08D2BE3D7020E020164
:100AE000926F8E0E916F000108D701502EEF12F019
:100AF00002019451016ADE92C2EAFF91C2E9FF014C
:100B000050EF6E0D0809E002018D510208D8B002C5
:100B1000D0000102D08D2BE3D7020E0201926F8E1E
:100B20000E916F000108D701502EEF12F0020194D0
:100B300051016AC08DF22D0E8F6F8E8F01508DC2C4
:100B400093F2640E946F0001D3DF00C08DF2300E7B
:100B500001240201906F8DC293F20A0E946F00017E
:100B6000C7DF300E00240201926F300E0124916F16
:100B7000C08DF22D0E8F6F8E8F01508DC293F26457
:100B80000E946F0001D3DF00C08DF2300E012402FD
:100B900001906F8DC293F20A0E946F0001C7DF308F
:100BA0000E00240201926F300E0124916FAF8E93DC
:100BB000300E915D09E100C091F2200E906F8EA77A
:100BC000F7D78E938EAF8E918EA50CD0196AF2BE98
:100BD000198EF29E8FC2A9F2000173EC01F019BECA
:100BE000F28E02018EA30CD0196AF2BE198EF29E0B
:100BF00090C2A9F2000173EC01F019BEF28E02015D
:100C00008EA10CD0196AF2BE198EF29E91C2A9F281
:100C1000000173EC01F019BEF28E0201196AF2BEF6
:100C2000198EF29E92C2A9F2000173EC01F019BE76
:100C3000F28E50EF12F0010E02018D6F036A8D519A
:100C40003F0F016E020E032201C08EF203C08FF22D
:100C5000000128DE8FC2EAFF8EC2E9FF0150EF6E6D
:100C60000D0809E002018D513F08D8B002D0000103
:100C700002D08D2BE3D7730E02013F6F036A8D51B3
:100C80003F0FE96E020E0320EA6EEF6A3F0E016E1F
:100C9000020E026E00016AEF12F09EA8FED7AD6E42
:100CA00012000201A291009E0098949A8B9A020E63
:100CB000A36F000126DC02019F6B9F5104083CE3F7
:100CC0001A9C1B500001E9DF02019B510001E5DF86
:100CD00002019C510001E1DF0201A06B1B509B1936
:100CE0009C19A16F9C51A05D17E29DC2E9FF9EC2B5
:100CF000EAFFEF50A11B9EC203F09D51E96E03C0B5
:100D0000EAFFEFCFA3F2A3510001C7DF02019D2B41
:100D1000D8B49E2BA02BE6D7A1510001BEDF1ABC90
:100D200004D00201A28108D000011BC0A3F281EC13
:100D300002F002019F2BC1D7949C8B9C949A8B8AC2
:100D4000000102EC00F0000E0201A2B1010E016EE2
:100D5000000112000201926B036A92518F25E96E25
:100D600090510320EA6EEF5202E0922BF5D791C228
:100D70009BF292C29CF290C29EF28FC29DF2000141
:100D800090DF015209E10A0E0201A36F000181EC1C
:100D900002F00201ECD70001760EF66E040EF76E3B
:100DA00092DC76EF12F00201A051070B006EA03129
:100DB000016E013201321F0E01160150A125E96EAC
:100DC000000EA221EA6EEFCF01F0002A01D001321D
:100DD000002EFDD70001120002019351100DF350B7
:100DE000956B946F010E94259B6F000E95219C6F5F
:100DF000690E9B25E96E000E9C21EA6EEFCF97F2FB
:100E0000020E94259B6F000E95219C6F690E9B2509
:100E1000E96E000E9C21EA6EEFCF98F2090E942540
:100E20009B6F000E95219C6F690E9B25E96E000E4D
:100E30009C21EA6EEFCF99F20A0E94259B6F000E6B
:100E400095219C6F690E9B25E96E000E9C21EA6E30
:100E5000EFCF9AF2080E94259B6F000E95219C6FA0
:100E6000690E9B25E96E000E9C21EA6EEFCF96F28B
:100E700093C2A0F2010EA26FFE0EA16F000193DFDC
:100E8000000E01B0010E010B019C21EA6EEFCF9A1A
:100E9000F2080E94259B6F000E95219C6F690E9BA6
:100EA00025E96E000E9C21EA6EEFCF96F293C2A068
:100EB000F2010EA26FFE0EA16F000193DF000E0182
:100EC000B0010E010B0102019653D8A406D193C2C2
:100ED000A0F2020EA26FA16F000165DF000E01B04B
:100EE000010E010B010809E1036A02019351120F7F
:100EF000E96E020E0320EA6EEF2A320E0201A36FA2
:100F0000000181EC02F0036A02019351120FE96EB5
:100F1000020E0320EA6EEF509608D8B0DDD093C2DF
:100F20009DF29E6B020EA06F9F6F00011FDC036A93
:100F300002019351120FE96E020E0320EA6EEF6A6E
:100F4000EC02F0036A02019351120FE96E020E03E4
:100F500020EA6EEF509608D8B0DDD093C29DF29E85
:100F60006B020EA06F9F6F00011FDC036A020193EA
:100F700051120FE96E020E0320EA6EEF6A9953D800
:100F8000B4C8D09A53D8B4C5D00101FB510201991D
:100F90005D1AE19A51010A9AC29DF29E6F020EA05B
:100FA0006F0A0E9F6F000100DC02019A51010A9A3C
:100FB000C29DF29E6F020EA06F0EF76E196AF2BE0E
:100FC000198EF29E060E0201A66F0001B8EC01F028
:100FD00019BEF28E196AF2BE198EF29E30C2A7F2C5
:100FE000370E0201A86F000195EC01F019BEF28ED8
:100FF000196AF2BE198EF29E200E0201A96F00013D
:1010000073EC01F019BEF28E196AF2BE198EF29ECF
:1010100031C2A7F2370E0201A86F000195EC01F072
:1010200019BEF28E196AF2BE198EF29E200E0201CE
:10103000A96F000173EC01F019BEF28E196AF2BEBD
:10104000198EF29E32C2A9F273EC01F019BEF28E33
:101050008A0EF66E010EF76E196AF2BE198EF29EB6
:10106000060E0201A66F0001B8EC01F019BEF28E67
:10107000196AF2BE198EF29E96C2A7F2370E0201CD
:10108000A86F000195EC01F019BEF28E196AF2BE4C
:10109000198EF29E200E0201A96F000173EC01F07F
:1010A00019BEF28E196AF2BE198EF29E0D0E020161
:1010B000A96F000173EC01F019BEF28E196AF2BE3D
:1010C000198EF29E0A0E0201A96F000173EC01F065
:1010D00019BEF28E020192D291D29653D8B4EBD0BF
:1010E00096511C08D8A0E7D093C2A0F2020EA26FBE
:1010F000A16F000158DE000E01B0010E010B0108C6
:1011000009E1036A02019351120FE96E020E0320F6
:10111000EA6EEF2A320E0201A36F000181EC02F0A9
:10112000036A02019351120FE96E020E0320EA6E68
:10113000EFCF9BF296510A0DF3509B5DD8B4BAD015
:10114000D8A0B8D0036A9351120FE96E020E0320A3
:10115000EA6EEF6A93C29DF29E6B020EA06F9F6FC4
:101160000001B6EC03F099C230F29AC231F2540E8B
:101170000201326F1CC09BF2050E9C6F020E9E6F27
:101180002E0E9D6F00018DDD0152D8A402D0020108
:10119000F1D7960EF66E010EF76E196AF2BE198E31
:1011A000F29E060E0201A66F0001B8EC01F019BE16
:1011B000F28E196AF2BE198EF29E30C2A7F2370E75
:1011C0000201A86F000195EC01F019BEF28E196AB8
:1011D000F2BE198EF29E200E0201A96F000173EC7F
:1011E00001F019BEF28E196AF2BE198EF29E31C25A
:1011F000A7F2370E0201A86F000195EC01F019BEAD
:10120000F28E196AF2BE198EF29E200E0201A96FAB
:10121000000173EC01F019BEF28E196AF2BE198E4C
:10122000F29E32C2A9F273EC01F019BEF28EA40E46
:10123000F66E010EF76E196AF2BE198EF29E060E58
:101240000201A66F0001B8EC01F019BEF28E196A16
:10125000F2BE198EF29E96C2A7F2370E0201A86F57
:10126000000195EC01F019BEF28E196AF2BE198EDA
:10127000F29E200E0201A96F000173EC01F019BE6D
:10128000F28E196AF2BE198EF29E0D0E0201A96F3E
:10129000000173EC01F019BEF28E196AF2BE198ECC
:1012A000F29E0A0E0201A96F000173EC01F019BE53
:1012B000F28E0201A3D196513008D8A4E1D093C296
:1012C000A0F2020EA26FA16F00016DDD000E01B051
:1012D000010E010B010809E1036A02019351120F8B
:1012E000E96E020E0320EA6EEF2A320E0201A36FAE
:1012F000000181EC02F0036A02019351120FE96EC2
:10130000020E0320EA6EEF501108D8B0B8D093C295
:101310009DF29E6B020EA06F9F6F0001B6EC03F072
:10132000036A02019351120FE96E020E0320EA6E66
:10133000EF6A99C230F29AC231F2480E326F1CC085
:101340009BF2050E9C6F020E9E6F2E0E9D6F00018C
:10135000A8DC0152D8A402D00201F1D7B00EF66E7B
:10136000010EF76E196AF2BE198EF29E060E020188
:10137000A66F0001B8EC01F019BEF28E196AF2BE38
:10138000198EF29E30C2A7F2370E0201A86F00013B
:1013900095EC01F019BEF28E196AF2BE198EF29E1A
:1013A000200E0201A96F000173EC01F019BEF28E4C
:1013B000196AF2BE198EF29E31C2A7F2370E0201EF
:1013C000A86F000195EC01F019BEF28E196AF2BE09
:1013D000198EF29E200E0201A96F000173EC01F03C
:1013E00019BEF28E196AF2BE198EF29E32C2A9F2AD
:1013F00073EC01F019BEF28EBE0EF66E010EF76EA2
:10140000196AF2BEF019BEF28E196AF2BE198EF296
:101410009E200E0201A96F000173EC01F019BEF2CB
:101420008E196AF2BE198EF29E32C2A9F273EC01D5
:10143000F019BEF28EBE0EF66E010EF76E196AF24C
:10144000BE6F000173EC01F019BEF28E196AF2BE94
:10145000198EF29E0D0E0201A96F000173EC01F0CE
:1014600019BEF28E196AF2BE198EF29E0A0E0201A0
:10147000A96F000173EC01F019BEF28E0201BED01B
:1014800096518008D8A4BAD093C2A0F2020EA26FDF
:101490000E0EA16F000187DC000E01B0010E010BE2
:1014A000D8A4AAD093C2A0F2020E0201A26FA16F2B
:1014B000000179DC000E01B0010E010B0108D8A477
:1014C0009BD093C29DF202019E6B020EA06F9F6F94
:1014D0000001B6EC03F0036A02019351120FE96EAA
:1014E000020E0320EA6EEF6A99C230F29AC231F21C
:1014F000540E326F1CC09BF2050E9C6F020E9E6F45
:101500002E0E9D6F000151EC06F00152D8A402D0BE
:101510000201F0D7CA0EF66E010EF76E196AF2BE1E
:10152000198EF29E060E0201A66F0001B8EC01F0C2
:1015300019BEF28E19050E9C6F020E9E6F2E0E9D27
:101540006F000151EC06F00152D8A402D00201F064
:10155000D7CA0EF66E010EF76E196AF2BE198EF238
:101560009E060E0201A66F0001B8EC01F019BEF252
:101570008E19A7F2370E0201A86F000195EC01F059
:1015800019BEF28E196AF2BE198EF29E200E020169
:10159000A96F000173EC01F019BEF28E196AF2BE58
:1015A000198EF29E32C2A9F273EC01F019BEF28ECE
:1015B000196AF2BE198EF29E200E0201A96F000177
:1015C00073EC01F019BEF28E196AF2BE198EF29E0A
:1015D0000D0E0201A96F000173EC01F019BEF28E2D
:1015E000196AF2BE198EF29E0A0E0201A96F00015D
:1015F00073EC01F019BEF28E020100D0000112005E
:1016000002019351100DF350956B946F010E9425C8
:101610009B6F000E95219C6F690E9B25E96E000E55
:101620009C21EA6EEFCF97F2020E94259B6F000E7D
:1016300095219C6F690E9B25E96E000E9C21EA6E38
:10164000EFCF98F2090E94259B6F000E95219C6FA9
:10165000690E9B25E96E000E9C21EA6EEFCF99F290
:101660000A0E94259B6F000E95219C6F690E9B2599
:10167000E96E000E9C21EA6EEFCF9AF2080E9425D7
:101680009B6F000E95219C6F690E9B25E96E000EE5
:101690009C21EA6EEFCF96F293C2A0F2010EA26FE8
:1016A000FE0EA16F0001D3EC06F0000E01B0010E9A
:1016B000010B17E193C29DF2010E02019E6FA06F14
:1016C000FE0E9F6F0001B6EC03F093C29DF2010E77
:1016D00002019E6F020EA06F060E9F6F0001B6EC16
:1016E00003F002019653D8A4E1D0036A9351120F7C
:1016F000E96E020E0320EA6EEF500A08D8A0D6D099
:1017000093C2A0F2020EA26F060EA16F0001D3ECED
:1017100006F0000E01B0010E010B0108D8A4C4D0E0
:1017200093C29DF202019E6B020EA06F060E9F6F88
:101730000001B6EC03F093C29DF202019E6B020E13
:10174000A06F9F6F0001B6EC03F0036A0201935192
:10175000120FE96E020E0320EA6EEF6A97C230F2B2
:1017600098C231F2540E326F1CC09BF2050E9C6F72
:10177000020E9E6F2E0E9D6F000151EC06F001527D
:10178000D8A402D00201F0D7DC0EF66E010EF76E7F
:10179000196AF2BE198EF29E0D0E0201A66F0001AB
:1017A000B8EC01F019BEF28E196AF2BE198EF29EE3
:1017B00030C2A7F2370E0201A86F000195EC01F0CC
:1017C00019BEF28E196AF2BE198EF29E200E020127
:1017D000A96F000173EC01F019BEF28E196AF2BE16
:1017E000198EF29E31C2A7F2370E0201A86F0001D6
:1017F00095EC01F019BEF28E196AF2BE198EF29EB6
:10180000200E0201A96F000173EC01F019BEF28EE7
:10181000196AF2BE198EF29E32C2A9F273EC01F07F
:1018200019BEF28EF10EF66E010EF76E196AF2BE57
:10183000198EF29E060E0201A66F0001B8EC01F0AF
:1018400019BEF28E196AF2BE198EF29E96C2A7F2E6
:10185000370E0201A86F000195EC01F019BEF28E5F
:10186000196AF2BE198EF29E200E0201A96F0001C4
:1018700073EC01F019BEF28E196AF2BE198EF29E57
:101880000D0E0201A96F000173EC01F019BEF28E7A
:10189000196AF2BE198EF29E0A0E0201A96F0001AA
:1018A00073EC01F019BEF28E79D302019653D8B4CD
:1018B000EED096511D08D8A0EAD0036A9351120FBA
:1018C000E96E020E0320EA6EEF503108D8A0DCD09A
:1018D000036A9351120FE96E020E0320EA6EEF5075
:1018E0000208D8B0D1D093C2A0F2020EA26F060EA9
:1018F000A16F0001D3EC06F0000E01B0010E010B48
:101900000108D8B402D00201BFD093C29DF20201F7
:101910009E6B020EA06F060E9F6F0001B6EC03F0E7
:1019200093C29DF202019E6B020EA06F9F6F000199
:10193000B6EC03F0036A02019351120FE96E020E36
:101940000320EA6EEF6A97C230F298C231F2540E69
:10195000326F9753D8B498D09853D8B495D01CC050
:101960009BF2050E9C6F020E9E6F2E0E9D6F000166
:1019700051EC06F00152D8A402D00201F0D7FE0EBD
:10198000F66E010EF76E196AF2BE198EF29E060E01
:101990000201A66F0001B8EC01F019BEF28E196ABF
:1019A000F2BE198EF29E30C2A7F2370E0201A86F66
:1019B000000195EC01F019BEF28E196AF2BE198E83
:1019C000F29E200E0201A96F000173EC01F019BE16
:1019D000F28E196AF2BE198EF29E31C2A7F2370E4C
:1019E0000201A86F000195EC01F019BEF28E196A90
:1019F000F2BE198EF29E200E02F2BE198EF29E20C9
:101A00000E0201A96F000173EC01F019BEF28E19EC
:101A10006AF2BE198EF29E31C2A7F2370E0201A8F9
:101A20006F000195EC01F019BEF28E196AF2BE1931
:101A30008EF29E200E0219BEF28E196AF2BE198E27
:101A4000F29E96C2A7F2370E0201A86F000195EC34
:101A500001F019BEF28E196AF2BE198EF29E0D0EB9
:101A60000201A96F000173EC01F019BEF28E196A30
:101A7000F2BE198EF29E0A0E0201A96F000173ECEC
:101A800001F019BEF28E0201000188D202019651C6
:101A90008008D8A4D4D093C2A0F2020EA26F0A0E7E
:101AA000A16F0001D3EC06F0000E01B0010E010B96
:101AB0008EF29E0A0E0201A96F000173EC01F0196B
:101AC000BEF28E0201000188D2020196518008D830
:101AD000A4D4D093C2A0F2020EA26F0A0EA16F008E
:101AE00001D3EC06F0000E01B0010E010BC230F282
:101AF00098C231F2540E0201326F1CC09BF2050EE7
:101B00009C6F020E9E6F2E0E9D6F000151EC06F031
:101B10000152D8A402D00201F0D7180EF66E020EC0
:101B2000F76E196AF2BE198EF29E080E0201A66FB8
:101B30000001B8EC01F019BEF28E196AF2BE198EDE
:101B4000F29E30C2A7F2370E0201A86F000195EC99
:101B500001F019BEF28E196AF2BE198EF29E200EA5
:101B60000201A96F000173080E0201A66F0001B8FF
:101B7000EC01F019BEF28E196AF2BE198EF29E3097
:101B8000C2A7F2370E0201A86F000195EC01F0190F
:101B9000BEF28E196AF2BE198EF29E200E0201A9C3
:101BA0006F000173F2BE198EF29E32C2A9F273EC7D
:101BB00001F019BEF28E280EF66E020EF76E196A4B
:101BC000F2BE198EF29E060E0201A66F0001B8EC5D
:101BD00001F019BEF28E196AF2BE198EF29E96C2FB
:101BE000A7F2370E0201A86F000195EC01F019BEB3
:101BF000F28E196AF2BE198EF29E200E0201A96FB2
:101C0000000173EC01F019BEF28E196AF2BE198E52
:101C1000F29E0D0E0201A96F000173EC01F019BED6
:101C2000F28E196AF2BE198EF29E0A0E0201A96F97
:101C3000000173EC01F019BEF28EB0D10201965191
:101C40003008D8A4ACD1036A9351120FE96E020E8A
:101C50000320EA6EEF500308D8B0D7D0036A93513F
:101C6000120FE96E020E0320EA6EEF500D08D8A0A5
:101C7000CCD093C2A0F2020EA26F060EA16F00019B
:101C8000D3EC06F0000E01B0010E010B0108D8B430
:101C900002D00201BAD097C230F298C231F2540E8B
:101CA0000201326F93C29DF29E6B020EA06F060E70
:101CB0009F6F0001B6EC03F093C29DF202019E6B90
:101CC000020EA06F9F6F0001B6EC03F0036A0201E1
:101CD0009351120FE930F298C231F2540E020132E0
:101CE0006F93C29DF29E6B020EA06F060E9F6F0057
:101CF00001B6EC03F093C29DF202019E6B020EA0AE
:101D00006F9F6F0001B6EC03F0036A02019351125A
:101D10000FE9A66F0001B8EC01F019BEF28E196A46
:101D2000F2BE198EF29E30C2A7F2370E0201A86FE2
:101D3000000195EC01F019BEF28E196AF2BE198EFF
:101D4000F29E200E0201A96F000173EC01F019BE92
:101D5000F28E196AF2BE198EF29E31C2A7F2370EC8
:101D60000201A86F000195EC01F019BEF28E196A0C
:101D7000F2BE198EF29E200E0201A96F000173ECD3
:101D800001F019BEF28E196AF2BE198EF29E32C2AD
:101D9000A9F273EC01F019BEF28E440EF66E020E3B
:101DA000F76E196AF2BE198EF29E060E0201A66F38
:101DB0000001B8EC01F019BEF28E196AF2BE198E5C
:101DC000F29E96C2A7F2370E0201A86F000195ECB1
:101DD00001F019BEF28E196AF2BE198EF29E0D0E36
:101DE0000201A96F000173EC01F019BEF28E196AAD
:101DF000F2BE198EF29E0A0E0201A96F000173EC69
:101E000001F019BEF28ECAD0020193C2A0F2020EF6
:101E1000A26F060EA16F0001D3EC06F0000E01B018
:101E2000010E010B0108D8A4B9D097C230F298C2B4
:101E300031F24C0E0201326F93C29DF29E6B020E84
:101E4000A06F060E9F6F0001B6EC03F093C29DF2E7
:101E500002019E6B020EA06F9F6F0001B6EC03F0B3
:101E6000036A02019351120FE96E020E0320EA6E1B
:101E7000EF6A1CC09BF2050E9C6F020E9E6F2E0E29
:101E80000E9F6F0001B6EC03F093C29DF202019E1B
:101E90006B020EA06F9F6F0001B6EC03F0036A02A5
:101EA000019351120FE96E020E0320EA6EEF6A1CD5
:101EB000C09BF2050E9C6F020E9E6F2E0E9D6F0052
:101EC0000151EC06F00152D8A402D00201F0D75023
:101ED0000EF66E020EF76E196AF2BE198EF29E08A9
:101EE0000E0201A66F0001B8EC01F019BEF28E19C6
:101EF0006AF2BE198EF29E30C2A795EC01F019BEAF
:101F0000F28E196AF2BE198EF29E200E0201A96F9E
:101F1000000173EC01F019BEF28E196AF2BE198E3F
:101F2000F29E32C2A9F273EC01F019BEF28E600E7D
:101F3000F66E020EF76E196AF2BE198EF29E060E4A
:101F40000201A66F0001B8EC01F019BEF28E196A09
:101F5000F2BE198EF29E96C2A7F2370E0201A86F4A
:101F6000000195EC01F019BEF28E196AF2BE198ECD
:101F7000F29E0D0E6AF2BE198EF29E060E0201A6A8
:101F80006F0001B8EC01F019BEF28E196AF2BE19A9
:101F90008EF29E96C2A7F2370E0201A86F0001953D
:101FA000EC01F019BEF28E196AF2BE198EF29E0D86
:101FB0000E0E936E956E9290899092928982530E36
:101FC000006E002EFED70101FC51100803E0FC5109
:101FD000080806E1936881CF8EF2956883CF8FF26F
:101FE00002018D6B8D51070819E38FC200F08D51EE
:101FF000016E04E0D8900032012EFCD700B006D06C
:102000008DC293F20001ECEC06F005D08DC293F284
:10201000000100EC0BF002018D2BE4D78D6B8D518C
:1020200007081EE38EC200F08D51016E04E0D890C7
:102030000032012EFCD700B009D0080E8D25926F1A
:10204000936F0001ECEC06F008D00201080E8D251C
:10205000926F936F000100EC0BF002018D2BDFD724
:062060000001B1EF12F0D7
:102100003100320033003400350036003700F86A01
:10211000D09E078EEA6AE96A1A6A94988B98410EF3
:102120001C6E810EAF6EE60EAC6ED00EAB6E626AA8
:1021300002013C6B3D6B3E6BC180C182C184C19684
:10214000616A636A646A656A666A676A686A336B49
:10215000346B8C6B8B6B94948B94030E8D6FC80EC9
:10216000A36F000181EC02F002018D2FF8D7949447
:102170008B8492988998850ECD6E000195EF02F0C0
:10218000010E0201976F880E966FA20E986F0001E4
:102190000FEC03F001C0FBF1FBC11BF0010E0201CB
:1021A000976F890E966FA20E986F00010FEC03F0E7
:1021B00001C0FCF1010E0201976F8A0E966FA20E0C
:1021C000986F00010FEC03F001C0FDF1010E020158
:1021D000976F8B0E966FC11BF0010E0201976F89EE
:1021E0000E966FA20E986F00010FEC03F001C0FC79
:1021F000F1010E0201976F8A0E6F0001B8EC01F039
:1022000019BEF28E196AF2BE198EF29E1BC0A7F299
:10221000570E0201A86F000195EC01F019BEF28E75
:10222000960EF66E040EF76E196AF2BE198EF29EC5
:10223000040E0201A66F0001B8EC01F019BEF28E87
:102240009C0EF66E040EF76E196AF2BE198EF29E9F
:1022500001A86F000195EC01F019BEF28E960EF602
:102260006E040EF76E196AF2BE198EF29E040E020B
:1022700001A66F0001B8EC01F019BEF28E9C0EF6BB
:102280006E040EF76E196AF2BE198EF29E0E0201EE
:10229000A66F0001B8EC01F019BEF28E196AF2BE09
:1022A000198EF29EFDC1A7F2370E0201A86F000140
:1022B00095EC01F019BEF28EAE0EF66E040EF76EBE
:1022C000196AF2BE198EF29E090E0201A66F000174
:1022D000B8EC01F019BEF28E196AF2BE198EF29EA8
:1022E0001CC0A7F2370E0201A86F000195EC01F0A7
:1022F00019BEF28E196AF2BE198EF29E200E0201EC
:10230000A96F000173EC01F019BEF28E196AF2BEDA
:10231000198EF29E0D0E0201A96F000173EC01F0FF
:1023200019BEF28E196AF2BE198EF29E0A0E0201D1
:10233000A96F000173EC01F019BEF28E02018C6BE3
:102340008B6BBE0EF66E040EF76E000163EC03F0AD
:1023500002018A6B896B8A534EE1895103084BE372
:1023600089C28DF2000179EF03F00201876B87517A
:102370000F083DE38CC203F08B518B2BD8B48C2B10
:102380008D6F03C08EF2690E8D25E96E000E8E21D1
:10239000EA6EEFCF8FF2196AF2BE198EF29E8FC2EB
:1023A000A7F2570EA86F000195EC01F019BEF28E4E
:1023B000196AF2BE198EF29E200E0201A96F6F03F8
:1023C000C08EF2690E8D25E96E000E8E21EA6EEF49
:1023D000CF8FF2196AF2BE198EF29E8FC2A7F25702
:1023E0000EA86F000195EC01F019BEF28E196AF289
:1023F000BE198EF29E200E0201A96F0EF76E00012B
:1024000063EC03F0D7EF03F0020188515108D8B410
:10241000AAD09D80000152EC04F001C08DF20201AF
:102420008D51600806E28D517A0803E38D51DF0B70
:1024300001D08D51886F9D908851530A000101E0B1
:102440008AD01C520DE102D000A00AD0E00EF66E38
:10245000040EF76E63EC03F04FEF05F001C01CF0C3
:10246000196AF2BE198EF29E0A0E0201A96F0001CE
:1024700073EC01F019BEF28E196AF2BE198EF29E4B
:102480000D0E0201A96F000173EC01F019BEF28E6E
:102490001CC08DF21F0E02018E6F00018EEF05F041
:1024A000196AF2BE198EF29E3A0E0201A96F00015E
:1024B00073EC01F019BEF28E196AF2BE198EF29E0B
:1024C0003E0E0201A96F000173EC01F019BEF28EFD
:1024D0001BEF06F002C08EF201C08DF28EC290F2A8
:1024E0008DC28FF21CC091F2AAEF06F00201876B39
:1024F0004051875D18E2020E8725036A3F0FE96E9F
:10250000020E0320EA6EEFCF8DF2196AF2BE198E29
:10251000F29E8DC2A9F2000173EC01F019BEF28E99
:102520000201872BE5D7196AF2BE198EF29E0A0EB8
:10253000A96F000173EC01F019BEF28E196AF2BEA8
:10254000198EF29E0D0E0201A96F000173EC01F0CD
:1025500019BEF28E06D002018851510803E0000135
:0825600020D5020152D703004F
:0F3FF000FFFFFFFFFFFFFFFF626466FFFFFF633E
:107FF0006362616C206D686B626FFF6963FF63632E
:020000040020DA
:0800000000011FFFAB111213F8
:020000040030CA
:0E00000000270F0F000185000FC00FE00F401A
:0200000400F00A
:10000000730061006C0061006D0020006B006800EF
:100010006F0062006900FF00FF00FF00FF00FF00AB
:00000001FF
