:080000000C9442000C94000076
:100008000C9400000C942C020C9400000C9400003A
:100018000C9400000C9400000C9400000C94000058
:100028000C9400000C9400000C9400000C94000048
:100038000C9400000C9400000C9400000C94000038
:100048000C9400000C9400000C9400001027E803A6
:1000580064000A0001000010000110000100000007
:100068000200020025752F002530357500000100BB
:10007800020066000400060068000000F894EE27FD
:10008800ECBBF1E0F5BFE5BF8DE0A2E0BB27ED9347
:100098008A95E9F780E098E0A0E6ED930197E9F703
:1000A800E6E7F0E085919591009761F0A591B5910B
:1000B80005901590BF01F00105900D920197E1F7A9
:1000C800FB01F0CFEFE5EDBFE8E0EEBFC0E6D2E020
:1000D8000C948E12AA93E881E03029F40E94C71587
:1000E8009598AF98A89AA881A13021F40E94CD15BF
:1000F800AF9AA89AA881A23021F40E94D415AF9A89
:10010800A898A881A33029F40E94C715959AAF9A98
:10011800A898A881A43021F40E94CD15AF98A8987A
:10012800A881A53029F40E94DB15959AAF98A89864
:10013800A881A63029F40E94DB159598AF98A89855
:10014800A881A73029F40E94E115959AAF9AA89A38
:10015800A881A83029F40E94C7159598AF98A89847
:10016800A881A93029F40E94C715959AAF98A89834
:10017800A881A13429F40E94E1159598AF98A89810
:10018800A881A23621F40E94E7150E94EC15A881E7
:10019800A33621F40E94F115AF9AA898A881A33438
:1001A80031F40E94F81596989598AF98A89AA88166
:1001B800A43631F40E94FD1596989598AF9AA898A0
:1001C800A881A53421F40E94F8150E94EC15A88195
:1001D800A53621F40E94D415AF98A898A881A63412
:1001E80021F40E94F8150E940216A881A73629F466
:1001F8000E94C715959AAF98A898A881A83621F4A7
:100208000E94E7150E940216A881A83421F40E94D2
:10021800FD150E940216A881AC3421F40E94F11544
:10022800AF98A89AA881AE3631F40E94E715969A3D
:100238009598AF9AA898A881AF3631F40E94E7152F
:1002480096989598AF9AA898A881AF3429F40E94F7
:10025800C7159598AF98A89AA881A03531F4DF986A
:10026800AE98AB98929A0E940216A881A13729F4F9
:100278000E94E115959AAF98A898A881A23731F401
:100288000E940716969A9598AF9AA898A881A335C0
:1002980029F40E94DB15959AAF98A898A881A437ED
:1002A80021F40E9407160E94EC15A881A53531F4A7
:1002B8000E94FD1596989598AF98A89AA881A93498
:1002C80031F40E940716969A9598AF98A89AA88133
:1002D800A53731F40E94E71596989598AF9AA89A91
:1002E800A881AA3431F40E94FD1596989598AF9A82
:1002F800A89AA881A93731F40E94FD159698959A75
:10030800AF98A898A881AD3231F40E940716969A42
:10031800959AAF9AA898A881AF3531F40E9407162C
:100328009698959AAF9AA89AA881AE3521F40E941A
:10033800F8150E940C16A881A13231F40E94071604
:10034800969A959AAF98A89AA881A03431F40E94F9
:100358000716969A9598AF9AA89AA881A43221F47C
:100368000E94E7150E940C16A881A53231F4DF9887
:10037800AE9AAB98929A0E940C16A881A03221F4EA
:100388000E9407160E940C1621960895AA930E94AF
:1003980011160E9416160E941B160E9416160E941D
:1003A80021160E9416160E9427160E9416160E94F1
:1003B8002D160E941616AA9A25960895AA93AB811F
:1003C80089DEC7980E941616C79AAA8183DEC69846
:1003D8000E941616C69AA9817DDEC3980E94161639
:1003E800C39AA88177DEC4980E941616C49A4BC295
:1003F800AA93A8856FDEC7980E943316C79AAF8163
:1004080069DEC6980E943316C69AAE8163DEC39829
:100418000E943316C39AAD815DDEC4980E943316DC
:10042800C49A0E9411160E9433160E941B160E943D
:1004380033160E9421160E9433160E9427160E9426
:1004480033160E942D160E943316AA9A2B960895E9
:10045800AA93BA93EA93FA93EFB7EA9321FE08C0F6
:10046800A9E4B3E00E943716AFE3B3E00E94371661
:1004780020FE21C00E943D16A0914903B0914A0375
:10048800AE17BF0730F00E944216A7E4B3E00E94FF
:1004980037160E944816A0913F03B0914003AE174B
:1004A800BF0748F00E944D160E9453163A96E093F3
:1004B8003D03F0933E03E991EFBFF991E991B991BA
:1004C800A99118950E9458160E945D160E946616FA
:1004D800A3E3B0E00E946F160E94F7220E945D1607
:1004E8007F936F93FF93EF930E945816AF91BF913C
:1004F8008F919F910E94C0220E947D16A5E3B0E0D3
:100508000E94D1230F01AFE2B0E00E948616AFE24D
:10051800B0E00E946F160E94C0220E94A416A7E3B2
:10052800B0E00E94D1230F01A1E3B0E00E9486163B
:10053800A1E3B0E00E946F160E94C0220E94AD168F
:100548000E945D160E94BA16A0E2B0E00E94C3168F
:100558000E94CE16ACE0B0E00E94C3160E94C022F2
:100568000E94E0160E945D160E94BA16A8E1B0E04B
:100578000E94C3160E94CE16A0E1B0E00E94C316E6
:100588000E94C0220E94ED160E945D160E94BA16B3
:10059800ACE1B0E00E94C3160E94CE16A4E1B0E020
:1005A8000E94C3160E94C0220E94FA16689422F87C
:1005B8000895E89422F80E9458160E947D16AFE22A
:1005C800B0E00E9403170E94A416A1E3B0E00E94C5
:1005D80003170E94AD160E94E0160E94ED160E94B5
:1005E800FA1608950E94081721F40E941217E030A5
:1005F80009F004C00E9417170E941C170E942717B1
:10060800AE1720F0A091E002A83158F0A091E002C6
:10061800A03030F00E941717A091E002EA1708F402
:100628003AC00E942717EA1749F40E942E1720F0B3
:10063800A091E102AC3308F001C044DF0E94271703
:10064800EA1720F4A091E002A83108F001C03ADFCF
:10065800A091E002A03030F00E941717A091E002AC
:10066800AE1708F001C02EDFA091E002A03030F0F4
:100678000E941717A091E002EA1709F00CC0A09198
:10068800E102A03030F00E941217A091E102EA17AF
:1006980008F401C017DF0E9436170E9442170E9413
:1006A800471709F493980E945B1709F4939AC69820
:1006B8000E9442170E9466170E9442170E947417F0
:1006C8000E944217C49AA0911C03B0911D03809107
:1006D8001E0390911F030E948117E0933903A09194
:1006E8003903A23310F0E4E603C0A0913903E2E332
:1006F800EA1BE0933903A0916402B09165028091EE
:100708006602909167020E948117E0933A03A091D4
:100718003A03A23310F0E4E603C0A0913A03E2E3FF
:10072800EA1BE0933A0308950E9498170E94542305
:10073800AE2FD0DC0E9498170E946E23E0934103ED
:10074800F09342030E9498170E94A51711F4A0E2A3
:10075800C1DC0E94AA170E94AE170E94B5170E941A
:10076800AE170E945923E0934303F09344030E9479
:1007780098170E94A51731F40E94AE170E941723FC
:10078800309709F002C0A0E2A5DC0E94BA170E94C7
:10079800BE170E94B5170E94BE170E945923E09306
:1007A8004B03F0934C030E9498170E94A51761F41D
:1007B8000E94AE170E941723309731F40E94BE178B
:1007C8000E941723309709F002C0A0E283DC0E9440
:1007D800C5170E94C9170E94B5170E94C9170E9421
:1007E8005923E0934503F09346030E9498170E940B
:1007F800A51791F40E94AE170E941723309761F451
:100808000E94BE170E941723309731F40E94C9171F
:100818000E941723309709F002C0A0E25BDC0E9417
:10082800D017A091450356DC0E94D4170895BA93B7
:10083800AA931A930A9300E010E0EA81FB810E174D
:100848001F07F8F40E94361783E98A95F1F70E948A
:10085800471709F493980E945B1709F4939AC6986E
:1008680083E98A95F1F70E94661783E98A95F1F77B
:100878000E94741783E98A95F1F7C49A0F5F1F4F96
:10088800DCCF1981088124960895AA930E94111635
:100898000E94D8170E941B160E94D8170E94211682
:1008A8000E94D8170E9427160E94D8170E942D165A
:1008B8000E94D817AA9A279608950E94DC1711F467
:1008C8000E94EC17A091E302AC3310F00E94F217DB
:1008D8000E94F81769F40E94FE1729F40E941B1859
:1008E80010F00E944F180E94681810F00E947718A4
:1008F80008951A930A930E94A61890F40E94B518B6
:100908000E94C81822FC04C00E94D1180E94DA185C
:1009180022FE02C00E94F5180E94B5180E94111903
:100928000E94DC1711F40E94EC17A091E302AC338B
:1009380010F00E94F2170E94F81769F40E94FE173F
:1009480029F40E941B1810F00E944F180E94681882
:1009580010F00E947718099119910895E3E6E09341
:10096800E3020E94A61890F40E94B5180E94C818C5
:1009780022FC04C00E94D1180E94DA1822FE02C08C
:100988000E94F5180E94B5180E94111908950E9436
:10099800DC1711F40E94EC17A091E302AC3310F0BD
:1009A8000E94F2170E94F81761F50E943E190E94F2
:1009B8004B190E94561910F40E946C190E947D1957
:1009C80011F40E948D190E94A91910F40E94B419FB
:1009D8000E94C51911F40E94D5190E94F11910F44A
:1009E8000E94FC190E94151A11F40E94251A0E94EF
:1009F800471A10F40E94521A0E946B1A11F40E94AE
:100A08007B1A08950E94DC1711F40E94EC17A0913C
:100A1800E302AC3310F00E94F2170E94F81761F558
:100A28000E943E190E944B190E94561910F40E9408
:100A38006C190E947D1911F40E948D190E94A91940
:100A480010F40E94B4190E94C51911F40E94D51916
:100A58000E94F11910F40E94FC190E94151A11F451
:100A68000E94251A0E94471A10F40E94521A0E94E6
:100A78006B1A11F40E947B1A0E949D1AA0F40E941E
:100A8800A81A0E94C81822FC04C00E94BB1A0E941F
:100A9800C41A22FE02C00E94DF1A0E94A81A0E94ED
:100AA800FB1AAE0EBF1E0E94A91990F40E941A1BD1
:100AB8000E94C81822FC02C00E942D1B22FE02C000
:100AC8000E94491B0E941A1B0E94FB1ACE0EDF1EB1
:100AD8000E94F11990F40E94651B0E94C81822FC1C
:100AE80002C00E94781B22FE02C00E94941B0E9432
:100AF800651B0E94FB1A0E94B01B0E94471A90F4C3
:100B08000E94BB1B0E94C81822FC02C00E94CE1B78
:100B180022FE02C00E94EA1B0E94BB1B0E94FB1A15
:100B28000E94061C0895E3E6E093E3020E949D1AE2
:100B3800A0F40E94A81A0E94C81822FC04C00E94AF
:100B4800BB1A0E94C41A22FE02C00E94DF1A0E9429
:100B5800A81A0E94FB1AAE0EBF1E0E94A91990F493
:100B68000E941A1B0E94C81822FC02C00E942D1B5A
:100B780022FE02C00E94491B0E941A1B0E94FB1AF7
:100B8800CE0EDF1E0E94F11990F40E94651B0E9490
:100B9800C81822FC02C00E94781B22FE02C00E94D4
:100BA800941B0E94651B0E94FB1A0E94B01B0E94A6
:100BB800471A90F40E94BB1B0E94C81822FC02C06E
:100BC8000E94CE1B22FE02C00E94EA1B0E94BB1B91
:100BD8000E94FB1A0E94061C0895BA93AA93C5980E
:100BE800AA81BB810E943621C59AA881B9810E9439
:100BF8003621249608951A930E94111CEFEFF3E012
:100C0800F9BDE8BD0E941B1C0E94201C0F010E9418
:100C18001B1C0E94271C10E0183C20F40E94331C67
:100C28001F5FFACF0E94111C0E943C1C6CF40E94AA
:100C38004C1CE8E0EA93A8E0A9DB0E944C1CA8E061
:100C4800BDDB0E94511CF0CFC79AC69AC39AC49ABA
:100C58000E945C1CE0E5F0E0FA93EA930E94621CB3
:100C680014DE0E94111C0E943C1C94F40E94621C19
:100C78008DDBE4E6EA93EFE6EA93EEE6EA93A5E68F
:100C88009DDBA1E0B0E00E9436210E94511CEBCF11
:100C980022C01A93E4E6F0E0FA93EA930E946C1CEF
:100CA8000E946C1CEDE2EA93EA93ADE2A1DB18EC3A
:100CB800113020F00E94331C1150FACFE0E0F0E030
:100CC800F9BDE8BDCB9906C0A8EEB3E00E94362175
:100CD80092DF01C0F3CF19910895E1E0E093E702B4
:100CE8000E94711C0E94081721F40E941217E0301C
:100CF80009F004C00E9417170E941C170E942717AA
:100D0800AE1720F0A091E002A83158F0A091E002BF
:100D1800A03030F00E941717A091E002EA1708F4FB
:100D28003AC00E942717EA1749F40E942E1720F0AC
:100D3800A091E102AC3308F001C0C4DB0E94271780
:100D4800EA1720F4A091E002A83108F001C0BADB4C
:100D5800A091E002A03030F00E941717A091E002A5
:100D6800AE1708F001C0AEDBA091E002A03030F071
:100D78000E941717A091E002EA1709F00CC0A09191
:100D8800E102A03030F00E941217A091E102EA17A8
:100D980008F401C097DB0E947D1CE3E6E093E302C0
:100DA800E0E0E093E402E093E502E093E802E093F8
:100DB800E902E093EA02E093EB02E093EC02E093AD
:100DC800ED02E093EE02E093EF020E94871C0E947E
:100DD800911C0E949B1CE0E0E0930C03E0930D0340
:100DE800E0930E03E0930F03E0931403E0931503DD
:100DF800E0931603E0931703E0930803E0930903D5
:100E0800E0930A03E0930B03E093F402E093F50206
:100E1800E093F602E093F702E0932C03E0932D03AE
:100E2800E0932E03E0932F03E0938A03E0938B0370
:100E3800E0938C03E0938D030E947D1C0E94AD1CFF
:100E48000E94B71CE0930403E0930503E0930603B4
:100E5800E0930703A8E2B0E0E0E0F0E00E94E923B5
:100E6800E093F002E093F102E093F202E093F302E0
:100E78000E94BB1C0E9442160E94C11C0E94C51CF5
:100E88000E944D16689423F8E0911C03F0911D030D
:100E980060911E0370911F030E94CB1C0E94D41CFA
:100EA8000E94DD1C0E94EC1C0E94111C0E94F01C78
:100EB800AE31E0E0BE07E0E08E07E0E09E075CF4BC
:100EC80033DC0E94711C8EDB8DEC9AE00197F1F700
:100ED8000E94511CEBCF0E94711C0E94F91C19F44E
:100EE800E0E0E09338030E94711C0E94021D09F49F
:100EF80042C00E94081D08F0FCDC0E94171D08F47F
:100F08002DDDE091E602E03009F4D7DC0E94021DF5
:100F180091F1CB9B30C0CA9B2EC023FE03C00E9418
:100F2800211D08F402C00E94311D0E94541D10F0BA
:100F38000E94641D0E94541D10F00E94641D0E94AE
:100F4800541D10F00E94641D0E94541D10F00E9450
:100F5800641D0E94541D10F00E94641D0E94871D8C
:100F680014F00E94901D0E949F1D0E94711C0E94F7
:100F7800021D09F0B8CF0E94871D14F00E94901D31
:100F88000E94711C0E949F1D0E94A31D0E94C01DEB
:100F98000E94C71D22FC14C00E945316A091EC02A7
:100FA800B091ED028091EE029091EF020E94CD1D6A
:100FB800E093EC02F093ED026093EE027093EF027F
:100FC80022FE14C00E945316A091E802B091E902D3
:100FD8008091EA029091EB020E94CD1DE093E80215
:100FE800F093E9026093EA027093EB020E945316B1
:100FF800A091F002B091F1028091F2029091F30277
:101008000E94CD1DE093F002F093F1026093F2028A
:101018007093F3020E94BB1C0E94C51C0E94081D0D
:1010280008F067DC0E94171D08F498DCE091E602DE
:10103800E03009F442DC23FE03C00E94211D08F4BD
:1010480002C00E94311D0E94541D10F00E94641DB0
:101058000E94541D10F00E94641D0E94541D10F03F
:101068000E94641D0E94541D10F00E94641D0E947D
:10107800541D10F00E94641D0E94871D14F00E94E8
:10108800901D0E94711C0E949F1DCA999AC02197A9
:10109800E3E6E093E3020E944216E89420F80E94F7
:1010A800D21D0E94D41D44245524E9E1F0E04E16D7
:1010B8005F0690F40E94711C95DA0E94D21D34DB01
:1010C800CA9B0AC0C89B08C0C99B06C0CB9B04C06A
:1010D800F20131962F01E9CFCA9B25C0CB9906C0F2
:1010E800A0E9B1E0A4DB689420F81DC0442455248D
:1010F800E9E1F0E04E165F0698F40E94711C0E9428
:10110800D81D0E94DD1D42D9CA9B0AC0C89B08C0D1
:10111800C99B06C0CB9B04C0F20131962F01E8CFD2
:10112800CA9B01C0C0CFCA994BC00E94711C0E94C3
:10113800E31D31960E94E9230E94E31D369730F0A3
:10114800ABE5B0E0E1E0F0E00E94E9230E94E31D96
:10115800ADE5B0E00E94DB22EA0FFB1FFF93EF939F
:101168000E94D41C0E94E81D0E945423AF91BF9195
:101178000E94E1230E94E31DA1E5B0E0EE0FFF1FEE
:10118800AE0FBF1FE091E002F0E00E94E9230E9449
:10119800E31DA7E4B0E0EE0FFF1FAE0FBF1FE09105
:1011A800E102F0E00E94E923ACE2B1E040DB0E94FA
:1011B800D21D0E94D41DA0E2B3E039DB219664C0A1
:1011C8002196CB9960C00E94ED1D0E94F11DCB991C
:1011D8000DC00E94F11DC89909C00E94F11DC8994F
:1011E80005C0E091E402E65FE093E402A091E40226
:1011F800AA3120F0EFE0E093E4024BDDE091E40255
:10120800AEE00E94EA22E931F0F5E0E0E093E40282
:10121800E3E6E093E3020E9442160E94ED1D0E945D
:10122800D21D0E94111C0E94FE1D74F47DDAE3E5B4
:10123800EA93E4E7EA93EFE6EA93A0E5BFD8CB9B0D
:1012480003C00E94511CEFCFCB9906C00E94C11C5D
:10125800A8E2BAE0ECDA17C00E94111C0E94FE1D39
:101268004CF462DA0E94DD1DA9D8CB9B03C00E9412
:10127800511CF4CFCB9906C00E94C11CA8E2BAE069
:10128800D6DA01C0C5CF27CE0E94EC1C0E94EC1C08
:101298000E94EC1CC5980E94D41D0E94071E0E9443
:1012A8000E1E08951A930A930E94131E0E941D1E73
:1012B800E0E00E94371E0E94411E0E944B1E0E94C1
:1012C800551E0E945F1E0E94681E0E94721E0E9488
:1012D8007C1E0E94861E0E94901E0E949A1E0E94DA
:1012E800A41E0E94AE1EE0E00E94B71E0E94C11E0E
:1012F8000E94CB1E0E94D51E0E94DF1E0E94E91E7E
:101308000E94F31E0E94FD1E0E94071FE0E00E943B
:10131800101FE0E00E94191FAA24BB24CC24DD245E
:10132800E0E0E093DC02E093DD02E093DE02E0938C
:10133800DF020E949B1C0E94C11C689424F825F8B7
:1013480026F827F8E3E6E093E3020E944D160E9490
:1013580042160E94C51C0E94BB1C0E94B71CE09349
:10136800CC02E093CD02E093CE02E093CF02E0E01E
:101378000E941D1EC598A6E40E94221FA2E3B0E0A9
:101388000E9436210E94711C0E94F91C19F4E0E0A9
:10139800E0933803013019F40E949D1A08F002C046
:1013A8000E94271F023019F40E94A91908F002C0F0
:1013B8000E94451F033019F40E94F11908F002C079
:1013C8000E94631F043019F40E94471A08F002C0F3
:1013D8000E94811F0E94711C0E94021D09F4B9C25B
:1013E800E8D80E942717AE1720F0A091E002A83194
:1013F80058F0A091E002A03030F00E941717A09199
:10140800E002EA1708F429C00E942717AE1720F057
:10141800A091E002A83108F009C00E942E1720F020
:10142800A091E102AC3308F001C04CD8A091E002D1
:10143800A03030F00E941717A091E002EA1708F4D4
:101448000CC0A091E102A03030F00E941217A091C8
:10145800E102EA1708F401C035D80E949D1A49F440
:101468000E94A91931F40E94F11919F40E94471A2F
:1014780009F008C0E0E2EA930E946C1CA0E20E9416
:10148800CA01B0D80E949D1A48F40E94A91931F4E3
:101498000E94F11919F40E94471A09F001C001E0ED
:1014A8000E94A91948F40E949D1A31F40E94F1196A
:1014B80019F40E94471A09F001C002E00E94F119CC
:1014C80048F40E94471A31F40E949D1A19F40E94A8
:1014D800A91909F001C003E00E94471A48F40E94C4
:1014E8009D1A31F40E94F11919F40E94A91909F002
:1014F80001C004E0013019F40E949D1A09F001C0EE
:1015080002E0023019F40E94A91909F001C003E0B1
:10151800033019F40E94F11909F001C004E0043005
:1015280019F40E94471A09F001C001E00E949F1FA8
:1015380008F068DA0E94AF1F08F4F5DAE091E602D5
:10154800E03009F424DA013019F40E949D1A08F0F9
:1015580002C00E94271F023019F40E94A91908F03E
:1015680002C00E94451F033019F40E94F11908F0C7
:1015780002C00E94631F043019F40E94471A08F041
:1015880002C00E94811F24FE07C0E0913A03D501E2
:10159800F0E0AE17BF0708F410C0A0913A03BB27CC
:1015A800AA1ABB0AE0913A03F0E00E94BA1F0E940F
:1015B800C31F0E94C81FE89424F825FE07C0E091C5
:1015C8003A03D601F0E0AE17BF0708F410C0A091A7
:1015D8003A03BB27CA1ADB0AE0913A03F0E00E94FB
:1015E800D11F0E94C31F0E94DA1FE89425F826FE27
:1015F80008C0E0913A030E94E31FF0E0AE17BF076E
:1016080008F416C0E0913A03F0E00E94E31FAE1B15
:10161800BF0BA093DC02B093DD02E0913A03F0E047
:101628000E94E81F0E94C31F0E94F11FE89426F839
:1016380027FE08C0E0913A030E94FA1FF0E0AE17B7
:10164800BF0708F416C0E0913A03F0E00E94FA1FC1
:10165800AE1BBF0BA093DE02B093DF02E0913A030A
:10166800F0E00E94FF1F0E94C31F0E940820E89418
:1016780027F8E2E3F0E0AE16BF0678F0F501F2973E
:101688005F01E091CC02F091CD026091CE027091A1
:10169800CF020E9411200E94C81FE2E3F0E0CE169C
:1016A800DF0678F0F601F2976F01E091D002F09131
:1016B800D1026091D2027091D3020E9411200E943F
:1016C800DA1F0E94E31FD297A8F0E091DC02F091A4
:1016D800DD02F297E093DC02F093DD02E091D402A0
:1016E800F091D5026091D6027091D7020E94112024
:1016F8000E94F11F0E94FA1FD297A8F0E091DE0223
:10170800F091DF02F297E093DE02F093DF02E091BE
:10171800D802F091D9026091DA027091DB020E943E
:1017280011200E940820B19903C00E949D1A09F057
:1017380009C001E00E9416200E94C81F0E94BA1F1B
:101748000E941F20C89903C00E94A91909F009C066
:1017580002E00E9416200E94DA1F0E94D11F0E94F8
:101768001F20C99903C00E94F11909F009C003E0BC
:101778000E9416200E94F11F0E94E81F0E941F204D
:10178800CA9903C00E94471A09F009C004E00E94E0
:1017980016200E9408200E94FF1F0E941F20B19956
:1017A80002C0013009F01CC0E0E00E94861E0E94C1
:1017B800AE1E0E94131E0E94371E0E94D51E0E9454
:1017C800FD1E0E945F1EAA24BB24689424F80E9470
:1017D80031200E9435200E94471A08F404E005C011
:1017E800B19903C001E00E943120C89902C00230BB
:1017F80009F023C0E0E00E94901E0E94B71EE0930B
:10180800D002E093D102E093D202E093D302E0E069
:101818000E94411E0E94DF1E0E94071F0E94681E30
:10182800CC24DD24689425F80E9431200E943520BC
:101838000E949D1A08F401E005C0C89903C002E09F
:101848000E943120C99902C0033009F025C0E0E0A8
:101858000E949A1E0E94C11EE093D402E093D50212
:10186800E093D602E093D702E0E00E944B1E0E946C
:10187800E91E0E94101F0E94721EE093DC02E09392
:10188800DD02689426F80E9431200E9435200E94CB
:10189800A91908F402E005C0C99903C003E00E9431
:1018A8003120CA9902C0043009F026C0E0E00E9445
:1018B800A41E0E94CB1EE093D802E093D902E093C5
:1018C800DA02E093DB02E0E00E94551E0E94F31E5C
:1018D8000E94191FE0E00E947C1EE093DE02E09364
:1018E800DF02689427F80E9431200E9435200E9468
:1018F800F11908F403E005C0CA9903C004E00E9486
:101908003120013019F40E949D1A08F002C00E948B
:10191800271F023019F40E94A91908F002C00E947A
:10192800451F033019F40E94F11908F002C00E9403
:10193800631F043019F40E94471A08F002C00E947D
:10194800811F0E94711C0E94021D19F0CB9B01C0CF
:1019580041CDCB9905C0A8ECB0E00E941B0497C10B
:10196800013019F40E949D1A08F002C00E94271F36
:10197800023019F40E94A91908F002C00E94451FFC
:10198800033019F40E94F11908F002C00E94631F85
:10199800043019F40E94471A08F002C00E94811FFF
:1019A8000E94A31DA0E0B0E080E690E40E942922F6
:1019B8000E94C71D22FC5CC00E949D1AA0F40E94D0
:1019C8003820A0918C02B0918D0280918E02909166
:1019D8008F020E94CD1DE0938C02F0938D026093DC
:1019E8008E0270938F020E94A919A0F40E943820D9
:1019F800A0919002B09191028091920290919302ED
:101A08000E94CD1DE0939002F093910260939202A0
:101A1800709393020E94F119A0F40E943820A091BB
:101A28009402B091950280919602909197020E943B
:101A3800CD1DE0939402F093950260939602709303
:101A480097020E94471AA0F40E943820A091980299
:101A5800B091990280919A0290919B020E94CD1DAB
:101A6800E0939802F093990260939A0270939B0214
:101A780022FE5CC00E949D1AA0F40E943820A0910A
:101A88009C02B0919D0280919E0290919F020E94BB
:101A9800CD1DE0939C02F0939D0260939E0270938B
:101AA8009F020E94A919A0F40E943820A091A002C8
:101AB800B091A1028091A2029091A3020E94CD1D33
:101AC800E093A002F093A1026093A2027093A30294
:101AD8000E94F119A0F40E943820A091A402B091AC
:101AE800A5028091A6029091A7020E94CD1DE093C5
:101AF800A402F093A5026093A6027093A7020E9425
:101B0800471AA0F40E943820A091A802B091A90217
:101B18008091AA029091AB020E94CD1DE093A80289
:101B2800F093A9026093AA027093AB020E949D1AD7
:101B3800A0F40E943820A091AC02B091AD0280912F
:101B4800AE029091AF020E94CD1DE093AC02F093DB
:101B5800AD026093AE027093AF020E94A919A0F47F
:101B68000E943820A091B002B091B1028091B202D7
:101B78009091B3020E94CD1DE093B002F093B102A0
:101B88006093B2027093B3020E94F119A0F40E940C
:101B98003820A091B402B091B5028091B60290911C
:101BA800B7020E94CD1DE093B402F093B502609392
:101BB800B6027093B7020E94471AA0F40E94382018
:101BC800A091B802B091B9028091BA029091BB027B
:101BD8000E94CD1DE093B802F093B9026093BA0257
:101BE8007093BB020E94C51C0E94BB1C013019F4F3
:101BF8000E949D1A08F002C00E94271F023019F4A3
:101C08000E94A91908F002C00E94451F033019F468
:101C18000E94F11908F002C00E94631F043019F4F1
:101C28000E94471A08F002C00E94811F0E949F1F4D
:101C380010F00E9406050E94AF1F10F40E9497053D
:101C4800E091E602E03011F40E94CB04013019F46F
:101C58000E949D1A08F002C00E94271F023019F442
:101C68000E94A91908F002C00E94451F033019F408
:101C78000E94F11908F002C00E94631F043019F491
:101C88000E94471A08F002C00E94811F7BCBC598AA
:101C9800A2E30E94221F0E943120C598A2E30E945D
:101CA800221F27C21A93ADE20E946E00AC9810E082
:101CB8001A31B0F4ECE6F0E0FA93EA93E12FADE4E0
:101CC800B3E0F0E0EE0FFF1FEA0FFB1F6627772750
:101CD8000E94B62384E00E94121526961F5FE8CF63
:101CE800E0914D03F0914E03A9E3B0E00E94E9238F
:101CF800E0914F03F0915003ABE3B0E00E94E92379
:101D0800E0915103F0915203A5E4B0E00E94E92369
:101D1800E0915303F09154033497A6E2B0E00E9497
:101D2800E923E0915503F0915603A0E0B0E00E944A
:101D38003D20E0915703F0915803A8E0B0E00E94DD
:101D48003D20E0915903F0915A03A4E0B0E00E94CD
:101D58003D20E0915B03F0915C03AFE2B0E00E94AC
:101D6800E923E0915D03F0915E03A1E3B0E00E94F6
:101D7800E923E0915F03F0916003A3E3B0E00E94E0
:101D8800E923E0916103F0916203A5E3B0E00E94CA
:101D9800E923E0916303F0916403A7E3B0E00E94B4
:101DA800E923E0916503AEE2B0E00E94F123E091FF
:101DB8006703F0916803ACE0B0E00E943D20E09139
:101DC8006903F0916A03A0E1B0E00E943D20E09130
:101DD8006B03F0916C03A4E1B0E00E943D20E09118
:101DE8006D03F0916E03A0E2B0E00E943D20E09107
:101DF8006F03F0917003A8E1B0E00E943D20E091EC
:101E08007103F0917203ACE1B0E00E943D20E091D3
:101E18007303AAE2B0E00E94F123E0917503ABE2FC
:101E2800B0E00E94F123E0917703ACE2B0E00E94B9
:101E3800F123E0917903ADE2B0E00E94F123E09153
:101E48007B03E093E002E0917D03E093E102E091FF
:101E58007F03E093E2020E945C1C0E94111C0E9416
:101E6800F01CA43FE1E0BE07E0E08E07E0E09E073B
:101E780094F4EDE2EA93E9E7EA93E5E4EA93E3E52B
:101E8800EA93ADE20E94CA01A2E0B0E00E943621C6
:101E98000E94511CE4CF0E944220A091E2020E94BD
:101EA80071150E944816DF01EAE0F0E00E9417234E
:101EB800A1E4B0E0662777270E94A6210E94E123CB
:101EC8000E941B1C0E94201C0F010E941B1C0E94C8
:101ED800271C1EC30E94AD1C0E9442160E94B71CFC
:101EE800E0934703E09348030E94C11C0E94911CA1
:101EF8000E94871C0E94711C0E94F91C19F4E0E0E2
:101F0800E09338030E94711C0E94021D19F10E947F
:101F1800171D28F40E944920A5E70E94E2010E94AB
:101F2800171D20F0A091E602A13008F405C00E9418
:101F38004920A4E60E94E201E091E602E03029F49B
:101F48000E944920A3E50E94E2010E949803CB9BCE
:101F580001C0D8CF0E94A31D0E94C01DE093920328
:101F6800F093930360939403709395030E94502019
:101F7800E0E0F0E060E271E40E9477220E945020E5
:101F88000E94D9210E94C71DA091E602AF3580F0BA
:101F9800E0919203F09193036091940370919503FB
:101FA800A0E0B0E080EA90E40E94D9210E94C71D19
:101FB800E091E602FF27662777270E945920CB99F0
:101FC80003C00E94312003C00E94BB1C93CF089518
:101FD8001A930A93AAEFB0E00E941B040E94711C96
:101FE8000E94711CB19918C0E091E002E150E093A1
:101FF800E002A091E002A83118F0E7E1E093E002E6
:102008000E94111C0E9462203CF40E94D81D0E946C
:102018006B200E94511CF6CFC89918C0E091E002CD
:10202800EF5FE093E002A091E002A83118F0E0E051
:10203800E093E0020E94111C0E9462203CF40E947E
:10204800D81D0E946B200E94511CF6CFC99918C058
:10205800E091E102E150E093E102A091E102AC33AA
:1020680018F0EBE3E093E1020E94111C0E94742037
:102078003CF40E94D81D0E946B200E94511CF6CF90
:10208800CA9918C0E091E102EF5FE093E102A091E4
:10209800E102AC3318F0E0E0E093E1020E94111C89
:1020A8000E9474203CF40E94D81D0E946B200E945C
:1020B800511CF6CF0E94F6020E944220A0E00E9426
:1020C8007115E0E2EA930E946B20CB990AC00E9446
:1020D8004220A0E00E947115A8EEB3E00E941B0404
:1020E80001C07ECFC5980E94D41D0E94071E0E9481
:1020F8000E1E0991199108950E9442160E94911C82
:102108000E94C51C0E94871C0E947D202297E09196
:102118004903F0914A03662777270E9459200E94B5
:102128004816E883F9830E949803E0E2EA93A981BC
:10213800BA81E4E6F0E00E941723EA93AA81BB8102
:102148000E9483200E941723EA93AB81BC810E94DE
:1021580083200E945923AE2F0E94E201CB9904C02C
:102168000E943120229602C02296D0CF0895ABE378
:10217800B0E00E9403170E9459200E949803E4E6E9
:10218800EA93E1E4EA93E4E7EA93A5E40E94E20132
:10219800A2E0B0E00E943621CB9905C0ACE2B1E0E4
:1021A8000E94362101C0E3CF0895A9E3B0E00E9460
:1021B80003170E945920E3E5EA93E2E7EA93ECE487
:1021C800EA93A0E20E94E2010E949803CB9903C01F
:1021D8000E94312001C0E9CF0895AA93A881A130B7
:1021E80019F4AE980E94AA17A881A23019F4AE98E3
:1021F8000E94BA17A881A33019F4AE980E94C51797
:10220800A881A43019F4AE980E94D017A881A530EF
:1022180019F4AE980E94D417A881A63029F4AE9874
:10222800DF98AB980E94D417A881A73031F4AE98F4
:10223800DF98AB9892980E94D417A881A83039F4F7
:10224800AE98DF98AB98929896980E94D417A88178
:10225800A93021F4AE9896980E94D017A881AA3088
:1022680021F4AE9896980E94C517A881AB3021F446
:10227800AE9896980E94BA17A881AC3021F4AE980F
:1022880096980E94AA17A881AD3029F4AE9895981F
:1022980096980E94AA17A881AE3031F4AE98959806
:1022A800AF9896980E94AA17A881AF3029F49598FC
:1022B800AF9896980E94AA17A881A03119F4969809
:1022C8000E94BA17A881A13119F496980E94C517DF
:1022D800A881A23119F496980E94D017A881A33139
:1022E80031F49698AB98DF9892980E94D417A881F9
:1022F800A43121F4969892980E94D417A881A53108
:1023080019F496980E94D417A881A63119F4969AC0
:102318000E94D417A881A73121F4969A0E944217E7
:10232800A99AA881A83119F4969A0E94C517A8817C
:10233800A93119F4969A0E94BA17A881AA3129F4EA
:10234800AF989598969A0E94AA17A881AB3119F46C
:10235800AF980E94AA17A881AC3119F4AF9A0E94CD
:10236800AA17AE9AAB9ADF9A929A0E940C160C940E
:1023780092130E9442160E94911C0E94C51C0E9442
:10238800871C0E947D200E948B200E948E200E9424
:102398008B20A2E3B0E00E9436210E948B20A9E1A5
:1023A800B0E00E9436212497E0E0E883E983EA83DD
:1023B800EB83E4E7EA93E5E4EA93E3E5EA93A4E749
:1023C8000E94E201A0914903B0914A031F9710F0BF
:1023D8000E944216E0914903F0914A03E883F98389
:1023E800A881B9811F9798F4E0E0EA83EB83E8813C
:1023F800F9813196AA81BB81AE17BF0740F4AA8143
:10240800ECDEEA81FB813196EA83FB83F0CFCB993E
:1024180004C00E943120249616C0B19903C00E94BE
:1024280031206ADEC89903C00E94312053DDC99962
:1024380003C00E9431209BDECA9903C00E9431204C
:10244800B4DE2496B0CF0E94ED1DC5980E94D41D1D
:102458000E94071E0E940E1E08951A93ABE5B0E075
:102468000E94D5231E2FCA9903C011500E94312003
:10247800113008F415E0C99903C01F5F0E9431208C
:10248800163008F011E0E12FADE5B0E0F0E00E9471
:10249800DB22AE0FBF1F0E94CD230E9459200E944D
:1024A80098030E9492200E94B517C7980E9442176D
:1024B800C79A0E9492200E945923AE2F0E946E0054
:1024C8009398C6980E944217C69A939A0E94A02091
:1024D8000E94B517C3980E944217C39A0E94A02071
:1024E8000E945923AE2F0E946E00C4980E94421782
:1024F800C49ACB9905C0A8EEB3E00E941B0401C0A2
:10250800B2CFC5980E94D41D0E94071E0E940E1EBD
:1025180019910895BA988898899AB998D098D198B5
:10252800D298D398D79ABB9ABC9ABE9ABD9ABF9AAA
:102538008A9A8B9A8C9A8D9A8E9A8F9AEFEFE4BB2F
:10254800939AE3E3EFBDE2E0EEBDE0E0EDBDECBD64
:10255800E7BDE6BDEBBDEABDE9BDE8BDEBB7E062AE
:10256800EBBFE0E0E5BFE4BFE0E2EABFE0E0EBB9E3
:10257800E8E1EAB9E6E8E0BDE0E0E0BDE7E4E9B9B2
:102588000E94E520E0E0EA93EA93A0E00E94351576
:10259800E3E6E093E3020E94111CC59A0E945C1CCA
:1025A800C79AC69AC39AC49A0E94FF057894809BDA
:1025B80012C0A9E7AED0A0EDB7E00E943621AFE681
:1025C8000E946E00AC98A1D0E0938903A091890382
:1025D800A83709F467DBA9E69CD00E94ED1DE4E664
:1025E800F0E0F9BDE8BDEFE5EA93EA93EA93EA93F0
:1025F800AFE50E94CA010E94711C0E94F602CA99A6
:1026080014C0C5980E94EC1CC59A0E94EC1CC59881
:102618000E94EC1C0E94AE200E94EC1CC59AA9E105
:10262800B0E00E941B040E947106C8990EC00E9467
:10263800B5200E94BB200E94AE200E94EC1C0E9484
:10264800AE200E94BB20C59AC3DCC9990EC00E9467
:10265800B5200E94BB200E94AE200E94EC1C0E9464
:10266800AE200E94BB20C59AF8DECB9907C0E09146
:102678003B03EF5FE0933B030E948E20CB9904C09D
:10268800A0913B03AB3088F3A0913B03AB3028F01B
:10269800E0E0E0933B030E944D06A0913B03A1308C
:1026A80018F0E0E0E0933B03B19907C0E0913C03E8
:1026B800EF5FE0933C030E948E20B19904C0A09183
:1026C8003C03AB3088F3A0913C03A63020F0E0E057
:1026D800E0933C034EDEA0913C03A13030F0AEE223
:1026E800B0E00E94D523ED3009F006C0E0E0E093A9
:1026F8003C030E94560907C0A0913C03A13018F082
:10270800E0E0E0933C0353CFFFCF5F9BFECFECB1FB
:102718000895AA935D9BFECFE881ECB921960895B0
:10272800BA93AA931A93A981BA81E0E0EC93AB819A
:10273800BC81EC911E2FE03019F0E0E0EC9302C070
:10274800E4DF1E2FE12F188125960895FF92BA9392
:10275800AA9326970E941624E0E0F0E0EA87FB8718
:102768004E2FEA89FB893196EA8BFB8B3197E491EE
:102778003E2FE03009F44BC10E94BF20C1F0EDB7F5
:10278800FEB7FA93EA934F930E94C4204F913E2FCD
:10279800E03019F00E94BF2009F407C00E94CA2047
:1027A8001CF4EFEFFFEF35C1EACF432F2FC13532CD
:1027B80009F014C150E0EA89FB893591EA8BFB8B5B
:1027C800303310F03A3308F007C0AAE05A9F502D72
:1027D800E32FE0535E0FEFCF303009F418C1EDB7A7
:1027E800FEB7FA93EA934F930E94C4204F912E2F7D
:1027F800AE2F0E949615E03039F00E94CA201CF4D2
:10280800EFEFFFEF06C1EBCF203009F4F7C0422FFE
:10281800503009F45FEFE894F3F8E32FE33699F4C6
:102828000E94CF20EDB7FEB7FA93EA934F930E9428
:10283800C4204F91D801EC930E94CA201CF4EFEFFA
:10284800FFEFE7C0C5C0E33741F50E94CF20E52F71
:102858005150E030F1F0EDB7FEB7FA93EA934F9399
:102868000E94C4204F913E2FE03019F00E94BF20F3
:1028780039F00E94CA201CF4EFEFFFEFCAC009C06C
:102888001F930F930F5F1F4FE32FAF91BF91EC93EF
:10289800DECFD801E0E0EC939BC0EC3639F46894C5
:1028A800F3F8EA89FB893591EA8BFB8B6894F1F898
:1028B800E894F2F8E32FE43611F0E93619F4E894D5
:1028C800F1F802C0E53711F42AE008C0E83711F43E
:1028D80020E104C0E53209F481C099C0E0E0EE834C
:1028E800EF83E887E9876894F0F8E52F5150E030E6
:1028F80009F44FC0EDB7FEB7FA93EA934F930E94DD
:10290800C4204F913E2FE13238F40E94CA201CF4B3
:10291800EFEFFFEF7EC017C0F1FC08C06894F1F834
:102928003D3211F4F2F8E1CF3B32F9F2203131F4C3
:10293800A32F0E94A115E03031F009C0A32F0E94F7
:102948008D15E03021F4F0FC62C0432F22C03136EF
:1029580010F0375505C0313410F0375301C03053EB
:10296800E22FAE81BF8188859985FF276627772763
:102978000E94F722DF01CB01E32FFF276627772785
:102988000E94C022EE83FF8368877987E894F0F875
:10299800ACCFF2FE0AC0EE81FF81688579850E947E
:1029A800D322EE83FF8368877987F3FE0AC00E94EB
:1029B800CF20EE81FF8168857985D8010E94AC23FC
:1029C80007C00E94CF20EE81FF81D801ED93FC93D0
:1029D800EA85FB853196EA87FB8718C0EDB7FEB715
:1029E800FA93EA934F930E94C4204F91E31771F032
:1029F8000E94CA201CF4EFEFFFEF0BC0EA85FB85AD
:102A0800309719F4EFEFFFEF04C001C0AACEEA85B2
:102A1800FB850E941D246496FF900895FF92F82E6E
:102A280023971A930A93DE0111960E94BC228D0106
:102A3800E0E0EB83EC83DE0115960E94BC220E9445
:102A4800A323FA93EA931A930A93E4E9F3E1FA9336
:102A5800EA93DE0118967ADE198108812596FF909F
:102A68000895AA93EA81E370EA83E981E03019F0D6
:102A7800EA81E061EA83E881E03019F0EA81E06800
:102A8800EA830E94DA20A7E00E941E21AA813BC0A7
:102A9800BA93AA930E94DA20A0E00E941E210E9405
:102AA800F9200E94EA20A1ED0E941E210E94DF2049
:102AB800A881B981EC930E94DF20AA81BB81EC93A5
:102AC800A0E00E940321AE2F0E94B015AC81BD8109
:102AD800EC930E94F92026960895AA930E94DA2082
:102AE800A0E00E941E21A8810E94BD15AE2F0E9461
:102AF8001E21A9810E94BD15AE2F0E941E21AA8108
:102B08000E94BD15AE2F0E941E210E94F920239617
:102B18000895AA93E1E0F991F03310F0FA3308F040
:102B2800EE270895AA93E1E0F991F03229F0F930FF
:102B380010F0FE3008F0EE270895AA93E1E0F9912D
:102B4800F05340F0FA3038F0FF75F750FA3010F0D3
:102B5800F03108F0EE270895AA93E881E295EF7026
:102B6800AE2FAA0FAA0FEA0FEE0FA991AF70EA0FC6
:102B78000895AA93A991EE27AA5012F0E05FFCCF1E
:102B8800A65FEA0F0895DF98AE98AB98929896984A
:102B98000895DF98AE9AAB989298969A959A089568
:102BA800DF98AE98AB98929A969895980895DF9A80
:102BB800AE98AB9A929896980895DF98AE98AB988D
:102BC8009298969A0895DF9AAE9AAB9A9298089539
:102BD80096989598AF98A8980895DF9AAE9AAB9A68
:102BE800929A969895980895DF9AAE98AB9A929A89
:102BF8000895DF98AE9AAB9892980895969A95980A
:102C0800AF98A8980895DF9AAE9AAB9A929A0895C9
:102C1800969A959AAF9AA89A0895AC810E946E00E8
:102C28009798089582E594E00197F1F70895979AA7
:102C3800AB810E946E00AD980895AD9AAA810E945A
:102C48006E00AC980895AC9AA9810E946E00A9986C
:102C58000895A99AA8810E946E00AA980895A98546
:102C6800BA850C943621ED91FD913196FE93EE9341
:102C78000895A4E2B0E00E94D1230895E0E0E09333
:102C88004903E0934A030895A5E4B0E00E94D123E4
:102C98000895E0E0E0933F03E09340030895E09156
:102CA8003D03F0913E030895A4E0B0E00E94CD23D7
:102CB8000895DF01CB01EAE0F0E060E070E00E94F7
:102CC8002F230895E0932003F093210360932203B8
:102CD8007093230308950E94D123DF01E09120031C
:102CE800F09121036091220370912303882799278B
:102CF8000895E0931C03F0931D0360931E037093E3
:102D08001F0308950E94D123D0010E94EF22662755
:102D18007727E0931803F093190360931A037093CD
:102D28001B03A0911803B091190380911A03909185
:102D38001B03E4E6F0E060E070E00E942F23C2CFBE
:102D4800E0932403F09325036093260370932703ED
:102D58000895E0932803F093290360932A0370935E
:102D68002B03ACE0B0E00E94CD230895E093180354
:102D7800F093190360931A0370931B0308950E943C
:102D8800CD23A0911803B091190380911A03909153
:102D98001B0308950E94F722E9DFA0911803B09160
:102DA800190380911A0390911B03EAE0F0E060E0B8
:102DB80070E00E942F23DACFE0936402F09365025B
:102DC8006093660270936702A0E1B0E00E94CD2391
:102DD8000895E0936002F093610260936202709339
:102DE8006302A4E1B0E00E94CD230895E093680255
:102DF800F093690260936A0270936B0208950E94CF
:102E0800D1236627772708950E94DD02ABE2B0E060
:102E18000E94D523A091E002EA170895ADE2B0E040
:102E28000E94D5230895ABE2B0E00E94D52308950F
:102E3800E150ABE2B0E00E94F123ADE2B0E0EBE399
:102E48000E94F1230895AAE2B0E00E94D523A09140
:102E5800E0020895ACE2B0E00E94D523A091E1021F
:102E6800AE170895A091E002B0E0EAE0F0E00E9419
:102E78002A23AE2F0E946E00C798089584EA98E02E
:102E88000197F1F70895C79AA091E002BB27EAE0FD
:102E9800F0E00E945C23AE2F0E946E00A091E20237
:102EA800BB27E2E0F0E00E945C2330970895A091F0
:102EB800E202BB27E2E0F0E00E945C23E130A0E000
:102EC800FA070895C69A939AA091E102B0E0EAE061
:102ED800F0E00E942A23AE2F0E946E00C398089546
:102EE800C39AA091E102BB27EAE0F0E00E945C23CC
:102EF800AE2F0E946E00C4980895E0E1F7E260E00A
:102F080070E00E946A23DF01CB01E8EEF3E060E0A5
:102F180070E00E946A23DF01CB01E4E6F0E060E0A4
:102F280070E00E946A230895A091FC02B091FD020E
:102F38008091FE029091FF02E0E1F7E260E070E02C
:102F480008950E9454230E9402240895979896DFBA
:102F5800979A0895A0914103B0914203E8EEF3E0F7
:102F680008950E941723AE2F0C946E00AD9886DF4B
:102F7800AD9A0895A0914303B0914403E4E6F0E0CC
:102F88000895AC987BDFAC9A0895A0914B03B0915B
:102F98004C03EAE0F0E00895A99870DFA99A089533
:102FA800AA986CDFAA9A0895AD81BE810C941B047F
:102FB800E0EEF2E0FA93EA93E1EEF2E0FA93EA93B4
:102FC800A2EEB2E00E944C15A091E302A336089548
:102FD800E091E202EF5FE093E3020895E091E302FB
:102FE800EC53E093E3020895E091E302A091E2023A
:102FF800EA170895A4EFB2E00E94A723EF5FFF4FFE
:103008006F4F7F4F0E94B123E3E6E093E302A09164
:10301800F402B091F5028091F6029091F702AC3378
:10302800E0E0BE07E0E08E07E0E09E070895A4E038
:10303800B3E00E94A723EF5FFF4F6F4F7F4F0E94BF
:10304800B123E0E0E093F402E093F502E093F602A6
:10305800E093F702A0912803B091290380912A03F5
:1030680090912B03ECE3F0E060E070E00E946A23AB
:10307800A8E2B0E00E94E923A0E0B0E00E94CD23DE
:10308800A0910403B0910503809106039091070372
:103098000E9411240895A8E2B0E00E94D123A091D3
:1030A8003403B09135038091360390913703662736
:1030B80077270E94C022E0933403F093350360938E
:1030C8003603709337030895A0E0B0E00E94CD2343
:1030D800A0910403B0910503809106039091070322
:1030E8000E9411240895A0912803B091290380918A
:1030F8002A0390912B03ECE3F0E060E070E00E947B
:103108002F23AEE8B3E00E94A4210E94AC23E091F3
:103118008E03F0918F036091900370919103A091B9
:103128003403B091350380913603909137030E94A0
:10313800BB230E94D921A4E3B3E00E946D210E9421
:10314800AC230895A8E0B0E00E94CD23A091F0023E
:10315800B091F1028091F2029091F3020E940C2446
:103168000895E0910803F091090360910A037091B2
:103178000B03A0910C03B0910D0380910E03909165
:103188000F030E94C0220895E0933003F0933103A7
:1031980060933203709333030895E0912403F09110
:1031A800250360912603709127030895A091EC02EE
:1031B800B091ED028091EE029091EF020E94F72209
:1031C800DF01CB01E8ECF0E060E070E00E942F2323
:1031D800E0930C03F0930D0360930E0370930F03B9
:1031E8000895DBDFA091E802B091E9028091EA023C
:1031F8009091EB020E94F722DF01CB01E8ECF0E0AE
:1032080060E070E00E942F23E0930803F093090325
:1032180060930A0370930B030895E0931003F093EF
:1032280011036093120370931303A0913003B091BC
:10323800310380913203909133030E94C522E093B9
:103248001403F09315036093160370931703A0916A
:103258003403B091350380913603909137030E946F
:10326800C022E0933403F0933503609336037093E0
:1032780037030895A0916802B091690280916A02AB
:1032880090916B02ECE3F0E060E070E008950E943A
:103298002F23E0932803F093290360932A03709364
:1032A8002B03E8CF0E946A23AEE8B3E00E94A42172
:1032B8000E94AC23E3E6E093E302A091CC02B09134
:1032C800CD028091CE029091CF020E9406240895EB
:1032D800ACEBB2E00E94A723EF5FFF4F6F4F7F4F29
:1032E8000E94B123E0912803F0912903AE0EBF1E7E
:1032F8000895A091BC02B091BD028091BE02909148
:10330800BF02AC33E0E0BE07E0E08E07E0E09E07D6
:103318000895E0E0E093BC02E093BD02E093BE02B2
:10332800E093BF02E0918E03F0918F0360919003C8
:1033380070919103D501882799270E94BD230E9487
:10334800D9210E946D215F010895A091D002B0910A
:10335800D1028091D2029091D3020E94062408954E
:10336800A0ECB2E00E94A723EF5FFF4F6F4F7F4FA3
:103378000E94B123E0912803F0912903CE0EDF1EAD
:103388000895A091C002B091C1028091C2029091AB
:10339800C302AC33E0E0BE07E0E08E07E0E09E0742
:1033A8000895E0E0E093C002E093C102E093C20216
:1033B800E093C302E0918E03F0918F036091900334
:1033C80070919103D601882799270E94BD230E94F6
:1033D800D9210E946D216F010895A091D402B09166
:1033E800D5028091D6029091D7020E9406240895B2
:1033F800A4ECB2E00E94A723EF5FFF4F6F4F7F4F0F
:103408000E94B123E0912803F0912903A091DC02E6
:10341800B091DD02EA0FFB1FE093DC02F093DD02BE
:103428000895A091C402B091C5028091C6029091FE
:10343800C702AC33E0E0BE07E0E08E07E0E09E079D
:103448000895E0E0E093C402E093C502E093C60269
:10345800E093C702E0918E03F0918F03609190038F
:1034680070919103A091DC02B091DD028827992721
:103478000E94BD230E94D921ACEDB2E00E946D21CB
:10348800ED93FC930895A091D802B091D902809150
:10349800DA029091DB020E9406240895A8ECB2E0BB
:1034A8000E94A723EF5FFF4F6F4F7F4F0E94B1230A
:1034B800E0912803F0912903A091DE02B091DF0288
:1034C800EA0FFB1FE093DE02F093DF020895A0915C
:1034D800C802B091C9028091CA029091CB02AC3364
:1034E800E0E0BE07E0E08E07E0E09E070895E0E038
:1034F800E093C802E093C902E093CA02E093CB02CA
:10350800E0918E03F0918F03609190037091910385
:10351800A091DE02B091DF02882799270E94BD237F
:103528000E94D921AEEDB2E00E946D21ED93FC938B
:103538000895A091CC02B091CD028091CE029091D5
:10354800CF020E9406240895E0917C02F0917D024A
:1035580060917E0270917F02A0916C02B0916D0221
:1035680080916E0290916F020E94C0220895E091AE
:103578006002F091610260916202709163020895A5
:10358800A0918C02B0918D0280918E0290918F0251
:103598000E94F722DF01CB01E8ECF0E060E070E088
:1035A8000E942F23E0936C02F0936D0260936E02E9
:1035B80070936F020895DBDFA0919C02B0919D0289
:1035C80080919E0290919F020E94F722DF01CB0119
:1035D800E8ECF0E060E070E00E942F23E0937C02CA
:1035E800F0937D0260937E0270937F020895E093CA
:1035F8001003F09311036093120370931303A091C7
:103608003003B091310380913203909133030E94CB
:10361800C522E0931403F093150360931603709387
:103628001703E0911403F09115030895E0918002C7
:10363800F09181026091820270918302A0917002E0
:10364800B091710280917202909173020E94C0221F
:1036580008958DDFA0919002B0919102809192021D
:10366800909193020E94F722DF01CB01E8ECF0E091
:1036780060E070E00E942F23E0937002F0937102E3
:103688006093720270937302089571DFA091A00293
:10369800B091A1028091A2029091A3020E94F72208
:1036A800DF01CB01E8ECF0E060E070E00E942F233E
:1036B800E0938002F0938102609382027093830208
:1036C8000895E0918402F0918502609186027091DC
:1036D8008702A0917402B091750280917602909150
:1036E80077020E94C022089542DFA0919402B0910F
:1036F800950280919602909197020E94F722DF012D
:10370800CB01E8ECF0E060E070E00E942F23E0934A
:103718007402F093750260937602709377020895AD
:1037280026DFA091A402B091A5028091A6029091F3
:10373800A7020E94F722DF01CB01E8ECF0E060E08D
:1037480070E00E942F23E0938402F0938502609337
:103758008602709387020895A091DC02B091DD0281
:10376800EA0FFB1FE093DC02F093DD020895E0917D
:103778008802F091890260918A0270918B02A0916F
:103788007802B091790280917A0290917B020E942E
:10379800C0220895ECDEA0919802B0919902809120
:1037A8009A0290919B020E94F722DF01CB01E8EC7C
:1037B800F0E060E070E00E942F23E0937802F0933D
:1037C800790260937A0270937B020895D0DEA0910B
:1037D800A802B091A9028091AA029091AB020E941E
:1037E800F722DF01CB01E8ECF0E060E070E00E9436
:1037F8002F23E0938802F093890260938A027093E2
:103808008B020895A091DE02B091DF02EA0FFB1F40
:10381800E093DE02F093DF020895E0E0E093000316
:10382800E0930103E0930203E09303030895A1E406
:10383800B0E00E94CD230895A4E2B0E00E946D217B
:103848000E94E92316CAD001882799270E94BD2320
:103858000E947722ADE3B0E00E94E1230895E5E0FD
:10386800E19FF001F9BDE8BDA5E0B0E00C94362178
:10387800A0910003B091010380910203909103038A
:10388800A039E1E0BE07E0E08E07E0E09E0708957A
:10389800E8E0EA93EA93EA930895A0E0B3E00E948F
:1038A800A723EF5FFF4F6F4F7F4F0E94B12308950B
:1038B800979AAD9AAC9AA99AAA9A0895E5E5EA93D7
:1038C800E5E4EA93E2E7EA93E5E7EA93A6E00895F8
:1038D800EDE2EA93EA93EA930895E0EEF2E0FA93D0
:1038E800EA93E1EEF2E0FA93EA93A2EEB2E00C94E6
:1038F8004C15E0E0E0933403E0933503E09336039E
:10390800E09337030895E0E0E093FC02E093FD02C2
:10391800E093FE02E093FF020895E0E0E093F802EE
:10392800E093F902E093FA02E093FB020895E0E0E5
:10393800E0933003E0933103E0933203E0933303E1
:10394800E0931003E0931103E0931203E093130351
:103958000895E0E0E0939203E0939303E0939403E7
:10396800E09395030895E0E0E093E6020895E0E02F
:10397800E0934703E09348030895689420F821F8FA
:103988000895E0E0E0933D03E0933E030895E0935B
:10399800F802F093F9026093FA027093FB0208951B
:1039A800A091F802B091F9028091FA029091FB027D
:1039B8000895EAE0F0E060E070E00E945423E093AC
:1039C800FC02F093FD026093FE027093FF020895DB
:1039D800A4E6B0E00C941B04A0910003B09101038D
:1039E80080910203909103030895E091E202EF5F52
:1039F800E0933803A0913803AC330895E09138037D
:103A0800A091E202EA170895E091E602A0E00E9480
:103A1800EA220E2EA6E2B0E00E94D123A02DB0E04B
:103A2800EA17FB070895A6E2B0E00E94D123A0910F
:103A3800E602B0E0EA17FB070895E0913903A09188
:103A48003403B09135038091360390913703FF27F3
:103A5800662777270E9411240895E0913903F0E042
:103A68009FDF0E94E0220E94C02291DFE09139038B
:103A7800F0E0A0913403B091350380913603909122
:103A880037030E94E0220E94CA22A0933403B09315
:103A980035038093360390933703E89423F8089509
:103AA800A0913403B0913503809136039091370388
:103AB800A233E0E0BE07E0E08E07E0E09E0708954D
:103AC800E0913403F0913503609136037091370328
:103AD800E253F04060407040E0933403F0933503C4
:103AE8006093360370933703E091F802F091F9027E
:103AF8006091FA027091FB02EE5CFF4F6F4F7F4FAF
:103B080046DF4EDF56CF4CDFAF33E2E4BE07EFE0CF
:103B18008E07E0E09E070895E091F802F091F9021F
:103B28006091FA027091FB02EF53F2446F407040CB
:103B38002EDF36DF3ECF0E9498030C94F602ADE3E9
:103B4800B0E00E94CD23A0914703B0914803882795
:103B580099270E94BD230E942922A7E4B3E00E946E
:103B68006D21ED93FC93E0914703F091480366279C
:103B780077270E94A6210895A6E6B6E686E690E491
:103B88000E9429220895A6EEB2E00E946D21EC93CE
:103B98000895662777270E94C022089501DF09CF7C
:103BA800A4EFB1E00C941B040E94F602E0E2EA9351
:103BB8000895E0E2EA93EA93EA93A0E20895ABE578
:103BC800B0E00E94D1230895EAE0F0E060E070E000
:103BD8000895E89420F821F80895E091E402E65F5A
:103BE800E093E402E8ECF0E0FA93EA93A8ECB0E0A2
:103BF8000C94F105F1DEAC32E1E0BE07E0E08E079F
:103C0800E0E09E070895C59AA8E5B2E00E941B046B
:103C1800C598C6CFC59AAAEFB0E00C941B04E0E0A3
:103C2800E093CC02E093CD02E093CE02E093CF0282
:103C38000895E093D002E093D102E093D202E0939A
:103C4800D302E0E0E093D402E093D502E093D602F9
:103C5800E093D702E093D802E093D902E093DA0226
:103C6800E093DB020895E093AC02E093AD02E093A9
:103C7800AE02E093AF02E0E00895E093B002E09373
:103C8800B102E093B202E093B302E0E00895E0935A
:103C9800B402E093B502E093B602E093B702E0E025
:103CA8000895E093B802E093B902E093BA02E09372
:103CB800BB02E0E00895E093BC02E093BD02E0930C
:103CC800BE02E093BF020895E0E0E093C002E093F3
:103CD800C102E093C202E093C3020895E0E0E093DA
:103CE800C402E093C502E093C602E093C7020895B8
:103CF800E093C802E093C902E093CA02E093CB02C2
:103D0800E0E00895E0936C02E0936D02E0936E02A8
:103D1800E0936F02E0E00895E0937002E09371028F
:103D2800E0937202E0937302E0E00895E093740276
:103D3800E0937502E0937602E0937702E0E008955D
:103D4800E0937802E0937902E0937A02E0937B02B1
:103D5800E0E00895E0937C02E0937D02E0937E0228
:103D6800E0937F020895E0938002E0938102E0935C
:103D78008202E0938302E0E00895E0938402E093F6
:103D88008502E0938602E0938702E0E00895E093DD
:103D98008802E0938902E0938A02E0938B02E0E0D4
:103DA8000895E0938C02E0938D02E0938E02E093F5
:103DB8008F02E0E00895E0939002E0939102E0938F
:103DC8009202E0939302E0E00895E0939402E09376
:103DD8009502E0939602E0939702E0E00895E0935D
:103DE8009802E0939902E0939A02E0939B02E0E044
:103DF8000895E0939C02E0939D02E0939E02E09375
:103E08009F02E0E00895E093A002E093A102E0930E
:103E1800A202E093A3020895E093A402E093A5020E
:103E2800E093A602E093A7020895E093A802E09326
:103E3800A902E093AA02E093AB020895B0E00E94C1
:103E48003621C59A0895A091CC02B091CD028091F7
:103E5800CE029091CF02B8DE0E942F23E093FC029D
:103E6800F093FD026093FE027093FF020E94980394
:103E7800E3E4EA93E8E4EA93EDE2EA93A1E00C9440
:103E8800E201A091D002B091D1028091D20290912A
:103E9800D3029ADE0E942F23E093FC02F093FD02E6
:103EA8006093FE027093FF020E949803E3E4EA9392
:103EB800E8E4EA93EDE2EA93A2E00C94E201A0912F
:103EC800D402B091D5028091D6029091D7027CDEBF
:103ED8000E942F23E093FC02F093FD026093FE0200
:103EE8007093FF020E949803E3E4EA93E8E4EA93FC
:103EF800EDE2EA93A3E00C94E201A091D802B0911C
:103F0800D9028091DA029091DB025EDE0E942F23B3
:103F1800E093FC02F093FD026093FE027093FF02AF
:103F28000E949803E3E4EA93E8E4EA93EDE2EA9373
:103F3800A4E00C94E201E091E602A0E00E94EA22EB
:103F48000E2EA6E2B0E00E94D1233396A02DB0E059
:103F5800EA17FB070895A6E2B0E00E94D123339642
:103F6800A091E602B0E0EA17FB070895A091CC0201
:103F7800B091CD028091CE029091CF0208950E9417
:103F8800E0220E94C0220895E093CC02F093CD0273
:103F98006093CE027093CF020895A091D002B091A1
:103FA800D1028091D2029091D3020895E093D00279
:103FB800F093D1026093D2027093D3020895A09136
:103FC800DC02B091DD020895A091D402B091D5022F
:103FD8008091D6029091D7020895E093D402F0938D
:103FE800D5026093D6027093D7020895A091DE029D
:103FF800B091DF020895A091D802B091D9028091C2
:10400800DA029091DB020895E093D802F093D90286
:104018006093DA027093DB020895EE5CFF4F6F4FF6
:104028007F4F0895E0916402F09165026091660205
:10403800709167020895C8DD0E942F23E093FC0267
:10404800F093FD026093FE027093FF02A8ECB0E0CB
:104058000E943621C598AEE1F1CEA8ECB0E00C94F0
:104068003621C598AFE0EACEE0914703F0914803C6
:104078000895662777270E94E1230895E091E002DA
:10408800EA93E091E102EA930895E3E5EA93E0E533
:10409800EA93E0E2EA930895A0919203B091930322
:1040A80080919403909195030895E093FC02F09316
:1040B800FD026093FE027093FF0208958DDCA23327
:1040C800E0E0BE07E0E08E07E0E09E070895E8E440
:1040D800EA93EFE6EA93E5E7EA93A2E70C94CA01CC
:1040E8007BDCA431E0E0BE07E0E08E07E0E09E075D
:1040F8000895E89420F8689421F80C944D16E4E6A5
:10410800F0E00E945923DF01EAE0F0E00895C59845
:10411800A4E694CEA4E6B0E00C943621E12FA1E504
:10412800B0E0F0E0EE0FFF1FAE0FBF1F0E94D123DB
:10413800DF01EAE0F0E00895E12FA7E4B0E0F0E065
:10414800EE0FFF1FAE0FBF1F0E94D123DF01EAE071
:10415800F0E00895C59AA2E3B0E00E941B04C59858
:104168000895C598A2E3B0E00E941B04F3CFA2E330
:10417800B0E00C941B04A32F0E949615E03008951C
:10418800AE85BF85E889F98909950895AC85BD850F
:10419800AC91A0300895E889F9893497E88BF98BB8
:1041A800A889B98914960D911C9108950E94EA2056
:1041B800A0ED0C941E21A1E00E940321AE2F0C94C7
:1041C800B015DD98DC98D59AD49815C0D498D598B0
:1041D800EE270000CC9B0895CD9B089504D0D49A77
:1041E80002D0D59AE1E062E107C0D49AD59A03D00B
:1041F800D598F9DFD49865E26A95F1F7089578E0E3
:10420800D598F1DFCD9BFECFEEDF8894CC9908944A
:10421800D59AF1DFEE1F7A9599F77A2F772311F463
:10422800D49801C0D49ADFDFD598E5DFD59ADBDFD3
:10423800D498D9CF78E0AA0F10F4D49801C0D49AB2
:10424800DADFD598D0DFCD9BFECFCDDFD59A7A9532
:1042580091F7D498C8DFD598CEDFE1E0CC99EE2766
:10426800D59AC1CF109639F08DEC9AE00197F1F705
:10427800A8951197C9F70895552342F4503811F4B9
:10428800E0FF04C03196691F791F6BF050E857278B
:1042980011F45F93C8C05F3F31F0660F000C57956B
:1042A8006795752F08955F9300200AF0C8C0C1C0B4
:1042B80050E8192E1522880F991F9527550F8795B5
:1042C80050E8072E0522660F771F7527550F67954B
:1042D8000895689401C0E8945F93F2DF703818F08D
:1042E8007F3F08F4A0C056E1571BAAF451955830F7
:1042F8000EF4593030F0EFEFFFEF6FEF7FE777F90B
:104308001AC077275523B9F0EE0FFF1F661F771FD6
:104318005A95D1F710C07727583028F0EF2FF62F8D
:10432800672F5850F9CF552331F076956795F79553
:10433800E7955A95D1F700200AF431D15F91089595
:10434800689401C0E894309760407040B1F0002450
:1043580026F0772312F4009422D1172E7EE1112043
:1043680032F07A95EE0FFF1F661F111CF9CFEF2F61
:10437800F62F612D5F938ADF5F9108954F93AF0108
:10438800FD01DA01AB01BC01CA01402D012C142E3C
:104398004F910895EA0FFB1F681F0895E095F09567
:1043A8006095EF5FFF4F6F4F08955F9381DF9038FF
:1043B80039F1703821F1572F591B2BF112F4DEDF38
:1043C800FACF583118F0AA27BB278827583028F089
:1043D800AB2FB82F88275850F9CF552329F0869549
:1043E800B795A7955A95D9F7502D512572F0D2DF78
:1043F80038F46795F795E795739513F420C0BEDFF9
:1044080045DF5F910895D8F7FBCFEA1BFB0B680BDC
:1044180051F010F40094C2DF662392F3EE0FFF1FF1
:10442800661F7A95CBF7EE27FF27662777275F91D8
:104438000895EFEFFFEF6FE77FEF5F910895EFEFDC
:10444800FFEF6FE77FE75F9108955F9331DF703883
:1044580051F3903841F301240894791F23F41CF395
:1044680000203AF3ECCF0F921F932F933F934F9373
:10447800112722279927689FA0018F9F302D410D72
:10448800591F6B9F300D411D591F8E9F27D0BF9F0D
:1044980025D06A9F23D0BE9F1DD0AF9F1BD0AE9F53
:1044A800110D291F391F491F591FE32FF42F652F9D
:1044B800522F4F913F912F911F910F9066232AF011
:1044C800550FEE1FFF1F661F02C073954BF2D4DE17
:1044D8005F910895100D211D391F02C0200D311D57
:1044E800491F591F08955F93E3DE703821F41120A6
:1044F8000AF49FCFA4CF903809F495CF01240894EB
:10450800970B1BF4D4F30020F3CF792F1F932F932D
:104518003F934F93112411272227332744275527E8
:1045280090E2AE17BF078607410730F0AE1BBF0BFE
:10453800860B410B089401C08894551F221F331F16
:10454800111CAA1FBB1F881F441F9A9551F7F90118
:10455800612D4F913F912F911F91662332F0550F96
:10456800EE1FFF1F661F7A9543F286DE5F9108955E
:104578000024AF0DB01D0895EA0FFB1F681F791FB7
:104588000895EA1BFB0B680B790B0895AE1BBF0B54
:10459800860B970B0895F195E195F0400895F095F5
:1045A80060957095E195FF4F6F4F7F4F0895EE0F1F
:1045B800FF1FEE0FFF1F08956F2F660F660B762FF4
:1045C80008958B2F880F880B982F0895AE17E1E078
:1045D80008F0EE270895FA9FF02DEB9FF00DEA9F63
:1045E800E02DF10D08957A9F702D6B9F700DF89F47
:1045F800700DE99F700D6A9F602D710DFB9F600D16
:10460800711DE89F600D711D8827FA9FF02D610DBF
:10461800781FEB9FF00D611D781FEA9FE02DF10DCB
:10462800681F781F08950024112490E1AA0FBB1F6A
:10463800001C111C0E1A1F0A18F40E0E1F1E01C0B2
:10464800A1609A9599F7FD01D001089557D0EBDF45
:104658000EF4A1DF08953F934F935F930024112434
:104668004427552730E2AA0FBB1F881F991F001C3B
:10467800111C441F551F0E1A1F0A460B570B28F40E
:104688000E0E1F1E461F571F01C0A1603A9559F70D
:10469800FD01BC01D001CA015F914F913F9108957E
:1046A8003BD0D9DF0EF47BDF0895BDDFFD0108950F
:1046B800E894B7FF04C0A095B09511966894F7FDEB
:1046C8006ADFB1DFFD010EF466DF0895C4DFFD0186
:1046D800BC010895E89497FF09C0A095B09580950E
:1046E8009095AF5FBF4F8F4F9F4F689477FD57DF0F
:1046F800B2DFFD01BC010EF452DF0895E894F7FF24
:1047080002C049DF6894B7FF06C0A095B09511961E
:1047180000F8039400FA0895E89477FF02C03FDF99
:10472800689497FF0BC00024A095B095809590954C
:104738001196801D901D00F8039400FA0895ED91DC
:10474800FC9111970895ED91FD916D917D910895DA
:10475800ED93FD936D937C9308957E936E93FE93F2
:10476800EE9308957A936A93FA93EA930895689476
:1047780001C0E89401D0E7DD182E862F612D192E8F
:10478800972F712D1B2EBF2FF12D1A2EAE2FE12D35
:104798000895129602D0BF011297119602D0FE2FEB
:1047A8001197E199FECFFF93FFB7F894AEBBBFBB5B
:1047B800E09AEDB3FFBFFF91089507D012960F015D
:1047C800FB0103D0F0011297089507D01196EF93DB
:1047D800EF2F03D0EF9111970895E19B02C0A895A0
:1047E800FCCF9FB7F894AEBBBFBBE09A8DB3E81778
:1047F80019F0EDBBE29AE19A9FBF089530976040A7
:104808007040089500240A160B0608060906089544
:10481800EA17FB07680779070895AE17BF078607E9
:10482800970708955A934A933A932A931A930A93A7
:1048380008955D814C813B812A8119810881089501
:00000001FF
