:1000000002308A0004280000FF238316900000308D
:100010008A00A72A0A108A100A11820774346534EC
:1000200072346D346F343D34203425346C34643490
:1000300020340D340A3420340034C1014108073C17
:10004000031C3C2883160510831205102728031073
:10005000C00C03182D2805102E2805148316051032
:1000600013308312A000A00B332836288316051402
:1000700039288312C10A1E2808008316051083122E
:100080000510A630A000A00B43280000831605141D
:10009000A6308312A000A00B4B2800008316051485
:1000A00083120800403084000008031965280130DD
:1000B000A100A001A00B5A28A10B59284A30A0008A
:1000C000A00B60286328800B57280800C001400857
:1000D000073C031C8828831605108312051070281E
:1000E0008316051402308312A000A00B75280000AF
:1000F00083160514831205187F2803108028031423
:10010000C10C2730A000A00B83288628C00A6728CE
:100110004108A1000800B7013D20CC30C0001D20DF
:100120004430C0001D20C830C0005220B708031D55
:100130009D2866202108B70096283D20CC30C000BD
:100140001D20BE30C0001D2066202108B80066209A
:100150002108B90066202108A40066202108A50016
:1001600066202108A6003908BB003808BA003B0801
:10017000C1003A08C0008E30A0004108A10040082C
:10018000A200A301C11FC928A109A209A20A03193B
:10019000A10AA108031DD6282208A100A201083047
:1001A000A002A108031DD628A001DF280310A11B6F
:1001B000DD28A20DA10DA003D628C11FA113200880
:1001C000C0002108C1002208C2002308C300430860
:1001D000C7004208C6004108C5004008C400CB0162
:1001E000CA01C9018330C80044080319B929D000E5
:1001F00048080319B929D002031C03297F30D0070E
:100200000318B92909298130D002031CB92903191F
:10021000B9295008A000A101A201A301CF014508FE
:10022000CE00CE174608CD004708CC001930D000CC
:100230004B08CC0203182C290130CD0203182C29BD
:10024000CE0203182C29CF0203182C29CF0ACE0A7C
:10025000CD0A4B08CC075E294A08CD02031847296E
:100260000130CE0203184729CF0203184729CF0ACD
:10027000CE0A4A08CD074B08CC07031C5E29CD0ADD
:10028000031D5E29CE0A031D5E29CF0A5E29490897
:100290008038CE0203185D290130CF0203185D2992
:1002A000CF0A49088038CE074A08CD07031C3B29EE
:1002B000CE0A031D3B29CF0A3B292314D00B612909
:1002C0006C290310CC0DCD0DCE0DCF0D0310A30D59
:1002D000A20DA10DD10D1829511C74290310A10CD8
:1002E000A20CA30CD10C7729A0030319B929D11BA7
:1002F000A0290310CC0DCD0DCE0DCF0D4B08CC0297
:1003000003188C290130CD0203188C29CE02031862
:100310008C29CF02031CAF294A08CD020318972964
:100320000130CE0203189729CF02031CAF294908D8
:100330008038CE020318A0290130CF02031CAF2958
:10034000A30A031DAF29A20A031DAF29A10A031D99
:10035000AF29A00A0319B929A10CA20CA30C4508C6
:10036000D0004908D006D01FB729A117BD29A11375
:10037000BD29A001A101A201A3012308BF002208F9
:10038000BE002108BD002008BC00C830C0005220BB
:100390003C08A0003D08A1003E08A2003F08A300C1
:1003A000D92A3808BF003C08BF06BF1FDC2903114B
:1003B0000310B81B03140F2A3808BF003B08C00005
:1003C0003708C0020319EA29BF1F0F2A0308013AA0
:1003D00083000F2A3C08C0003808C0020319F62920
:1003E000BF1F0F2A0308013A83000F2A3D08C000EF
:1003F0003908C0020319022ABF1F0F2A0308013A55
:1004000083000F2A3E08C0003A08C00203190E2AD2
:10041000BF1F0F2A0308013A83000F2A03100800A8
:1004200083168512831285160830A100172A000052
:10043000A117282AA113BF0C03188512031C8516C7
:100440002117282A2113A10B1B2A262A0000851216
:100450001C308400840B2A2A2D2AA11B1A2A211B56
:10046000222A08000408BE00B81F3E2ABE173E1EFE
:10047000BE0AB709B809B70A0319B80A380EF03826
:10048000BA00BA07E23EBB00323EBD0038080F3961
:10049000BB07BB07BD07E93EBC00BC07BC07370E66
:1004A0000F39BC07BD07BC0DBD0DBD09BD0D37081B
:1004B0000F39BD07BA0D0730B9000A30BD07BC03BC
:1004C000031C5E2ABC07BB03031C622ABB07BA03DA
:1004D000031C662ABA07B903031C6A2A3930840050
:1004E00007303E053E1384033E05031D7E2A3E1A57
:1004F000840A3E1A7E2A2030A0009B2A84073D30C1
:10050000040203193E170008A000031D8F2A3E1B9A
:100510008F2A3E1AA32ABE198F2A20309A2ABE1F7C
:10052000972A2D30A00084033E13BE139B2ABE15CC
:100530003E123030A007B8010408B7002008BF0001
:10054000102237088400840A3E1F7F2A072B84016B
:100550001F3083058316851283128512A7011F138E
:1005600083161F109F101F119F11073083129900CF
:1005700083160108C7390838810083129001CC30F6
:10058000C0001D204E30C0001D207D30C0001D2049
:10059000C930C0001D207F30C0001D203D20CC3060
:1005A000C0001D204830C0001D200F30C000522068
:1005B0008B282308B2002208B1002108B0002008CF
:1005C000AF003208BA003108B9003008B8002F086F
:1005D000B7006630BE00BD001630BC008430BB00E2
:1005E000D121031C132B3B30A705B70137080A2084
:1005F000B70AA000BF00102207303702031DF62AF9
:10060000103084003008B8002F08B700322A0A30B2
:10061000B70037080A20B70AA000BF0010220E302A
:100620003702031D092BCD30BA00CC30B900183089
:10063000B8008430B7003208BE003108BD00300871
:10064000BC002F08BB00D12103182715CD30BA00FC
:10065000CC30B9001630B8008430B7003208BE0084
:100660003108BD003008BC002F08BB00D121031C9D
:10067000482B00302E180130013AA1002E1021180D
:100680002E142E1C462B2F30A705472B27164A2B3E
:100690002F30A70583168501831227088500D82AE5
:0206A0006300F5
:02400E00C43FAD
:00000001FF
;PIC12F675
;CRC=1C27  CREATED="20-ÂæÑíá-14 20:21"
