:1000000003308A00BB2B0000D4326D386539613A69
:100010007539E51EA012331731338A060000B1018D
:100020003108073C031C2C28831605108312051089
:1000300019280310B00C03181F28051020280514D8
:10004000831605101330F700F70B24282728051412
:1000500029288312B10A102808008316051083127C
:100060000510A630F700F70B33280000831605149F
:10007000A630F700F70B3A28000005148312080099
:100080003030840083130008031954280130F8002D
:10009000F701F70B4928F80B48284A30F700F70B0F
:1000A0004F285228800B46280800B0013008073C32
:1000B000031C752883160510831205105F2883160C
:1000C00005140230F700F70B6328000005148312B3
:1000D00005186C2803106D280314B10C2730F700A5
:1000E000F70B70287328B00A56283108F80008006A
:1000F000A7012D20CC30B0000F204430B0000F20DD
:10010000C830B0004020A708031D8A285520780871
:10011000A70083282D20CC30B0000F20BE30B000C7
:100120000F2055207808A80055207808A9005520F0
:100130007808A00055207808A10055207808A20072
:100140002908AB002808AA002B08B1002A08B00033
:100150008E30F7003108F8003008F900FA01B11FBD
:10016000B628F809F909F90A0319F80AF808031D6D
:10017000C3287908F800F9010830F702F808031DD0
:10018000C328F701CC280310F81BCA28F90DF80D75
:10019000F703C328B11FF8137708B0007808B1003F
:1001A0007908B2007A08B3003308B7003208B60005
:1001B0003108B5003008B400BB01BA01B901833081
:1001C000B80034080319A629C00038080319A62965
:1001D000C002031CF0287F30C0070318A629F628A8
:1001E0008130C002031CA6290319A6294008F70084
:1001F000F801F901FA01BF013508BE00BE17360843
:10020000BD003708BC001930C0003B08BC02031811
:1002100019290130BD0203181929BE020318192932
:10022000BF0203181929BF0ABE0ABD0A3B08BC0752
:100230004B293A08BD02031834290130BE020318C5
:100240003429BF0203183429BF0ABE0A3A08BD0781
:100250003B08BC07031C4B29BD0A031D4B29BE0AE2
:10026000031D4B29BF0A4B2939088038BE020318E9
:100270004A290130BF0203184A29BF0A39088038C9
:10028000BE073A08BD07031C2829BE0A031D2829FA
:10029000BF0A28297A14C00B4E2959290310BC0D16
:1002A000BD0DBE0DBF0D0310FA0DF90DF80DC10DFA
:1002B0000529411C61290310F80CF90CFA0CC10C3A
:1002C0006429F7030319A629C11B8D290310BC0D4E
:1002D000BD0DBE0DBF0D3B08BC02031879290130CE
:1002E000BD0203187929BE0203187929BF02031C35
:1002F0009C293A08BD02031884290130BE02031864
:100300008429BF02031C9C2939088038BE020318C7
:100310008D290130BF02031C9C29FA0A031D9C2968
:10032000F90A031D9C29F80A031D9C29F70A0319E1
:10033000A629F80CF90CFA0C3508C0003908C006DB
:10034000C01FA429F817AA29F813AA29F701F80150
:10035000F901FA017A08AF007908AE007808AD001B
:100360007708AC00C830B00040202C08F7002D08FA
:10037000F8002E08F9002F08FA008A110A12F32B50
:10038000831603178C170C14000000000318F029C3
:1003900083120C087F390313A80003170D080313F9
:1003A000A90003170F080313AA0028080C1ED6295A
:1003B0009900290803178D0003132A0803178F00DB
:1003C00083168C170C140000000083120313A70B74
:1003D000EA29ED2983160317F029102A831603173B
:1003E00083120C0D0E0D7F390313A80003170D089F
:1003F0000313A90003170F080313AA0028080C1EF3
:10040000FF299900290803178D0003132A080317F1
:100410008F008D0A03198F0A03100313A70BC0293D
:100420008A110A12052C8318182A3C308400831381
:10043000F701F801F901FA01BC01BD01BE01BF01DC
:100440003B083A04390438040319562A2030C00006
:100450000310B40DB50DB60DB70DBC0DBD0DBE0D21
:10046000BF0D3B083F02031D3F2A3A083E02031D11
:100470003F2A39083D02031D3F2A38083C02031C6D
:10048000502A3808BC023908031C390FBD023A084B
:10049000031C3A0FBE023B08031C3B0FBF020314B0
:1004A000F70DF80DF90DFA0DC00B282A3C08800055
:1004B000840A3D088000840A3E088000840A3F08C0
:1004C000800008000408AC002B08AE000319F42AD1
:1004D0002A08B7002908B6002808B5002708B40084
:1004E000BB01BA012030B9008230B80034080319CA
:1004F000E62ABC0038080319E62ABC070318872A35
:100500007F30BC02031CE62A0319E62A8B2A8130BD
:10051000BC070318E62A3C08F700F801F901FA01C4
:100520003508C000C0173608BF003708BE001830B5
:10053000BC00BD013E1CB42A3B08FA07031CA62AD6
:10054000F90A031DA62AF80A0319BD173A08F90784
:10055000031CAD2AF80A0319BD173908B600B617EF
:100560003608F8070318BD17BD0DF80CF90CFA0C86
:10057000C00CBF0CBE0C0310BC0B992A0130F7074E
:100580000318E62AF81BCB2AC00DFA0DF90DF80D59
:10059000F7030319E62AC01FDC2AFA0A031DDC2A26
:1005A000F90A031DDC2AF80A031DDC2AF80CF90CF1
:1005B000FA0CF70A0319E62A3508BD003908BD060A
:1005C000BD1FE42AF817EA2AF813EA2AF701F8010E
:1005D000F901FA017A08AA007908A9007808A800A8
:1005E0007708A700AE0B682A2A08B7002908B600CA
:1005F0002808B5002708B4003408B63CB400FA0156
:100600003508B800B5170310B50CB60CB70CFA0CCA
:10061000F90CF80CF70CB40B032BB81F1A2BF709C5
:10062000F809F909FA09F70A0319F80A0319F90A86
:100630000319FA0A7A08AA007908A9007808A8001C
:100640007708A700AA1F312BAC03AC16A709A8098D
:10065000A909AA09A70A0319A80A0319A90A0319CB
:10066000AA0A3B30B3009A30B200CA30B100B001E0
:100670000A30AE002B080319AC0A8314273084001B
:1006800083132A08B7002908B6002808B5002708F0
:10069000B4003308BB003208BA003108B900300892
:1006A000B80013227808F708031D692B2B0A2E02C5
:1006B0000319692B2C0803196B2B0F392E02031910
:1006C000632B03189F2BAC1B9F2B2C1B6B2B2030F9
:1006D0009A2B2030AC05AC1E7A2BAC122B08031DD4
:1006E000AC037708AC002D300C1E742B99002C083D
:1006F000F700AC012B082E02031D892B7708AC00F4
:100700002E300C1E812B99002C08F7002030AC05F0
:1007100000303030AC1E9A2BAC122B08031DAC03FA
:100720007708AC002D300C1E932B99002C08F70095
:10073000AC013030F70777080C1E9C2B9900831012
:100740003308B7003208B6003108B5003008B400ED
:10075000BB01BA01B9010A30B80013227A08B3000C
:100760007908B2007808B1007708B000AE0B3D2BD5
:100770008A110A12122C840183131F308305193049
:1007800083169900A6309800903083129800831643
:100790001F149F141F159F110108C73908388100C5
:1007A000831290010030F80092000030831692000E
:1007B000CC308312B0000F204E30B0000F207D30BF
:1007C000B0000F20C930B0000F207F30B0000F20E4
:1007D0002D20CC30B0000F204830B0000F200F305B
:1007E000B000402078287A08A6007908A50078088B
:1007F000A4007708A300043003178D0000308F0099
:1008000003100D300313A700C0290230840026080E
:10081000AA002508A9002408A8002308A700013081
:10082000AB00622A0A300C1E132C99000D300C1EEE
:08083000172C9900F22B630064
:02400E003B3F36
:00000001FF
;PIC16F876
;CRC=433A  CREATED="14-ÂæÑíá-14 22:39"
