:10400000AABBBBCCDDEEFF112233445566778899FD
:104010008000000000000000000000000000000020
:104020008000000000000000000000000000000010
:104030000000000000000000000000000000000080
:1040400080000000000000000000000000000000F0
:104050000000000000000000000000000000000060
:104060000000000000000000000000000000000050
:1040700080000000000000000000000000000000C0
:00000001FF