:1000000008308A00002800000A108A100A118207AE
:1000100028340C34013406340A108A100A1182077D
:100020004334393435343134443430343634323472
:10003000453441343734333446344234383434343C
:100040000C10F434ED32A037753A2E1720000C1046
:10005000D030F33B6F39641D2000E131F339E539CD
:100060002000E131F339E539A0346E38753AA01E2D
:10007000A52920050D0077396F37EE332038E13997
:10008000F7377232200077396F376710F030F33B63
:100090006F396410BD1253108A0600000C10D23262
:1000A000F3327410D030F33B6F3964000C276F3A91
:1000B0002029C539653A20000C27E53B2028E13985
:1000C0003A100001EE327710F030F33B6F396410D4
:1000D000BD1253108A060001D232CE327710D030D2
:1000E000731D2000E3376E33F2346D10EE3277105B
:1000F000F030F33B6F396410BD1253108A060001D3
:100100008C21E830EE336510D33AE339E53920002D
:100110000C276F3AA026613A6334651000008C37D3
:100120006B172E1000018C346E38753AA031EF3603
:1001300061376410200052308400831300080319D3
:10014000AF280330F800F701F70BA428F80BA32819
:10015000E330F700F70BAA280000800BA128080065
:10016000590EF039F7000F300605770486000000BD
:100170008615BA28BB28BC28861108008610F030E6
:1001800083168600831206150000861500000608F7
:10019000060E0F39D900861100008615CF28000001
:1001A0000608060E0F39D800861100308316860027
:1001B0008312590EF700F030F70577085804F8005D
:1001C0007808D800D81BBF28561C861056188614ED
:1001D0000000061100008611570ED8000F30D80518
:1001E0005808D900B02057080F39D800D900B020DE
:1001F00008000030831686008312861006118611CF
:100200000F30D2009B200130AD002D08033C031CB1
:1002100011290330D900B0200530D2009B20AD0A4F
:1002200005290230D900B020AD012D08033C031C84
:1002300022292D080420AE00D6012E08D700BE20AA
:10024000AD0A15298A150A121D28530B28292B29B6
:100250004030D4002C29D40101305202D407540874
:100260008038D500D6015508D700BE2008005108B7
:100270000C3A03194229063A03194A29023A03198A
:1002800050295529D6010130D700BE200230D200B6
:100290009B205A290130D2000230D30025215A294F
:1002A000D6011030D700BE205A290130D60051089F
:1002B000D700BE2008000B08C6008B138316031757
:1002C0008C170C1400000000831203139B1B8B1768
:1002D00003170C087F390319AF290313C60003174E
:1002E0000D080313C70003170F080313C8004608BF
:1002F000D1003721470803178D000313480803175F
:100300008F0003130B08C9008B13831603178C1778
:100310000C1400000000831203139B1B8B170317A0
:100320000C0D0E0D7F390319AF290313C6000317F7
:100330000D080313C70003170F080313C80046086E
:10034000D1003721470803178D000313480803170E
:100350008F008D0A03198F0A03135B2903170313F8
:1003600008000130D2009B2083160614003083124F
:10037000061C0130D2008316861400308312861CBE
:100380000130D2058316061500308312061D013098
:10039000D2058316861500308312861D0130520562
:1003A0000319D6290030F800D829D8290130F800DF
:1003B0000800831606148312061CE1290030F80099
:1003C000F829831686148312861CE9290130F80067
:1003D000F829831606158312061DF1290230F8004C
:1003E000F829831686158312861DF8290330F80034
:1003F0000800D101A2012208033C031C922A220812
:10040000FC3E0318902A043E982A83160612831293
:10041000061683168612831286128316061383121B
:1004200006138316861383128613D101B121F808AF
:100430000319272AD921780DF700F70DFC30F705AD
:10044000770822070C20F800A100F800952A902ACE
:1004500083160612831206128316861283128616DC
:1004600083160613831206138316861383128613CC
:10047000D101B121F80803194A2AD921780DF700D2
:10048000F70DFC30F705770822070C20F800A100D3
:10049000F800952A902A83160612831206128316F4
:1004A000861283128612831606138312061783168A
:1004B000861383128613D101B121F80803196D2A1E
:1004C000D921780DF700F70DFC30F70577082207E2
:1004D0000C20F800A100F800952A902A8316061235
:1004E000831206128316861283128612831606134F
:1004F000831206138316861383128617D101B12146
:10050000F8080319902AD921780DF700F70DFC306F
:10051000F705770822070C20F800A100F800952ABB
:10052000A20AFB29D1015108F8008A110A12E72A10
:100530000A108A140A118207052A282A4B2A6E2AD1
:100540002013200883168700831207170830F8004D
:10055000A92A0000F817BA2AF813D70C03180713B2
:10056000031C07177817BA2A7813F80BAD2AB82A94
:100570000000071361308400840BBC2ABF2A0000EE
:10058000F81BAC2A781BB42A08005808F801570257
:100590000318CD2A5708F700D92AF7010830D900E7
:1005A000D70DF70D580877020318F700F80DD90B8F
:1005B000D02A0800CD01CE01D001CF01CE014808DC
:1005C0004E020318F62BCD08031D2D2BF9297808B0
:1005D000CD005008FA004F08CF0A0319D00AD10005
:1005E0007A08D2004A08D4004908D300D601503016
:1005F000D5001030D700F701FA01D40CD30C031C3E
:10060000072B5508F7070318FA0A5608FA07FA0CD9
:10061000F70CF90CF80CD70BFD2A7908FA007808CA
:10062000F8007A085202031C1E2B031D1B2B5108D5
:10063000780203181E2B0030F800F82B4B08D1006D
:100640000430D102031C2C2B51308400831300088A
:1006500003192C2B800B2A2BE32ACE0A4708FA0019
:100660004608C60A0319C70A840083137A18831739
:100670004D0880002030D700A0226330D700A02290
:100680005B30D700A0224E08D1001830D2002030B5
:10069000521E3030D3005108F700D11F572BF709F5
:1006A000F70A7708D1002D30D300D2175214510821
:1006B000D7006430D800C5227708D10030307807E1
:1006C000D4005108D7000A30D800C522303077074F
:1006D000D60030307807D5005308F7003030540288
:1006E0000319762BD214D21B52158A2B5308D4002F
:1006F0002030D300303055020319822B5214D21B04
:10070000D2148A2B031D5214031D8A2B5408D500C2
:100710002030D4005219912BD218942B5218972BB9
:100720009A2B5308D700A0225408D700A0225508BE
:10073000D700A0225608D700A0225D30D700A02203
:100740003D30D700A0224D08D700A0222030D7008E
:10075000A0220D30D700A0220A30D700A0224C08DA
:10076000533C031DB52B0030B62B0130D1004C0893
:10077000733C031DBD2B0030BE2B01305105031906
:10078000C52B4C08D1003721C82B4D08D10037218B
:10079000CD014B08D1000A30D200F701F801510811
:1007A00003105218F707F70CF80CD218F707F70CDC
:1007B000F80C5219F707F70CF80CD219F707F70CD9
:1007C000F80C521AF707F70CF80CD21AF707F70CC7
:1007D000F80C521BF707F70CF80CD21BF707F70CB5
:1007E000F80C7808D100D2009B20DF2A0130F800F5
:1007F0000800CB014A084B0203181D2C4708FA00D9
:100800004608C60A0319C70A840083137A18831797
:100810000008CC004908FA004808C80A0319C90AA8
:10082000840083137A18831700084C0203191B2CC9
:100830000030F8001F2CCB0AFA2B0130F80008001A
:100840000B08C7008B13831603178C170C140000BA
:100850000000831203139B1B8B170318572C0317DD
:100860000C087F390313C70003170D080313C800D2
:1008700003170F080313C9004708D700A022480830
:1008800003178D000313490803178F0003130B0888
:10089000CA008B13831603178C170C14000000007A
:1008A000831203139B1B8B17C60B572C762C031735
:1008B0000C0D0E0D7F390313C70003170D0803132A
:1008C000C80003170F080313C9004708D700A02268
:1008D000480803178D000313490803178F008D0A7A
:1008E00003198F0A03100313C60B202C080080087D
:1008F00003198C2CC7010408C6004710831B47143A
:100900000008D700A02246088400831347188317E5
:10091000840A0319850A772C08000230D2000830B7
:10092000D3002521203003178D0000308F000313E2
:100930005B210800C901C801C701C601CB014030D5
:10094000CA000530CC00CD014C084D020318CA2C5A
:100950004B08FA004A08840083137A188317460864
:1009600003178D0083168C130C1483120C0880005F
:1009700003134D08CD0A4B08FA004A08CA0A0319A6
:10098000CB0A0130C6070318C70A0319C80A03199E
:10099000C90AA42C273003178D0000308F000313E1
:1009A0005B21C7013A30C6000530C800CA013230A9
:1009B000C9006430CB002A30CC00DA22F8080319D1
:1009C000492DC7013A30C600C9014030C800053082
:1009D000CA00F923F80803191B2D0230D200083091
:1009E000D30025212D3003178D0000308F00031315
:1009F0005B210230C600C830D2009B20C60BFB2C06
:100A0000313003178D0000308F0003100E300313B8
:100A1000C60020243A308400831377242030D70086
:100A2000A0220A30D700A0220D30D700A02201302A
:100A3000F8004C2D482D0230D2000830D30025217B
:100A40003B3003178D0000308F0003135B21023011
:100A5000C600C830D2009B20C60B292D4330031797
:100A60008D0000308F0003100F300313C6002024C8
:100A70003A308400831377242030D700A0220A3034
:100A8000D700A0220D30D700A0220030F8004C2D56
:100A90004C2D8D240230F80008000530AD009A245A
:100AA0007808AD002D0B722D2011200883168700C9
:100AB00083120711A0102008831687008312871065
:100AC0002012200883168700831207166430D20094
:100AD0009B20201020088316870083120714013002
:100AE000A900C52DAD08031D902DA0102008831668
:100AF0008700831287142011200883168700831231
:100B000007150230AE009630D2009B20AE0B832D2D
:100B10002010200883168700831207100230A900D6
:100B20002D08023C031DC52DA01120088316870047
:100B3000831287110230AE009630D2009B20AE0B9C
:100B40009C2DA0112008831687008312871504307E
:100B5000AE00E130D2009B20AE0BA92DA0112008E1
:100B600083168700831287116430D2009B202011E6
:100B700020088316870083120711A010200883160F
:100B80008700831287100330A9078A150A12682983
:100B90000530AD009A24780BCD2E20122008831644
:100BA0008700831207165C3003178D0000308F001A
:100BB00003135B21C7012E30C6000530C800CA01EF
:100BC0003230C9006430CB002A30CC00DA22F80879
:100BD0000319C32E623003178D0000308F000310FD
:100BE0000D300313C60020242E3084008313772495
:100BF0002030D700A0220A30D700A0220D30D70025
:100C0000A0220130D2000230D3002521201220087A
:100C100083168700831207126C3003178D00003093
:100C20008F0003135B21C7013430C6000530C800B4
:100C3000CA013230C9006430CB002A30CC00DA223D
:100C4000F8080319B72E723003178D0000308F009B
:100C5000031015300313C60020243430840083139E
:100C600077242030D700A0220A30D700A0220D30F0
:100C7000D700A022C7012E30C600C9013430C800F9
:100C80000530CA00F923F8080319A52EBD01BC01DF
:100C9000BB01BA01BF012E30BE000530C000C1014A
:100CA000400841020318872E3F08FA003E088400DE
:100CB00083133F1883170008C2000B08F7008B133B
:100CC0003A0803178D000313420803178C0083169C
:100CD0008C130C1555308D00AA308D008C148C1897
:100CE0006F2E0C117708831203138B044108C10A7D
:100CF0003F08FA003E08BE0A0319BF0A0130BA07CE
:100D00000318BB0A0319BC0A0319BD0A502E803010
:100D100003178D0000308F0003135B212012200881
:100D200083168700831207160430BA00E130D20020
:100D30009B20BA0B962E2012200883168700831260
:100D400007120130F800CD2EB62E883003178D0023
:100D500000308F0003135B210230BA00FA30D2005A
:100D60009B20BA0BAE2E0030F800CD2EC22E8D2463
:100D70000230BA00FA30D2009B20BA0BBA2E0230F1
:100D8000F800CD2ECD2E8D240230BA00FA30D200DC
:100D90009B20BA0BC62E0230F8007808AD002D0B50
:100DA000E72E201120088316870083120711A01058
:100DB00020088316870083128710201220088316CC
:100DC0008700831207166430D2009B202C2FAD08B9
:100DD000031DF72E201120088316870083120715A4
:100DE0000230AE00FA30D2009B20AE0BF22E2D085E
:100DF000023C031D2C2FA0112008831687008312AC
:100E000087110230AE009630D2009B20AE0B032F2C
:100E1000A011200883168700831287150430AE00C6
:100E2000E130D2009B20AE0B102FA01120088316BA
:100E30008700831287116430D2009B202011200884
:100E40008316870083120711A010200883168700DD
:100E5000831287100330A9008A150A128B29FF3FDD
:1010000003081F398300FF30A00020132008831637
:101010008700831207130930A900AA0183161F1441
:101020009F141F159F1107309C0083138312A10189
:10103000A201A301A4018A11F9288A158F30031790
:101040008D0000308F008A1103135B218A15A012D6
:101050002008831687008312871620122008831623
:101060008700831207162011200883168700831239
:101070000715A01120088316870083128715A0107A
:1010800020088316870083128710201020088316FB
:101090008700831207100330AD008730D2008A1119
:1010A0009B208A15AD0B4D28A012200883168700BF
:1010B000831287120230AD009630D2008A119B2035
:1010C0008A15AD0B5C282012200883168700831236
:1010D00007120230AD009630D2008A119B208A158B
:1010E000AD0B6B28A011200883168700831287118F
:1010F0000230AD009630D2008A119B208A15AD0BCC
:101100007A282011200883168700831207110230E5
:10111000AD009630D2008A119B208A15AD0B89282C
:10112000933003178D0000308F008A1103135B2169
:101130008A15C7012B30C6000130C800CA010A3029
:10114000C9000330CB007330CC008A11DA228A1533
:10115000F808031D4C29290BAE28B0280030B1280F
:101160000130AD002908043C0319B8280030B92823
:1011700001302D040319D12820122008831687007E
:10118000831207160230AD00C830D2008A119B20AE
:101190008A15AD0BC42820122008831687008312FD
:1011A00007122908023C0319D7280030D82801303B
:1011B000AD002908053C0319DF280030E028013084
:1011C0002D040319F82820112008831687008312A4
:1011D00007150230AD00C830D2008A119B208A1555
:1011E000AD0BEB282011200883168700831207110E
:1011F0002908033C0319FE280030FF280130AD0008
:101200002908053C03190629003007290130AD04DF
:101210002908043C03190E2900300F2901302D0440
:1012200003192729A0112008831687008312871528
:101230000230AD00C830D2008A119B208A15AD0B58
:101240001A29A01120088316870083128711290804
:10125000093C031D4029A012200883168700831231
:1012600087160230AD00C830D2008A119B208A1543
:10127000AD0B3329A0122008831687008312871232
:10128000AA0A2A080F3C03184C29A010200883162C
:10129000870083128710AA012B08413C031D6F2988
:1012A000AB01201220088316870083120712A012B8
:1012B000200883168700831287160230AD00C830DD
:1012C000D2008A119B208A15AD0B5F298A114D2D02
:1012D0008A15A012200883168700831287122B0814
:1012E000433C031D9829AB01201220088316870078
:1012F00083120712A0122008831687008312871614
:101300000230AD00C830D2008A119B208A15AD0B87
:1013100082298A11C82D8A15A012200883168700F9
:101320008312871220122008831687008312071267
:101330002B08453C03199E2900309F290130AD0040
:101340002908023C031DA6290030A72901302D05DC
:101350000319AD29AB018A01002890286300FF3FE3
:08400000FA3FFB3FFC3FFD3FCE
:02400E00723FFF
:10420000310032003300340035003600370038000A
:1042100039006100620063006400650066006700A9
:10422000680069006A006B006C006D006E006F0032
:1042300070007100720073007400790077007800DC
:1042400079007A00FF00FF00FF00FF00FF00FF0081
:00000001FF