:1000000008308A00A5280000FF00030E8301A1002C
:100010000A08A0008A010408A2007708A300780853
:10002000A4007908A5007A08A600831383128C30F7
:100030008400001C1D280C182E2822088400230888
:10004000F7002408F8002508F9002608FA0020081F
:100050008A00210E8300FF0E7F0E09008A110A120A
:1000600045280A108A100A11820703340534043423
:100070000034013402340A108A100A118207053450
:10008000043403340234003401344008C00A073C0D
:10009000031CC00140080139013C031D56280030F3
:1000A0003F1C0130F8003F1078183F144008033916
:1000B000013C031D62280030BF1C0130F800BF1056
:1000C0007818BF1400303F18013003179D0000302E
:1000D0000313BF18013003171D06F80003133F1167
:1000E00078183F150C108A110A121D28533A6139ED
:1000F00074050D000B088316E50083128B1383161D
:1001000003178C170C140000000083120C087F39B1
:100110000319D92883160313E600831203170D0869
:1001200083160313E700831203170F0883160313C4
:10013000E800660883120C1E9B2899008316670846
:10014000831203178D0083160313680883120317A5
:100150008F0083168C170C140000000083120C0D06
:100160000E0D7F390319D92883160313E600831275
:1001700003170D0883160313E700831203170F08F4
:1001800083160313E800660883120C1EC528990025
:1001900083166708831203178D00831603136808FC
:1001A000831203178F008D0A03198F0A03137F2808
:1001B000031783160313E51FE02883128B1783169A
:1001C00083128A150A12D428EA30840083130008A7
:1001D0000319F8280330F800F701F70BED28F80BA6
:1001E000EC28E330F700F70BF3280000800BEA2837
:1001F00008000030D600831687018312870183161A
:10020000E5016508053C031C2A2965088312312095
:100210008316E7000130F7006708F8000319142976
:100220000310F70DF80B102977088312AF042F087D
:100230008316E60000308312D60083168701660815
:1002400083128700C8308316EA008312E4208316E5
:10025000E50A01295030EA008312E4208316E50103
:100260006508053C031C5A29650883123120831652
:10027000E7000130F7006708F8000319432903106D
:10028000F70DF80B3F297708FF3A8312AF052F08C7
:100290008316E60000308312D600831687016608B5
:1002A00083128700C8308316EA008312E420831685
:1002B000E50A302983128A150A12D7280317130872
:1002C0000739F700130CF800F80CF80C1F30F8058C
:1002D000780815078400831316188317F801F80AA5
:1002E000F70A7329F80DF70B7229940803197B2973
:1002F000780880047E29F80978088005031308002F
:100300008316E60183120608F70057087706F800FF
:100310007708D70078080319B129FF3083168600C3
:1003200083120608FF3AAE00AF11AE1AAF15AF1236
:100330002E1AAF162F12AE192F162F102E192F149A
:10034000AF102E18AF142F11AE182F152F088316CB
:10035000E60000308312D6008316870166088312F8
:1003600087008A150A120429031713080739F700B2
:10037000130CF800F80CF80C1F30F8057808140777
:1003800084008313151883170008F800F70AC92999
:10039000F80CF70BC829031308000B138B138B1BE6
:1003A000CE29031798011808033C031CE8293030B4
:1003B000180784008313FC3018079B001B088D006E
:1003C00083168C130C1483120C088000980AD3290E
:1003D000C03003138B0423300C1EEC299900031743
:1003E000150803130C1EF229990033080C1EF62978
:1003F00099000317160803130C1EFC299900031714
:10040000170803130C1E022A990008008316E7013F
:100410006810FF30860083120608FF3A8316E60054
:1004200066088312AE00AE1A1F2A2E1A1F2AAE19B2
:100430001F2A2E191F2A2E181F2AAE1C222A8316A5
:100440006814831214308316EA008312E4208316A2
:10045000E5016508053C031C1F2E650883123B203F
:100460008316EA006608F7006A08F80003193C2AB8
:100470000310F70CF80B382A771CB42C6508EA0037
:100480008312031790019101920103130B138B1335
:100490008B1B472A83166A0DEB00EB0DEB0DF83032
:1004A000EB056B08831203178D0083168C130C1455
:1004B00083120C0883160313EC0001306B078312C0
:1004C0000317930013088D0083168C130C148312EA
:1004D0000C0883160313ED0002306B078312031719
:1004E000930013088D0083168C130C1483120C08D0
:1004F00083160313EE0003306B0783120317930078
:1005000013088D0083168C130C1483120C088316A9
:100510000313EF00C03083128B0483166E080F396B
:10052000831203179100831603136E08F039F70046
:10053000770E8312031792000F3092058316031370
:100540006A0883120317930095013C30940003134B
:10055000B4210030781801300139013C031DD72A3D
:1005600083166A08831203179300940196013C30A6
:10057000950003135E2183166A0883120317930004
:100580000130940096013D30950003135E21353013
:1005900083166A078400831380016A088312031795
:1005A0009300940196013E30950003135E210317DA
:1005B000110BDC2A013090001108023C031DE22AD5
:1005C000023090001108033C031DE82A033090001C
:1005D0001108043C031DF42A043090008316031311
:1005E0006F08ED00831203171108053C031D002B53
:1005F000831603136F08F039053E8312031790002A
:100600001108063C031D0C2B831603136F08F039E9
:10061000063E83120317900011080A3C031D122B9B
:100620000A309000110B152B292B1108023C0319DD
:10063000292B1108033C0319292B1108043C031929
:10064000292B1108053C0319292B1108063C031D11
:100650007E2B9208031D7E2B831603136A088312D8
:100660000317930095013D3094000313B42100302B
:10067000781801300139013C031D472B35308316B2
:100680006A0784008313013000078000831235302D
:1006900083166A07840083130008013C03187C2B2F
:1006A0006A08831203179300940196013D30950068
:1006B00003135E21353083166A078400831380019B
:1006C0006A088312031793000130940096013E30AC
:1006D000950003135E2183166C088312031795009F
:1006E000831603136D0883120317960010089700F2
:1006F0000313CD21A42C831683120317110B812B16
:100700008D2B1108023C03198D2B1108033C031992
:100710008D2B1108043C031DF22B92080319F22BB8
:100720001208063C031CF22B831603136A0883127B
:100730000317930095013D3094000313B42100305A
:10074000781801300139013C031DAF2B3530831679
:100750006A0784008313013000078000831235305C
:1007600083166A078400831300088312031793001B
:10077000120DF700F70DF70DF830F70577081302A3
:100780000319F22B031CF22B831603136A0883123E
:1007900003179300940196013D30950003135E21E9
:1007A000353083166A078400831380016A08831238
:1007B000031793000130940096013E309500031317
:1007C0005E2183166C0883120317950083160313AA
:1007D0006D08831203179600100897000313CD21AC
:1007E000A42C03171208083C031D0A2C353083166D
:1007F00003136A078400831380016A0883120317B6
:1008000093000130940096013E30950003135E2161
:10081000A42C03171208093C031D5F2C1108073C88
:10082000031D142C073090001108083C031D1A2CDE
:10083000083090001108093C031D202C093090005D
:10084000831603136A0883120317930095013D3042
:1008500094000313B4210030781801300139013CB1
:10086000031D5D2C83166A088312031793009401FD
:1008700096013D30950003135E21353083166A07DB
:100880008400831380016A088312031793000130E8
:10089000940096013E30950003135E2183166C0888
:1008A000831203179500831603136D088312031731
:1008B0009600100897000313CD21A42C03171208EB
:1008C0000A3C031DA52C831603136A088312031721
:1008D000930095013D3094000313B4210030781843
:1008E00001300139013C031DA32C83166A088312D1
:1008F000031793000130940096013E3095000313D6
:100900005E2183166A0883120317930094019601EF
:100910003D30950003135E21353083166A0784004D
:10092000831380016D080F39831203179400831617
:1009300003136C088312031795001408960010081F
:1009400097000313CD21A42C031783160313650806
:100950008312031793000130940096013430950000
:1009600003135E211C2E8316650883120317930060
:100970009501343094000313B4210030781801300D
:100980000139013C031D1C2E83166508EA00831201
:100990000B138B138B1BC92C83166A0DEB00EB0D0D
:1009A000EB0DF830EB056B08831203178D008316EF
:1009B0008C130C1483120C0883160313EC00013003
:1009C0006B0783120317930013088D0083168C1393
:1009D0000C1483120C0883160313ED0002306B070E
:1009E00083120317930013088D0083168C130C14C5
:1009F00083120C0883160313EE0003306B07831277
:100A00000317930013088D0083168C130C148312A4
:100A10000C0883160313EF00C03083128B04831677
:100A20006E080F39831203179000831603136E08A4
:100A3000F039F700770E8312031791000F309105FC
:100A4000100B242D013092001008023C031D2A2DAA
:100A5000023092001008033C031D302D0330920039
:100A60001008043C031D3C2D043092008316031330
:100A70006F08ED00831203171008053C031D482D75
:100A8000831603136F08F039043E83120317920094
:100A90001008063C031D4E2D0430920010080A3C3D
:100AA000031D542D0A309200831603136A08831223
:100AB0000317930095013E3094000313B4210030D6
:100AC000781801300139013C031D892D83166A080D
:100AD0008312031793000130940096013C30950077
:100AE00003135E2183166A0883120317930094018F
:100AF00096013E30950003135E2183166A08831227
:100B0000031793000130940096013D3095000313C4
:100B10005E2103171108083C031DBC2D8316031327
:100B20006A0883120317930095013D309400031364
:100B3000B4210030781801300139013C031DBB2D70
:100B400083166A08831203179300940196013D30BF
:100B5000950003135E2183166C088312031795001A
:100B6000831603136D08831203179600120897006B
:100B70000313CD211C2E031711080A3C031D002E60
:100B80001008023C031DC62D01309200100BCA2D27
:100B900002309200831603136A088312031793002E
:100BA00095013D3094000313B421003078180130D2
:100BB0000139013C031DFE2D83166A0883120317B9
:100BC0009300940196013D30950003135E2135306A
:100BD00083166A078400831380016D080F3983121E
:100BE00003179400831603136C08831203179500F0
:100BF00014089600120897000313CD211C2E03172A
:100C00003530831603136A078400831380016A0852
:100C10008312031793009401960134309500031357
:100C20005E2183166A0883120317930094019601CC
:100C30003B30950003135E218316E50A292A8312AF
:100C4000AF018316E5016508053C031C4D2F6508BF
:100C500083120317930094019601E9309500031362
:100C60005E214F308316650784008313000B442EEA
:100C70006508831203179300013094009601E93050
:100C8000950003135E2183166508831203179300F2
:100C90009501553094000313B421003078180130C9
:100CA0000139013C031DEA2E4F308316650784008D
:100CB00083130008023C031D692E65088312031785
:100CC0009300013094009601E930950003135E21F2
:100CD00083164F306507840083130008033C031D0F
:100CE0007C2E650883120317930094019601E93066
:100CF000950003135E2183164F306507840083132C
:100D00000008043C031DA02E83123F1C942E831662
:100D10006508831203179300013094009601E930AF
:100D2000950003135E219F2E831665088312031717
:100D3000930094019601E930950003135E21831618
:100D40004F306507840083130008053C031DC42E43
:100D50008312BF1CB82E83166508831203179300F5
:100D6000013094009601E930950003135E21C32EF3
:100D70008316650883120317930094019601E930E6
:100D8000950003135E2183164F306507840083139B
:100D90000008063C031DE82E83123F1DDC2E83163F
:100DA0006508831203179300013094009601E9301F
:100DB000950003135E21E72E83166508831203173F
:100DC000930094019601E930950003135E21831688
:100DD000122F83124F308316650784008313000897
:100DE000023C031DFE2E6508831203179300940135
:100DF0009601E930950003135E2183164F30650795
:100E0000840083130008033C031D122F650883121E
:100E100003179300013094009601E9309500031305
:100E20005E21831665088312031793009501E9304C
:100E300094000313B4210030781801300139013CCB
:100E4000031D362F83166508831231208316EA00AE
:100E50000130F7006A08F8000319322F0310F70D6C
:100E6000F80B2E2F77088312AF044A2F83166508DC
:100E7000831231208316EA000130F7006A08F80077
:100E80000319462F0310F70DF80B422F7708FF3A8E
:100E90008312AF058316E50A232E83122F088316CB
:100EA000E70000308312D60083168701670883129B
:100EB00087000030831668180130F80083128A1505
:100EC0000A12072901308316EA00C130E9009B307D
:100ED000F700F70B692F6C2FE90B752FEA0B752FB5
:100EE0008312A701F801822F831683128C1A7A2F9E
:100EF0008316672F1808A7001A08F800A71C822F6E
:060F00001812181608008B
:10100000FA0183166708831203179300920183166F
:101010000313660883120317120790001308910048
:101020000318910A83160313EE016E08053C031C96
:10103000A12883120B138B138B1B1B2883166E0D99
:10104000E800E80DE80DF830E80504306807831281
:101050000317920012088D0083168C130C14831250
:101060000C0883160313E900053068078312031781
:10107000920012088D0083168C130C1483120C0836
:1010800083160313EA0006306807831203179200E1
:1010900012088D0083168C130C1483120C0883160F
:1010A0000313EB000730680783120317920012083E
:1010B0008D0083168C130C1483120C0883160313F3
:1010C000EC00C03083128B044F3083166E0784000F
:1010D00083136B08800069086502031D9F28831233
:1010E00003171108FA001008F900831603136A08A1
:1010F000F700031980280310FA0CF90CF70B7B2872
:101100007908791C92286E08831203179300013026
:1011100094009601553095008A1103135E218A15BB
:101120009E2883166E08831203179300940196017C
:10113000553095008A1103135E218A158316EE0A35
:10114000152883128A150A125629840183131F3029
:101150008305A701263083169900A63098009030A9
:10116000831298003F10BF103F11C001BF11FF3024
:10117000D600D70183161F149F141F159F118312C9
:10118000A801A90183168113B5308312900083163C
:101190000C14C03083128B04763003178D0000309E
:1011A0008F008A1103137A288A158A11F9288A1563
:1011B0008316E0016008053C031C002935306007F8
:1011C00084008313800160088312031793000130A9
:1011D000940096013C3095008A1103135E218A1514
:1011E000831660088312031793009401960155300B
:1011F00095008A1103135E218A158316E00ADA2806
:101200008312C6018A1180298A158A11062A8A1535
:101210008030831687008312D6008A1162278A15D0
:101220007808C2004208243C031D02290B138B13CB
:101230008B1B17298030831687008312D60001305C
:101240008316E0006008043C031C3E29423060071E
:1012500084008313E8010408E7006810831B681406
:101260008A11831262278A15831667088400831304
:101270006818831778088000E00A2229831246083C
:101280000A3C031D562943088316E20083124408D2
:101290008316E300831245088316E4006208E50024
:1012A0006308E6006408E70083120028C0308B045E
:0412B00001296300AD
:0840000095001200050081008B
:0843F800950012000500810090
:0842000001000100010075003E
:08421000010002000200080099
:084220000100030003009800F7
:0842300001000400A1000A00D6
:0842400001000500A2000B00C3
:08425000010006000300540008
:08420800010001000200FF00AB
:08421800010002000200FF009A
:08422800020003000200FF0088
:08423800010004000200FF0078
:08424800010005000200FF0067
:08425800010006000600FF0052
:02400E00723FFF
:00000001FF
;PIC16F876
;CRC=C8BE  CREATED="18-Mar-17 17:53"
