:020000040000FA
:10000000610869046E0969002000000F0500E00F17
:1000100006000001E90F0C00EA0F0700E10F0800DD
:10002000E20F0900D90F0A00DA0F0B00F30F1200DC
:10003000F40F1300FA0F1400F50F1500F60F160059
:10004000F70F170000000E0001000F000200100063
:10005000030011009D00300F00009E00CC0F010036
:100060009D0A360F00009E0A780F00000E00000067
:100070000F00010010000200110003000C00E90F46
:100080000700EA0F070E0800E10F0900E20F0A005F
:10009000D90F0B00DA0F1200F30F1300F40F140046
:1000A000FA0F1500F50F1600F60F1700F70F0400F2
:1000B0000600E00F0500D803F00CC009FF07C00AD6
:1000C000FF078E08C001FF09C002FF0AC009FF0B2D
:1000D000C00AFF02C003FF03C004FF04C00AFF05FB
:1000E000C005FF06C006FF07C007FF045006C0009A
:1000F000FF05C008A60B0100A502A501610A620068
:10010000000A00010700010A1100030A1400FD0A99
:10011000180024001E006000A6026800A502670007
:10012000A50261006700A702D40F1D00A6026600A9
:10013000A50265001800A50263006300A702C90FAD
:100140001200610209011B00650C0400650C04002B
:100150006602020160001E00620A0D00A502A702ED
:10016000B80F630600006200020804026302020185
:1001700062080100620A9E0A360F000073056E04D1
:100180003A00250820055800250320047900650D54
:100190002508200D0A0073056E043A002508200585
:1001A0005800250320047900650D2508200D0A005C
:1001B00073056E043A002508200558002503200425
:1001C0007900650D2508200D0A0073056E043A00BC
:1001D0002508200558002503200D0A0073056E042C
:1001E0003A0072056C05730558000D0A0003650E90
:1001F000640A20055800250820056300740970056D
:080200000A000B000B000A00CC
:101FF000FF0FFF0FFF0FFF0FFF0FFF0FFF0FE30F8D
:00000001FF
