:020000040000FA
:1000000008308A0000280000FF00030E8301A100D1
:100010000A08A0008A010408A2007708A300780853
:10002000A4007908A5007A08A600831383128B1E0A
:100030001B280B192C28220884002308F700240809
:10004000F8002508F9002608FA0020088A00210E89
:100050008300FF0E7F0E09008A110A121A290A1066
:100060008A100A11820728340C34013406340A102D
:100070008A100A118207313432343334463434342E
:1000800035343634443437343834393445342A340A
:100090003034233443340A108A100A11523E0318B4
:1000A0008A0A82008034843488348B348F349334C9
:1000B00096349A349E34A134A534A934AC34B03487
:1000C000B334B634BA34BD34C034C334C734CA349C
:1000D000CC34CF34D234D534D734DA34DC34DF34D2
:1000E000E134E334E534E734E934EB34ED34EE3431
:1000F000F034F134F234F334F434F534F634F734C4
:10010000F734F734F834F834F834F834F834F73492
:10011000F734F734F634F534F434F334F234F1349C
:10012000F034EE34ED34EB34E934E734E534E334E1
:10013000E134DF34DC34DA34D734D534D234CF345C
:10014000CC34CA34C734C334C034BD34BA34B63402
:10015000B334B034AC34A934A534A1349E349A34C9
:10016000963493348F348B348834843480347C34A4
:100170007834753471346D346A34663462345F3483
:100180005B345734543450344D344A344634433459
:1001900040343D3439343634343431342E342B3415
:1001A00029342634243421341F341D341B341934AB
:1001B000173415341334123410340F340E340D3414
:1001C0000C340B340A340934093409340834083443
:1001D0000834083408340934093409340A340B3437
:1001E0000C340D340E340F341034123413341534EF
:1001F000173419341B341D341F342134243426346D
:1002000029342B342E3431343434363439343D34BB
:100210004034433446344A344D34503454345734E3
:100220005B345F34623466346A346D3471347534EF
:1002300078347C348316E90113308312810031084D
:100240004B20F8008316EB017808EA00831232088D
:100250004B20F800FA01780883166A07E7006B085C
:10026000E8007A0803187A0FE8070310680CFA0010
:10027000670CF900E9006908831295003308B1079B
:100280003408B2073108C73C03184829C830B10206
:100290003208C73C03184E29C830B2020B118A112C
:1002A0000A121B280C10F434ED32A037753A2E17C1
:1002B00020000C102010202A45264528C827CE22D1
:1002C00020102010200520000C1020102010C8271E
:1002D000CF25A02950102010201020100A10000156
:1002E0000C10201020102024CF274B10201020109D
:1002F00020100A1000010C102010202A4526452845
:10030000C827CE2220102010200520000C1020101D
:100310002010C4244126C522441020102010201093
:100320000A1000010C1020102010D222C324D62263
:100330004522201020102010200520000C10201035
:100340002010D222C4244126201020102010200585
:1003500020000C10A024CE21CF2649274710C3200F
:100360004C262010201020052000CE27A021613629
:10037000EC32721049220000DB3084008313000845
:100380000319D0290330F800F701F70BC529F80B42
:10039000C429E330F700F70BCB290000800BC229FA
:1003A00008008316620EF039F7000F30831206053D
:1003B0007704860000008615DD29DE29DF298611F5
:1003C00008008610F03083168600831206150000A0
:1003D000861500000608060E0F398316E200831208
:1003E000861100008615F42900000608060E0F3954
:1003F0008316E10083128611003083168600620E98
:10040000F700F030F70577086104F8007808E1009C
:10041000E11F0C2A8312E2295F18112A8312861029
:1004200083165F1C162A831286148316000083121B
:100430000611000086118316600EE1000F30E10501
:100440006108E2008312D121831660080F39E100B0
:10045000E2008312D1210800003083168600831247
:100460008610061186110F308316DB008312BC2123
:1004700001308316D3005308033C031C4B2A03307E
:10048000E2008312D12105308316DB008312BC21E8
:100490008316D30A3B2A0230E2008312D12183164D
:1004A000D3015308033C031C622A530883122F20F4
:1004B0008316D400DF015408E0008312E121831683
:1004C000D30A512A83128A150A12712883165C0BEB
:1004D0006A2A6D2A4030DD006E2ADD0101305B02A0
:1004E000DD075D088038DE00DF015E08E000831272
:1004F000E121080083165A080C3A83120319872A4F
:10050000063A0319932A023A03199B2AA22A831650
:10051000DF010130E0008312E12102308316DB00AD
:100520008312BC21AA2A01308316DB000230DC00D2
:1005300083126622AA2A8316DF011030E00083129C
:10054000E121AA2A01308316DF005A08E000831255
:10055000E121AA2A0800831603178C170C14000047
:10056000000083120C087F390319032B8316031331
:10057000D300831203170D0883160313D4008312CC
:1005800003170F0883160313D5005308DA008312EC
:100590007A2283165408831203178D0083160313DF
:1005A0005508831203178F0083168C170C14000054
:1005B000000083120C0D0E0D7F390319032B8316D7
:1005C0000313D300831203170D0883160313D400FB
:1005D000831203170F0883160313D5005308DA009C
:1005E00083127A2283165408831203178D00831610
:1005F00003135508831203178F008D0A03198F0AFE
:100600000313AB2A03170313080001308316DB0022
:100610008312BC218316051400308312051C01309F
:100620008316D400851400308312851C0130831694
:10063000D405051500308312051D01308316D4053D
:10064000851500308312851D01308316540503196A
:100650002D2B0030F800302B302B0130F800302BE0
:1006600083120800831605148312051C3A2B0030F0
:10067000F800522B831685148312851C422B0130FF
:10068000F800522B831605158312051D4A2B0230E4
:10069000F800522B831685158312851D522B0330CB
:1006A000F800522B08008316D3018312AA012A08EE
:1006B000033C031C1C2C14308316DB008312BC216A
:1006C0002A08FC3E03181A2C043E242CA8112808E2
:1006D000831687008312871528122808831687003F
:1006E00083120712A8122808831687008312871224
:1006F0002813280883168700831207138316D30153
:1007000083120523F8080319922B3223780DF70082
:10071000F70DFC30F70577082A073720F800A90005
:10072000F800212C1A2CA8112808831687008312A0
:100730008711281228088316870083120716A8122B
:100740002808831687008312871228132808831627
:100750008700831207138316D30183120523F80839
:100760000319BF2B3223780DF700F70DFC30F70586
:1007700077082A073720F800A900F800212C1A2C46
:10078000A8112808831687008312871128122808C9
:100790008316870083120712A81228088316870081
:1007A00083128716281328088316870083120713DD
:1007B0008316D30183120523F8080319EC2B322387
:1007C000780DF700F70DFC30F70577082A0737207A
:1007D000F800A900F800212C1A2CA811280883166B
:1007E0008700831287112812280883168700831236
:1007F0000712A8122808831687008312871228136D
:10080000280883168700831207178316D3018312E3
:100810000523F8080319192C3223780DF700F70D7A
:10082000FC30F70577082A073720F800A900F80000
:10083000212C1A2CAA0A572B8316D3015308F8002F
:1008400083128A150A1207290A108A100A158207CC
:10085000662B932BC02BED2BB101B201B301B40178
:1008600083165408313C03193D2C5408323C0319BB
:100870003D2C5408333C031D422C0D308312B30031
:10088000732C83165408343C03194E2C5408353C01
:1008900003194E2C5408363C031D532C0E30831282
:1008A000B300732C83165408373C03195F2C54088B
:1008B000383C03195F2C5408393C031D642C10305C
:1008C0008312B300732C831654082A3C0319702C2E
:1008D0005408303C0319702C5408233C031D742C1D
:1008E00011308312B30083165408313C0319842C51
:1008F0005408343C0319842C5408373C0319842CC5
:1009000054082A3C031D892C16308312B400C62CCF
:1009100083165408323C0319992C5408353C0319AA
:10092000992C5408383C0319992C5408303C031D69
:100930009E2C19308312B400C62C83165408333C05
:100940000319AE2C5408363C0319AE2C5408393C1C
:100950000319AE2C5408233C031DB32C1B30831207
:10096000B400C62C83165408413C0319C32C540808
:10097000423C0319C32C5408433C0319C32C5408AC
:10098000443C031DC72C1F308312B400831608306B
:10099000F700831281018130840083130008C0397D
:1009A0000738800064000008C739F719C039770498
:1009B00080008B1683165608FA0055080319D603D3
:1009C000D503D7007A08D800D708031DEA2CD80829
:1009D0000319F02C0130DB008312BC21DA2C8316C2
:1009E00083128B12950108000408F8003C3083162E
:1009F000D70083122717A8172808831687005230BC
:100A0000F700F70B012D042DD70B0B2D8312A70137
:100A1000F801412D83168312871F102D8316FF2C9A
:100A20000830F7008316D801F7172A2DF7132A2D5F
:100A300003108312871B03148316D80C77172A2DF3
:100A40007713F70B182D780884005808F8008312E4
:100A5000412D8316033084000030F71B5530F80019
:100A6000F80B302D840B2C2D3430F71B0E30F80092
:100A7000F80B382D3B2DF71B162D771B202D182D2D
:100A80008312080083165B08F8015A0203184B2DE5
:100A90005A08F700572DF7010830DC00DA0DF70D82
:100AA0005B0877020318F700F80DDC0B4E2D83125C
:100AB000080020308316551E3030D6005408F70049
:100AC000D41F692DF709F70A7708D4002D30D60016
:100AD000D5175408DA006430DB008312422577080A
:100AE0008316D40030307807D7005408DA000A3073
:100AF000DB0083124225303077078316D90030306F
:100B00007807D8005608F700D51D882DD51F551138
:100B1000551A952DD51FB02D5519B02D7708D70032
:100B2000D518B02D7708D800B02D30305702031DEE
:100B3000B02D7708D7002030D600D51DA32D551134
:100B4000D514D51FD51030305802031DB02D7708AD
:100B5000D8002030D700D51DA32DD510D51F551096
:100B6000551DB72D5608DA0083127A228316D51C3C
:100B7000BE2D5708DA0083127A228316551CC52D24
:100B80005808DA0083127A2283165908DA00831291
:080B90007A228A150A12D32B08
:10100000840183131F308305A701FF30A8008316D6
:101010000510831205140130B500EA016B10EB10C6
:101020006B11EB116B12EB126B13EB1383161F1486
:101030009F141F159F1107309C008312A901AA015C
:10104000AB01AC01ED01EE01EF01F001F101F201A4
:10105000F301F401F501F601FC01FB01FF308316F9
:10106000860083120608ED0003308316C600C830E0
:10107000DB008A118312BC218A158316C60B372820
:101080000030F800043883129200FA308316920080
:1010900083122811280883168700831207110C3049
:1010A0009700C0308B04950183161F149F141F15E1
:1010B0009F11851283128516F00170080B3C031CEA
:1010C0006F28503070078400831320308000433035
:1010D00070078400831320308000F00A5D288A1195
:1010E0002C2A8A15593003178D0001308F008A1180
:1010F0000313AB228A15EB1C9F28EB1D9F28EB11D5
:10110000A810280883168700831287146B126B11AE
:10111000EA0103308316C600C830DB008A1183124F
:10112000BC218A158316C60B8C28643083120317E2
:101130008D0001308F008A110313AB228A156B1CBE
:10114000C528EB1DC528EB11A810280883168700B9
:10115000831287146B126B11EA01EB18EB1003304A
:101160008316C600C830DB008A118312BC218A15A1
:101170008316C60BB2287030831203178D0001301E
:101180008F008A110313AB228A156B1CC928EB1838
:101190000129EB1D01297B3003178D0001308F00E1
:1011A0008A110313AB228A15EB11A81028088316A5
:1011B000870083128710EE01EB1F0029F0017008F1
:1011C0000B3C031C0029363070078316C600C7018C
:1011D0000318C70A43307007840083130008C8004F
:1011E000460884008313471883174808800043305B
:1011F00070078400831320308000F00A8312DF28F8
:10120000EB13F301ED08031D33298A11532B8A15C3
:101210007808ED007308F30A043C031C33290230FC
:10122000F700F70B11291429831605168312051EE2
:1012300021296B14EE016B1B1F296B17EB15FC01A9
:10124000FB01831605168312051A2B296B106B1FE1
:101250002B296B13EB1583160614831206183229FB
:101260006B15542B0229ED0803193A2BFC01FB01E5
:101270006D08463C031948296D08433C0319482969
:101280006D08443C031948296D08453C031DFC2AA0
:101290006D08463C031D55290030EB1C0130F80059
:1012A000EB107818EB14EB15EE016D08433C031DB1
:1012B00077296B185D29EB1C7729A810280883165D
:1012C00087008312871003308316C600C830DB0006
:1012D0008A118312BC218A158316C60B66298312D4
:1012E000A81028088316870083128714EB156D0851
:1012F000443C031DBD290030EB1E0130F800EB1209
:101300007818EB16EB1EA129863003178D000130EB
:101310008F008A110313AB228A15F00170080B3C71
:10132000031CA0293630700784008313000883163D
:10133000C600DA008A1183127A228A15F00A8E29F1
:10134000BD29923003178D0001308F008A110313DD
:10135000AB228A15F00170080B3C031CBD295030EC
:1013600070078400831300088316C600DA008A1110
:1013700083127A228A15F00AAB296D08453C031DB9
:10138000EE2A6B18C529EB1CEE2A9E3003178D0040
:1013900001308F008A110313AB228A15A810280888
:1013A000831687008312871003308316C600C83067
:1013B000DB008A118312BC218A158316C60BD7293C
:1013C0008312A81028088316870083128714F0015F
:1013D00070080B3C031CEE2AEB1E6A2A363070079D
:1013E000840083130008313C03194E2A36307007FD
:1013F000840083130008323C03194E2A36307007EC
:10140000840083130008333C03194E2A36307007DA
:10141000840083130008343C03194E2A36307007C9
:10142000840083130008353C03194E2A36307007B8
:10143000840083130008363C03194E2A36307007A7
:10144000840083130008373C03194E2A3630700796
:10145000840083130008383C03194E2A3630700785
:10146000840083130008393C03194E2A3630700774
:10147000840083130008303C03194E2A363070076D
:101480008400831300082A3C03194E2A3630700763
:10149000840083130008233C031D5D2A3630700747
:1014A0008400831300088316C600D400D6016E3072
:1014B000D5008A1183122C248A15363070078400D7
:1014C000831300088316C600DA008A1183127A2279
:1014D0008A15E52A50307007840083130008313CD8
:1014E0000319CA2A50307007840083130008323C65
:1014F0000319CA2A50307007840083130008333C54
:101500000319CA2A50307007840083130008343C42
:101510000319CA2A50307007840083130008353C31
:101520000319CA2A50307007840083130008363C20
:101530000319CA2A50307007840083130008373C0F
:101540000319CA2A50307007840083130008383CFE
:101550000319CA2A50307007840083130008393CED
:101560000319CA2A50307007840083130008303CE6
:101570000319CA2A503070078400831300082A3CDC
:101580000319CA2A50307007840083130008233CD3
:10159000031DD92A50307007840083130008831676
:1015A000C600D400D6016E30D5008A1183122C24D7
:1015B0008A15503070078400831300088316C60014
:1015C000DA008A1183127A228A15AA308316DB0088
:1015D0008A118312BC218A15F00AE8290230831689
:1015E000C600B930DB008A118312BC218A1583162C
:1015F000C60BF12A3B2B8312EB1743306E07840096
:1016000083136D08800043306E0784008313000845
:101610008316C600DA008A1183127A228A156B18A3
:10162000132BEB1C252B6D088316D400D6019630A6
:10163000D5008A1183122C248A151E308316DB00F4
:101640008A118312BC218A152C2B46308316DB00AD
:101650008A118312BC218A156E08EE0A0E3C03180B
:101660003A2B01308316DB00DC018A1183126622DB
:101670008A15EE0183168312ED01EB1C482B28100E
:1016800028088316870083120714FC01FB014E2BE8
:101690002810280883168700831207108316061463
:1016A00083120618542B6B156B1DEC2B6B1AEC2B4D
:1016B000FC01FB018316851283128512A9300317E2
:1016C0008D0001308F008A110313AB228A15F201BD
:1016D0008A11F4248A157808EF007208F20AFA3C9D
:1016E000031C742B6F0B682B8A11F4248A1578085D
:1016F000F4007408083C031D9C2BF0017008073CA3
:10170000031C9C2B5D307007840083138316C90172
:101710000408C8004910831B49148A118312F42459
:101720008A1583164808840083134918831778089C
:101730008000F00A83127E2B8A11F4248A1578081F
:10174000F4008A11F4248A157808F5007408023C24
:10175000031DD82BF001750870020318D62B5030EA
:101760007007840083138316C9010408C800491058
:10177000831B49148A118312F4248A15831648089E
:10178000840083134918831778088000503070074D
:101790008400831300080F39C600D4001F30D50021
:1017A0008A118312592D8A15F00AAB2B6B116B1617
:1017B0006A08EA0A043C0318E82B6B11EA01B53009
:1017C00003178D0001308F008A110313AB228A1595
:1017D00083168512831285166B18062CEB18062CBF
:1017E0007C08FA007B08FB0A0319FC0A8316C60072
:1017F0007A08C700C708031D012C4608643C03187B
:10180000072C8312EB15FC01FB016B12831683126C
:041810007B286300CE
:10400000AC3FBB3FCC3FDD3FFF3FFF3FFF3F723F39
:104200003100320033003400350036003700FF0043
:10421000FF00FF00FF00FF00FF00FF00FF00FF00A6
:10422000FF00FF00FF00FF00FF00FF00FF00FF0096
:10423000FF00FF00FF00FF00FF00FF00FF00FF0086
:10424000FF00FF00FF00FF00FF00FF00FF00FF0076
:10425000FF00FF00FF00FF00FF00FF00FF00FF0066
:10426000FF00FF00FF00FF00FF00FF00FF00FF0056
:10427000FF00FF00FF00FF00FF00FF00FF00FF0046
:10428000FF00FF00FF00FF00FF00FF00FF00FF0036
:10429000FF00FF00FF00FF00FF00FF00FF00FF0026
:1042A000FF00FF00FF00FF00FF00FF00FF00FF0016
:1042B000FF00FF00FF00FF00FF00FF00FF00FF0006
:1042C000FF00FF00FF00FF00FF00FF00FF00FF00F6
:1042D000FF00FF00FF00FF00FF00FF00FF00FF00E6
:1042E000FF00FF00FF00FF00FF00FF00FF00FF00D6
:1042F000FF00FF00FF00FF00FF00FF00FF00FF00C6
:10430000FF00FF00FF00FF00FF00FF00FF00FF00B5
:10431000FF00FF00FF00FF00FF00FF00FF00FF00A5
:10432000FF00FF00FF00FF00FF00FF00FF00FF0095
:10433000FF00FF00FF00FF00FF00FF00FF00FF0085
:10434000FF00FF00FF00FF00FF00FF00FF00FF0075
:10435000FF00FF00FF00FF00FF00FF00FF00FF0065
:10436000FF00FF00FF00FF00FF00FF00FF00FF0055
:10437000FF00FF00FF00FF00FF00FF00FF00FF0045
:10438000FF00FF00FF00FF00FF00FF00FF00FF0035
:10439000FF00FF00FF00FF00FF00FF00FF00FF0025
:1043A000FF00FF00FF00FF00FF00FF00FF00FF0015
:1043B000FF00FF00FF00FF00FF00FF00FF00FF0005
:1043C000FF00FF00FF00FF00FF00FF00FF00FF00F5
:1043D000FF00FF00FF00FF00FF00FF00FF00FF00E5
:1043E000FF00FF00FF00FF00FF00FF00FF00FF00D5
:1043F000FF00FF00FF00FF00FF00FF00FF00FF00C5
:00000001FF
