:1000000001308A0004280000FF238316900000308E
:100010008A001E290A108A100A1182077434653476
:1000200072346D346F343D34203425346C34643490
:1000300020340D340A34203400348318212842300F
:100040008400A001A101A201A301C201C301C40156
:10005000C501410840043F043E0403195F282030D5
:10006000C6000310BA0DBB0DBC0DBD0DC20DC30DF6
:10007000C40DC50D41084502031D4828400844022F
:10008000031D48283F084302031D48283E0842023A
:10009000031C59283E08C2023F08031C3F0FC3023D
:1000A0004008031C400FC4024108031C410FC50255
:1000B0000314A00DA10DA20DA30DC60B31284208FB
:1000C0008000840A43088000840A44088000840A6F
:1000D00045088000080031308400000803197E289C
:1000E0000130A100A001A00B7328A10B72284A3097
:1000F000A000A00B79287C28800B7028B5298316D6
:100100008512831285160830A10086280000A117E9
:100110009728A113BA0C03188512031C8516211702
:1001200097282113A10B8A289528000085123F30BB
:100130008400840B99280000A11B8928211B912889
:1001400008000408B400B31FB228B403B416B00901
:10015000B109B209B309B00A0319B10A0319B20A05
:100160000319B30A3B30B9009A30B800CA30B7005F
:10017000B6010A30B5008314303084003308BD0066
:100180003208BC003108BB003008BA003908C10091
:100190003808C0003708BF003608BE001D202108FF
:1001A000A008031DE6283508013A0319E62834089B
:1001B0000319E8280F3935020319E0280318042928
:1001C000B41B0429341BE828203000292030B40552
:1001D000B41EF328B4122008B4002D30BA007F20DA
:1001E0003408A000B4013030B41E0029B412200835
:1001F000B4002D30BA007F203408A000B4013030A4
:10020000A0072008BA007F2083103908BD003808F5
:10021000BC003708BB003608BA00C101C001BF01ED
:100220000A30BE001D202308B9002208B8002108AA
:10023000B7002008B600B50BBB28DF2984011F30AA
:1002400083058316851283128512A4011F1383165A
:100250001F109F101F119F11073083129900033048
:10026000831685001F169F161F1383129F171F14D6
:100270001F1783161F109F101F119F11003083122C
:10028000A1001F08F33921049F00AF01AE01AD01A9
:10029000AC01A50125084E3C031C9929AB01AA011C
:1002A000A901A8010030A1001F08F33921049F0013
:1002B000A6012608073C031C72299F149F185E297B
:1002C00083161E088312A8071E0803181E0FA9070D
:1002D000003003180130AA07003003180130AB07C3
:1002E000A60A592983102B08BD002A08BC0029083A
:1002F000BB002808BA00C101C001BF010730BE0021
:100300001D202308AB002208AA002108A90020080C
:10031000A8002808AC0729080318290FAD072A08E8
:1003200003182A0FAE072B0803182B0FAF07A50AD7
:100330004A2983102F08BD002E08BC002D08BB00E1
:100340002C08BA00C101C001BF015030BE001D2001
:100350002308AB002208AA002108A9002008A80051
:100360000230B0009630B1006B28B00BB229AB0858
:10037000031DEB29AA08031DEB292908013C031CD6
:10038000EB29031DC7292808813C031CEB293B30BE
:10039000A405B00130080A20B00AA000BA007F20EE
:1003A00007303002031DCA29413084002B08B300F6
:1003B0002A08B2002908B1002808B000A1280A3094
:1003C000B00030080A20B00AA000BA007F200E302A
:1003D0003002031DE129AB08031DFB29AA08031DF8
:1003E000FB292908003C0318FC29FF3A031DFB29BF
:1003F0002808883C031C2415AB08031D0D2AAA08F5
:10040000031D0D2A2908003C03181C2AFF3A031D6E
:100410000D2A2808823C03181C2A003027180130B6
:10042000013AA100271021182714271C1A2A2F305F
:10043000A4051B2A24161E2A2F30A4052408850093
:0404400045296300E7
:02400E00C43FAD
:00000001FF
;PIC12F675
;CRC=70BC  CREATED="25-ÂæÑíá-14 22:09"
