:020000040000FA
:1000000008308A0000280000FF00030E8301A100D1
:100010000A08A0008A010408A2007708A300780853
:10002000A4007908A5007A08A60003170D08031399
:10003000A60003170F080313A70003170C080313E8
:10004000A80003170E080313A900831383128B1E45
:100050002B280B194C28220884002308F7002408B9
:10006000F8002508F9002608FA00260803178D0075
:100070000313270803178F000313280803178C00A6
:100080000313290803178E00031320088A00210E8A
:100090008300FF0E7F0E09008A110A123A290A1006
:1000A0008A100A11820728340C34013406340A10ED
:1000B0008A100A11820731343234333446343434EE
:1000C00035343634443437343834393445342A34CA
:1000D0003034233443340A108A100A11723E031854
:1000E0008A0A82008034843488348B348F34933489
:1000F00096349A349E34A134A534A934AC34B03447
:10010000B334B634BA34BD34C034C334C734CA345B
:10011000CC34CF34D234D534D734DA34DC34DF3491
:10012000E134E334E534E734E934EB34ED34EE34F0
:10013000F034F134F234F334F434F534F634F73483
:10014000F734F734F834F834F834F834F834F73452
:10015000F734F734F634F534F434F334F234F1345C
:10016000F034EE34ED34EB34E934E734E534E334A1
:10017000E134DF34DC34DA34D734D534D234CF341C
:10018000CC34CA34C734C334C034BD34BA34B634C2
:10019000B334B034AC34A934A534A1349E349A3489
:1001A000963493348F348B348834843480347C3464
:1001B0007834753471346D346A34663462345F3443
:1001C0005B345734543450344D344A344634433419
:1001D00040343D3439343634343431342E342B34D5
:1001E00029342634243421341F341D341B3419346B
:1001F000173415341334123410340F340E340D34D4
:100200000C340B340A340934093409340834083402
:100210000834083408340934093409340A340B34F6
:100220000C340D340E340F341034123413341534AE
:10023000173419341B341D341F342134243426342C
:1002400029342B342E3431343434363439343D347B
:100250004034433446344A344D34503454345734A3
:100260005B345F34623466346A346D3471347534AF
:1002700078347C348316E901133083128100350809
:100280006B20F8008316EB017808EA008312360829
:100290006B20F800FA01780883166A07E7006B08FC
:1002A000E8007A0803187A0FE8070310680CFA00D0
:1002B000670CF900E9006908831295003708B50753
:1002C0003808B6073508C73C03186829C830B50296
:1002D0003608C73C03186E29C830B6020B118A11C4
:1002E0000A122B280C10F434ED32A037753A2E1771
:1002F00020000C102010202A45264528C827CE2291
:1003000020102010200520000C1020102010C827DD
:10031000CF25A02950102010201020100A10000115
:100320000C10201020102024CF274B10201020105C
:1003300020100A1000010C102010202A4526452804
:10034000C827CE2220102010200520000C102010DD
:100350002010C4244126C522441020102010201053
:100360000A1000010C1020102010D222C324D62223
:100370004522201020102010200520000C102010F5
:100380002010D222C4244126201020102010200545
:1003900020000C10A024CE21CF2649274710C320CF
:1003A0004C262010201020052000CE27A0216136E9
:1003B000EC32721049220000DB3084008313000805
:1003C0000319F0290330F800F701F70BE529F80BC2
:1003D000E429E330F700F70BEB290000800BE2295A
:1003E00008008316620EF039F7000F3083120605FD
:1003F0007704860000008615FD29FE29FF29861155
:1004000008008610F030831686008312061500005F
:10041000861500000608060E0F398316E2008312C7
:10042000861100008615142A00000608060E0F39F2
:100430008316E10083128611003083168600620E57
:10044000F700F030F70577086104F8007808E1005C
:10045000E11F2C2A8312022A5F18312A8312861088
:1004600083165F1C362A83128614831600008312BB
:100470000611000086118316600EE1000F30E105C1
:100480006108E2008312F121831660080F39E10050
:10049000E2008312F12108000030831686008312E7
:1004A0008610061186110F308316DB008312DC21C3
:1004B00001308316D3005308033C031C6B2A03301E
:1004C000E2008312F12105308316DB008312DC2168
:1004D0008316D30A5B2A0230E2008312F1218316CD
:1004E000D3015308033C031C822A530883124F2074
:1004F0008316D400DF015408E00083120122831622
:10050000D30A712A83128A150A12712883165C0B8A
:100510008A2A8D2A4030DD008E2ADD0101305B02FF
:10052000DD075D088038DE00DF015E08E000831231
:100530000122080083165A080C3A83120319A72ACD
:10054000063A0319B32A023A0319BB2AC22A8316B0
:10055000DF010130E0008312012202308316DB004C
:100560008312DC21C92A01308316DB000230DC0053
:1005700083128622C92A8316DF011030E00083121D
:100580000122C92A01308316DF005A08E0008312D5
:10059000012208000B088316D30083128B138316E5
:1005A00003178C170C140000000083120313BE1BEA
:1005B0008B1703170C087F390319362B8316031387
:1005C000D300831203170D0883160313D40083127C
:1005D00003170F0883160313D5005308DA0083129C
:1005E0009A2283165408831203178D00831603136F
:1005F0005508831203178F0003130B088316D600C8
:1006000083128B13831603178C170C140000000041
:1006100083120313BE1B8B1703170C0D0E0D7F39AE
:100620000319362B83160313D300831203170D0807
:1006300083160313D400831203170F0883160313C2
:10064000D5005308DA0083129A22831654088312C5
:1006500003178D00831603135508831203178F00A9
:100660008D0A03198F0A0313CA2A031703130800FC
:1006700001308316DB008312DC2183160514003061
:100680008312051C01308316D400851400308312B8
:10069000851C01308316D405051500308312051D15
:1006A00001308316D405851500308312851D013075
:1006B000831654050319602B0030F800622B622B5F
:1006C0000130F80083120800831605148312051CFC
:1006D0006C2B0030F800832B831685148312851C45
:1006E000742B0130F800832B831605158312051D2A
:1006F0007C2B0230F800832B831685158312851D11
:10070000832B0330F80008008316D3018312AE0157
:100710002E08033C031C4C2C14308316DB00831280
:10072000DC212E08FC3E03184A2C043E542CAC114C
:100730002C0883168700831287152C122C08831629
:10074000870083120712AC122C08831687008312CD
:1007500087122C132C088316870083120713831625
:10076000D30183123823F8080319C32B6423780DAF
:10077000F700F70DFC30F70577082E075720F80033
:10078000AD00F800512C4A2CAC112C0883168700C0
:10079000831287112C122C088316870083120716E8
:1007A000AC122C0883168700831287122C132C0896
:1007B00083168700831207138316D301831238230D
:1007C000F8080319F02B6423780DF700F70DFC30BF
:1007D000F70577082E075720F800AD00F800512CD8
:1007E0004A2CAC112C0883168700831287112C1217
:1007F0002C088316870083120712AC122C0883166C
:100800008700831287162C132C0883168700831207
:1008100007138316D30183123823F80803191D2CFC
:100820006423780DF700F70DFC30F70577082E07E5
:100830005720F800AD00F800512C4A2CAC112C08C0
:1008400083168700831287112C122C0883168700C9
:1008500083120712AC122C088316870083128712AA
:100860002C132C0883168700831207178316D301D5
:1008700083123823F80803194A2C6423780DF700F3
:10088000F70DFC30F70577082E075720F800AD006C
:10089000F800512CAE0A882B8316D3015308F800B8
:1008A00083128A150A1207290A108A100A1582076C
:1008B000972BC42BF12B1E2CB501B601B701B80143
:1008C00083165408313C03196D2C5408323C03192B
:1008D0006D2C5408333C031D722C0D308312B7006D
:1008E000A32C83165408343C03197E2C5408353C41
:1008F00003197E2C5408363C031D832C0E308312C2
:10090000B700A32C83165408373C03198F2C5408C6
:10091000383C03198F2C5408393C031D942C10309B
:100920008312B700A32C831654082A3C0319A02C69
:100930005408303C0319A02C5408233C031DA42C5C
:1009400011308312B70083165408313C0319B42CBC
:100950005408343C0319B42C5408373C0319B42C04
:1009600054082A3C031DB92C16308312B800F62C0B
:1009700083165408323C0319C92C5408353C03191A
:10098000C92C5408383C0319C92C5408303C031DA9
:10099000CE2C19308312B800F62C83165408333C41
:1009A0000319DE2C5408363C0319DE2C5408393C5C
:1009B0000319DE2C5408233C031DE32C1B30831247
:1009C000B800F62C83165408413C0319F32C540844
:1009D000423C0319F32C5408433C0319F32C5408EC
:1009E000443C031DF72C1F308312B80083160830D7
:1009F000F700831281018130840083130008C0391D
:100A00000738800064000008C739F719C039770437
:100A100080008B1683165608FA0055080319D60372
:100A2000D503D7007A08D800D708031D1A2DD80897
:100A30000319202D0130DB008312DC210A2D8316DF
:100A400083128B12950108000408F8003C308316CD
:100A5000D70083122B17AC172C088316870052304F
:100A6000F700F70B312D342DD70B3B2D8312AB0143
:100A7000F801712D83168312871F402D83162F2DA9
:100A80000830F7008316D801F7175A2DF7135A2D9F
:100A900003108312871B03148316D80C77175A2D63
:100AA0007713F70B482D780884005808F800831254
:100AB000712D8316033084000030F71B5530F80089
:100AC000F80B602D840B5C2D3430F71B0E30F800D2
:100AD000F80B682D6B2DF71B462D771B502D482DDD
:100AE0008312080083165B08F8015A0203187B2D55
:100AF0005A08F700872DF7010830DC00DA0DF70DF2
:100B00005B0877020318F700F80DDC0B7E2D8312CB
:100B1000080020308316551E3030D6005408F700E8
:100B2000D41F9A2DF709F70A7708D4002D30D60084
:100B3000D51755145408DA006430DB00831272258F
:100B400077088316D40030307807D7005408DA00CD
:100B50000A30DB0083127225303077078316D90004
:100B600030307807D8005608F700303057020319A4
:100B7000BD2DD514D51B5515D12D5608D7002030C5
:100B8000D600303058020319C92D5514D51BD51481
:100B9000D12D031D5514031DD12D5708D800203029
:100BA000D7005519D82DD518DD2D5518E22DE72D74
:100BB0005608DA0083129A2283165708DA00831245
:100BC0009A2283165808DA0083129A22831659084B
:0C0BD000DA0083129A228A150A12E62B22
:1010000003081F398300AB01FF30AC0083160510C5
:10101000831205140130B900EE016F10EF106F114B
:10102000EF116F12EF126F13EF1383161F149F143B
:101030001F159F1107309C0083138312AD01AE0171
:10104000AF01B001F101F201F301F401F501F60184
:10105000FB01FC01FD01FE018316C701C601FF3043
:10106000860083120608F10003308316C800C830DA
:10107000DB008A118312DC218A158316C80B3728FE
:101080000030F800043883129200FA308316920080
:1010900083122C112C0883168700831207110C3041
:1010A0009700C0308B04950183161F149F141F15E1
:1010B0009F11851283128516F40174080B3C031CE2
:1010C0006F28543074078400831320308000473029
:1010D00074078400831320308000F40A5D288A118D
:1010E0004C2A8A15793003178D0001308F008A1140
:1010F0000313CA228A15EF1C9F28EF1D9F28EF11AA
:10110000AC102C0883168700831287146F126F119E
:10111000EE0103308316C800C830DB008A11831249
:10112000DC218A158316C80B8C28843083120317A0
:101130008D0001308F008A110313CA228A156F1C9B
:10114000C528EF1DC528EF11AC102C0883168700A9
:10115000831287146F126F11EE01EF18EF10033036
:101160008316C800C830DB008A118312DC218A157F
:101170008316C80BB2289030831203178D000130FC
:101180008F008A110313CA228A156F1CC928EF1811
:101190000129EF1D01299B3003178D0001308F00BD
:1011A0008A110313CA228A15EF11AC102C0883167A
:1011B000870083128710F201EF1F0029F4017408E1
:1011C0000B3C031C00293A3074078316C800C90180
:1011D0000318C90A47307407840083130008CA0043
:1011E000480884008313491883174A088000473051
:1011F00074078400831320308000F40A8312DF28F0
:10120000EF13FB01F108031D35298A11842B8A1580
:101210007808F1007B08FB0A043C031C35290230E6
:10122000F700F70B11291429831605168312051EE2
:1012300023296F14F2016F1B1F296F17EF158316F7
:10124000C701C6018312831605168312051A2D29BC
:101250006F106F1F2D296F13EF158316061483125D
:10126000061834296F15672B0229F10803194C2B36
:101270008316C701C6017108463C03194B29710842
:10128000433C03194B297108443C03194B2971084D
:10129000453C031D0D2B7108463C031D5D29F701DC
:1012A0008312EF18F70A0130F7067708F800EF10FD
:1012B0007718EF14EF15F20183167108433C031DF4
:1012C000832983126F186829EF18682983168329E8
:1012D000AC102C0883168700831287100330831606
:1012E000C800C830DB008A118312DC218A158316FE
:1012F000C80B71298312AC102C0883168700831247
:101300008714EF1583167108443C031DCC29F7019F
:101310008312EF1AF70A0130F706EF127718EF166B
:10132000EF1EAF29A63003178D0001308F008A1100
:101330000313CA228A15F40174080B3C031CAE295E
:101340003A3074078400831300088316C800DA005B
:101350008A1183129A228A15F40A9C29CB29B23069
:1013600003178D0001308F008A110313CA228A15DA
:10137000F40174080B3C031CCB295430740784001F
:10138000831300088316C800DA008A1183129A2298
:101390008A15F40AB92983167108453C031D012BEF
:1013A00083126F18D729EF18D7298316012BBE3067
:1013B00003178D0001308F008A110313CA228A158A
:1013C000AC102C0883168700831287100330831615
:1013D000C800C830DB008A118312DC218A1583160D
:1013E000C80BE9298312AC102C08831687008312DE
:1013F0008714F40174080B3C031C002BEF1E7C2A9D
:101400003A307407840083130008313C0319602AC2
:101410003A307407840083130008323C0319602AB1
:101420003A307407840083130008333C0319602AA0
:101430003A307407840083130008343C0319602A8F
:101440003A307407840083130008353C0319602A7E
:101450003A307407840083130008363C0319602A6D
:101460003A307407840083130008373C0319602A5C
:101470003A307407840083130008383C0319602A4B
:101480003A307407840083130008393C0319602A3A
:101490003A307407840083130008303C0319602A33
:1014A0003A3074078400831300082A3C0319602A29
:1014B0003A307407840083130008233C031D6F2A0D
:1014C0003A3074078400831300088316C800D400E0
:1014D000D6016E30D5008A1183125C248A153A3009
:1014E00074078400831300088316C800DA008A1189
:1014F00083129A228A15F72A5430740784008313C2
:101500000008313C0319DC2A54307407840083132B
:101510000008323C0319DC2A54307407840083131A
:101520000008333C0319DC2A543074078400831309
:101530000008343C0319DC2A5430740784008313F8
:101540000008353C0319DC2A5430740784008313E7
:101550000008363C0319DC2A5430740784008313D6
:101560000008373C0319DC2A5430740784008313C5
:101570000008383C0319DC2A5430740784008313B4
:101580000008393C0319DC2A5430740784008313A3
:101590000008303C0319DC2A54307407840083139C
:1015A00000082A3C0319DC2A543074078400831392
:1015B0000008233C031DEB2A543074078400831376
:1015C00000088316C800D400D6016E30D5008A11F9
:1015D00083125C248A155430740784008313000836
:1015E0008316C800DA008A1183129A228A15AA305B
:1015F0008316DB008A118312DC218A15F40AFA298A
:1016000083160230C800B930DB008A118312DC2156
:101610008A158316C80B032B4D2B8312EF17473007
:1016200072078400831371088000473072078400BA
:10163000831300088316C800DA008A1183129A22E5
:101640008A156F18252BEF1C372B71088316D400D1
:10165000D6019630D5008A1183125C248A151E307B
:101660008316DB008A118312DC218A153E2B46305B
:101670008316DB008A118312DC218A157208F20AB4
:101680000E3C03184C2B01308316DB00DC018A1161
:10169000831286228A15F2018316F1018312EF1C50
:1016A0005C2B2C102C0883168700831207148316DA
:1016B000C701C601632B83122C102C0883168700E8
:1016C00083120710831606148312061C6F156F1DF4
:1016D000FF2B6F1AFF2B8316C701C60185128312D9
:1016E0008512C93003178D0001308F008A11031352
:1016F000CA228A15F6018A1124258A157808F30072
:101700007608F60AFA3C031C872B730B7B2B8A1195
:1017100024258A157808FC007C08083C031DAF2BA3
:10172000F4017408073C031CAF2B6130740784007C
:1017300083138316CB010408CA004B10831B4B1480
:101740008A11831224258A1583164A08840083137C
:101750004B18831778088000F40A8312912B8A11A2
:1017600024258A157808FC008A1124258A15780812
:10177000FD007C08023C031DEB2BF4017D08740284
:101780000318E92B54307407840083138316CB01AC
:101790000408CA004B10831B4B148A1183122425A2
:1017A0008A1583164A08840083134B188317780818
:1017B0008000543074078400831300080F39C80078
:1017C000D4001830D5008A118312892D8A15F40AA5
:1017D000BE2B6F116F166E08EE0A043C0318FB2B2C
:1017E0006F11EE01D53003178D0001308F008A1183
:1017F0000313CA228A1583168512831285166F1861
:101800001B2CEF181B2C83164708FA004608C60A43
:101810000319C70AC8007A08C900C908031D142C97
:101820004808643C03181C2C8312EF158316C7016B
:0E183000C60183126F12831683127B28630099
:10400000FF3FFF3FFF3FFF3FBA28FF3F080E703FD3
:10404000A80003170E080313A900831383128B1E05
:104050002B280B194C28220884002308F700240879
:10406000F8002508F9002608FA00260803178D0035
:104070000313270803178F000313280803178C0066
:104080000313290803178E00031320088A00210E4A
:104090008300FF0E7F0E09008A110A123A290A10C6
:1040A0008A100A11820728340C34013406340A10AD
:1040B0008A100A11820731343234333446343434AE
:1040C00035343634443437343834393445342A348A
:1040D0003034233443340A108A100A11723E031814
:1040E0008A0A82008034843488348B348F34933449
:1040F00096349A349E34A134A534A934AC34B03407
:10410000B334B634BA34BD34C034C334C734CA341B
:10411000CC34CF34D234D534D734DA34DC34DF3451
:10412000E134E334E534E734E934EB34ED34EE34B0
:10413000F034F134F234F334F434F534F634F73443
:10414000F734F734F834F834F834F834F834F73412
:10415000F734F734F634F534F434F334F234F1341C
:10416000F034EE34ED34EB34E934E734E534E33461
:10417000E134DF34DC34DA34D734D534D234CF34DC
:10418000CC34CA34C734C334C034BD34BA34B63482
:10419000B334B034AC34A934A534A1349E349A3449
:1041A000963493348F348B348834843480347C3424
:1041B0007834753471346D346A34663462345F3403
:1041C0005B345734543450344D344A3446344334D9
:1041D00040343D3439343634343431342E342B3495
:1041E00029342634243421341F341D341B3419342B
:1041F000173415341334123410340F340E340D3494
:1042000041003200330034003500360037003800FA
:104210003900300031003200330034003500360000
:10422000FF00FF00FF00FF00FF00FF00FF00FF0096
:10423000FF00FF00FF00FF00FF00FF00FF00FF0086
:10424000FF00FF00FF00FF00FF00FF00FF00FF0076
:10425000FF00FF00FF00FF00FF00FF00FF00FF0066
:10426000FF00FF00FF00FF00FF00FF00FF00FF0056
:10427000FF00FF00FF00FF00FF00FF00FF00FF0046
:10428000FF00FF00FF00FF00FF00FF00FF00FF0036
:10429000FF00FF00FF00FF00FF00FF00FF00FF0026
:1042A000FF00FF00FF00FF00FF00FF00FF00FF0016
:1042B000FF00FF00FF00FF00FF00FF00FF00FF0006
:1042C000FF00FF00FF00FF00FF00FF00FF00FF00F6
:1042D000FF00FF00FF00FF00FF00FF00FF00FF00E6
:1042E000FF00FF00FF00FF00FF00FF00FF00FF00D6
:1042F000FF00FF00FF00FF00FF00FF00FF00FF00C6
:10430000FF00FF00FF00FF00FF00FF00FF00FF00B5
:10431000FF00FF00FF00FF00FF00FF00FF00FF00A5
:10432000FF00FF00FF00FF00FF00FF00FF00FF0095
:10433000FF00FF00FF00FF00FF00FF00FF00FF0085
:10434000FF00FF00FF00FF00FF00FF00FF00FF0075
:10435000FF00FF00FF00FF00FF00FF00FF00FF0065
:10436000FF00FF00FF00FF00FF00FF00FF00FF0055
:10437000FF00FF00FF00FF00FF00FF00FF00FF0045
:10438000FF00FF00FF00FF00FF00FF00FF00FF0035
:10439000FF00FF00FF00FF00FF00FF00FF00FF0025
:1043A000FF00FF00FF00FF00FF00FF00FF00FF0015
:1043B000FF00FF00FF00FF00FF00FF00FF00FF0005
:1043C000FF00FF00FF00FF00FF00FF00FF00FF00F5
:1043D000FF00FF00FF00FF00FF00FF00FF00FF00E5
:1043E000FF00FF00FF00FF00FF00FF00FF00FF00D5
:1043F000FF00FF00FF00FF00FF00FF00FF00FF00C5
:00000001FF
