:0A0000000C9443000C9400000C94D3
:10000A0000000C9400000C9400000C9400000C9466
:10001A0000000C9400000C9400000C9400000C9456
:10002A0000000C9400000C9400000C9400000C9446
:10003A0000000C9400000C9400000C9400000C9436
:10004A0000000C94A00D0C9400001027E803640033
:10005A000A000100001000011000010000002575CF
:10006A002E776176000001002D4E414E00000100FE
:10007A00020066000100A80370000000F894EE2751
:10008A00ECBBF1E0FBBFEBBFE5BFF8E1F1BDE1BDC1
:10009A008DE0A2E0BB27ED938A95E9F780E094E032
:1000AA00A0E6ED930197E9F7E8E7F0E085919591ED
:1000BA00009761F0A591B59105901590BF01F001E7
:1000CA0005900D920197E1F7FB01F0CFEFE5EDBF47
:1000DA00E4E0EEBFC0E6D1E00C94570EC49AC7988C
:1000EA00C59AC698C29AC198BC9ABF9ABD9ABE9838
:1000FA00BA98B99A6E9A6C9A709A0895EFEFEFB916
:10010A00779BFECFEFB10895C49AF8DF08951A934A
:10011A000A93EE81E07881F0EE81EF77EE83E7E7EC
:10012A00EA93E0E0F0E060E070E00E94DC11EFDFCB
:10013A000E2F023008F03FC0C49AE0DFC498DEDF19
:10014A00EE81EFB9779BFECFAA81BB818C819D811D
:10015A00E8E10E941E11EFB9779BFECFEA81FB818D
:10016A006C817D810E943C11EFB9779BFECFAA81F9
:10017A00BB818C819D81E8E00E941E11EFB9779BBB
:10018A00FECFEA81EFB9779BFECF11E0AE81A034B2
:10019A0009F415E9AE81A83409F417E81FB9779B69
:1001AA00FECF1AE0ABDF0E2F07FF03C0115010304D
:1001BA0009F401C0F7CFE02F198108812796089525
:1001CA0024970E940712C19A89DF14E6103019F0A9
:1001DA0095DF1150FBCF30E0E0E4EA93E0E0F0E095
:1001EA0060E070E00E94DC1192DFE13011F00C94C3
:1001FA009101E8E4EA93EAEAF1E060E070E00E9443
:10020A00DC1185DFE13011F00C945F0110E014304D
:10021A0070F4E12FF0E0DE011696EA0FFB1FFF9360
:10022A00EF936CDFAF91BF91EC931F5FF0CFA8857E
:10023A00A13019F4A985AA3A09F03BC048EA51E667
:10024A00042E052A59F0E9EEEA93E0E0F0E060E0D6
:10025A0070E40E94DC115BDFE03009F403C0415016
:10026A005040EECF042E052A59F0EAE7EA93E0E07F
:10027A00F0E060E070E00E94DC1149DFE03009F054
:10028A0018C010E0143070F4E12FF0E0DE01169689
:10029A00EA0FFB1FFF93EF9331DFAF91BF91EC930E
:1002AA001F5FF0CFEE81E07411F0ECE001C0E4E0F2
:1002BA003E2F32C0E9EEEA93E0E0F0E060E070E061
:1002CA000E94DC1124DFE23018F432E009EE02C0A9
:1002DA0031E001E448EA51E6042E052A51F00A9376
:1002EA00E0E0F0E060E070E00E94DC1110DFE03056
:1002FA0009F403C041505040EFCF042E052A59F0AB
:10030A00E0E5EA93E0E0F2E060E070E00E94DC11F0
:10031A00FEDEE03009F030E030936001F5DEC1988E
:10032A00303011F0E0E001C0E1E00E940E1226C375
:10033A000E940912C19AE0916001E87071F4E8859F
:10034A00F9856A857B85A0E0B2E080E090E00E94B2
:10035A004B11E887F9876A877B8711E0E1E5EA9321
:10036A00E985FA856B857C850E94DC11D0DEE03058
:10037A0011F00C94000220E335E7C0DE0E2F0F3F88
:10038A0019F42150304009F401C0F7CF0E3F99F516
:10039A00AE81BF81E2E0F2E0EA1BFB0BDF01EC81F8
:1003AA00FD81AE1BBF0B9D01EE81FF81309739F0B5
:1003BA00A5DEEE81FF813197EE83FF83C9F7EC85D5
:1003CA00FD85309791F0EC85FD853196EC87FD87A8
:1003DA003197FF93EF9392DEAF91BF91EC93EC814B
:1003EA00FD813197EC83FD8371F788DEF90131973E
:1003FA009F01D9F710E088DEC198E12F0E94101200
:10040A009AC31A930A930E811F81EA81FB8131975D
:10041A00EA83FB83319649F01F930F930F5F1F4FB7
:10042A00EC81AF91BF91EC93F0CF1981088117C489
:10043A000E9407120A851B852885398540E050E00D
:10044A00EE81FF813197EE83FF83319671F0D801F7
:10045A000F5F1F4F0C90D9012F5F3F4FAC91E02DDA
:10046A00EA1BF0E0AF01309709F001C0E9CFFA01C9
:10047A000E940E122C96089526970E940712E09168
:10048A006101F0916201EE83FF83AC85BD858E85A3
:10049A009F85A230E0E0BE07E0E08E07E0E09E071D
:1004AA0060F0AE81BF8118960E94C311AC85BD85EC
:1004BA008E859F850E94021208F021C1AE81BF81FC
:1004CA00EC91E13011F00C94F0022C853D85F90194
:1004DA00F695E7952E0F3F1FF901F170AF01D9018B
:1004EA00E0E0F2E00E946B119F01EFEFF1E0E41708
:1004FA00F507E1F0FE013896FA93EA93E885F98563
:10050A00A485B58586859785F901662777270E9490
:10051A00ED100E94DC115A934A93E2E0F0E0FA935C
:10052A00EA9306DFE03009F0EAC03EC0FE013896E1
:10053A00FA93EA93E885F985A485B5858685978532
:10054A00F901662777270E94ED100E94DC11EFEF70
:10055A00F1E0FA93EA93E1E0F0E0FA93EA93E8DE55
:10056A00E03009F0CCC0FE013996FA93EA93E885A7
:10057A00F985A485B58586859785F9016627772744
:10058A000E94ED10EF5FFF4F6F4F7F4F0E94DC110B
:10059A00E0E0F0E0FA93EA93E1E0F0E0FA93EA931C
:1005AA00C7DEE03009F0ABC0E0E0F985DF01E8859D
:1005BA00F0E0EA2BFB2B8F01EC85FD856E857F85AC
:1005CA00E17021F0F8010E94331102C0F801FF70B6
:1005DA006627772798C0E230C9F5FE013896FA9364
:1005EA00EA93E885F985A485B585868597859F93DD
:1005FA008F93BF93AF93AE85BF8588899989E0E0D1
:10060A00F1E060E070E00E947E11AF91BF918F919E
:10061A009F910E94ED100E94DC11EA89FB89F0701B
:10062A00EE0FFF1FFA93EA93E2E0F0E0FA93EA93FF
:10063A007FDEE03009F063C0E0E0F985DF01E8859C
:10064A00F0E0EA2BFB2B662777275DC0E33011F039
:10065A000C948403FE013896FA93EA93E885F985A7
:10066A00A485B585868597859F938F93BF93AF930E
:10067A00AE85BF8588899989E0E8F0E060E070E09E
:10068A000E947E11AF91BF918F919F910E94ED10B0
:10069A000E94DC11EA89FB89EF77F0700E942E1123
:1006AA00FA93EA93E4E0F0E0FA93EA9341DEE03069
:1006BA0031F5AB85BB2788279927E8E10E941211FB
:1006CA00DF01CB01EA85FF27662777270E944111C0
:1006DA000E940111DF01CB01E0E0F9856627772747
:1006EA000E940111DF01CB01E885FF2766277727E2
:1006FA000E940111EF7FFF7F6F7F7F7004C0E1E0EE
:10070A00F0E060E070E00E940E12609608951A937D
:10071A000A930091610110916201EA81FB816C8167
:10072A007D81E250F04060407040EA83FB836C8335
:10073A007D83F801A085B18582859385E2E0F0E0AA
:10074A0060E070E00E94E6110E94F210AA81BB816B
:10075A008C819D810E94021238F0E0E0F0E060E0B6
:10076A0070E019810881FAC2D8011196EC91AA8128
:10077A00BB818C819D81FF27662777270E944B11B9
:10078A007F936F93FF93EF93D80154960E94C311FE
:10079A00AF91BF918F919F910E94ED1019810881AD
:1007AA00DDC224971A930A930091610110916201A4
:1007BA00AE81BF81E0E0F0E0ED93FC93AE81BF81B2
:1007CA0014960E94C311EA83FB836C837D83AA81FA
:1007DA00BB818C819D81A130E0E0BE07E0E08E07FD
:1007EA00E0E09E0759F0D80118960E94C311AA8129
:1007FA00BB818C819D810E94021220F0E1E0198167
:10080A0008812DC2EA81FB816C817D810E94F311EE
:10081A0021F4D801AC91A33009F008C0D801509650
:10082A000E94C311EA83FB836C837D83EA81FB8187
:10083A006C817D81AE81BF8118960E94CE110E9483
:10084A00F31121F00E94DC1162DF04C0D801509636
:10085A000E94C311AE81BF811C960E94CE11E0E0B6
:10086A0019810881FCC124970E9409122091610113
:10087A0030916201A885B9850E94BF1131968F0116
:10088A00002E012A31F01C960E94C3110E94F31116
:10089A0011F4E3E071C0F801EF7011F00C94BC049C
:1008AA00A885B9851C960E94C911EF5FFF4F6F4F4B
:1008BA007F4F0E94D311A885B98518960E94C3114B
:1008CA000E94F31151F4D90114960E94BF110E1718
:1008DA001F0710F0E3E050C04AC0F8010E9433112C
:1008EA00BF01F901A181E1E00E94EF11EA1BF0E0EA
:1008FA00E623F723309711F00C94BC04E885F985B8
:10090A00A085B185828593850E94E111B5DDEC83CE
:10091A00FD836E837F83AC81BD818E819F81A230EE
:10092A00E0E0BE07E0E08E07E0E09E0710F4E1E0B9
:10093A0023C0D90118960E94C311AC81BD818E8152
:10094A009F810E94021210F0E3E016C0EC81FD8143
:10095A006E817F81A885B98518960E94CE110E9462
:10096A00DC11D5DEA885B9851C960E94CE11A88512
:10097A00B9850D931C93E0E00E9410122A960895FF
:10098A000E940912EC81FD81FA93EA930ADF1E2F75
:10099A00103021F0E12F0E941012E0C1A0916101F4
:1009AA00B091620116962D913C913A932A93EE8169
:1009BA00FF81A485B585868597850E94E111AA8560
:1009CA00BB850E94BF11EF70F070EE0F0E942A11D2
:1009DA00FA93EA93E0E2F0E0FA93EA93A9DCE030D2
:1009EA0011F0E1E001C0E0E01E2F103021F5D9013D
:1009FA000C91003011F413E01EC0F901E385E87090
:100A0A0079F43A932A93EE81FF81A281B381BA9352
:100A1A00AA93EBE0F0E0FA93EA930ADD309709F043
:100A2A0001C009C0EC81FD81FA93EA931CDF1E2FF5
:100A3A00103009F4BACFE12F0E9410128FC1249707
:100A4A000E940712AC85BD8512960E94BF11E887E5
:100A5A00F987FA93EA93E0E2F0E0FA93EA93EBE09B
:100A6A00F0E0FA93EA93CDDCE0E05E2F2E2F38E037
:100A7A00AA85BB850E94BF11EE83FF83E22F2F5FF9
:100A8A00AE81BF81F0E0AE0FBF1F1C91113210F092
:100A9A001F3209F43AC01E3211F0531740F03830B1
:100AAA0011F41E3209F031C058E03BE02DC0E0E0FD
:100ABA00E03021F0E32FE1505E1708F417C0E22F6F
:100ACA002F5FAE81BF81F0E0AE0FBF1F0C91E52F03
:100ADA005F5FA885B985F0E0EA0FFB1F1083E52F59
:100AEA005F5FF0E0EA0FFB1F00830EC0113610F0C3
:100AFA001B3708F001C01052E52F5F5FA885B98542
:100B0A00F0E0EA0FFB1F1083B9CFE22FAE81BF815D
:100B1A00F0E0EA0FFB1FAA85BB85ED93FC93113227
:100B2A0010F4E1E001C0E0E0A885B9851B96EC93DA
:100B3A00E0E00E940E122E9608950E940912AC81DE
:100B4A00BD81AC91A03231F4EC81FD813196EC8308
:100B5A00FD83F5CFAC81BD81AC91AF3229F4EC8134
:100B6A00FD813196EC83FD83AE81BF811496E0E06E
:100B7A00F0E060E070E00E94CE11AC81BD81AC91E2
:100B8A00A13278F4EE81FF81FA93EA930ADE1E2FEE
:100B9A00E0916101F0916201A681B781E0E0EC93F6
:100BAA005BC0EE81FF81FA93EA93FE013696FA93CF
:100BBA00EA9345DF1E2F103009F04EC0EE81FF8107
:100BCA00FA93EA93DDDE1E2F103069F0133041F4F8
:100BDA00AE81BF8112960E94BF11E385E03009F011
:100BEA0001C014E039C0AE81BF8112960E94BF11C4
:100BFA00E385E03089F5A0916101B0916201169612
:100C0A002D913C91F901E385E07111F414E024C0BF
:100C1A00F901B589A0E0E489F0E0EA2BFB2B66270D
:100C2A0077270E9441117F936F93FF93EF93F90106
:100C3A00B38DA0E0E28DF0E0EA2BFB2BAF91BF91E0
:100C4A008F919F91662777270E940111AE81BF81FC
:100C5A0014960E94CE11A5CFE12F0E941012289659
:100C6A000895EC81FD81FA93EA93EA81FB816C8114
:100C7A007D810E94DC11EEEFF1E0FA93EA93E2E063
:100C8A00F0E0FA93EA9354DBE03011F0E3E066C057
:100C9A00AC81BD811196EC91FE2FE0E00F01AC8191
:100CAA00BD81EC91F0E0E029F129E535AAEAFA07DD
:100CBA0011F0E2E053C0EC81FD81FA93EA93EA81F4
:100CCA00FB816C817D810E94DC11E6E3F0E0FA93FE
:100CDA00EA93E2E0F0E0FA93EA932ADBE03089F45F
:100CEA00AC81BD811196EC91FE2FE0E00F01AC8141
:100CFA00BD81EC91F0E0E029F129E634A1E4FA079C
:100D0A0009F002C0E0E02AC0EC81FD81FA93EA937F
:100D1A00EA81FB816C817D810E94DC11E2E5F0E0D1
:100D2A00FA93EA93E2E0F0E0FA93EA9301DBE03027
:100D3A0089F4AC81BD811196EC91FE2FE0E00F01A0
:100D4A00AC81BD81EC91F0E0E029F129E634A1E41F
:100D5A00FA0709F002C0E0E001C0E1E02696089532
:100D6A00E4971A93E0E0E0936101E0936201EDA950
:100D7A00FEA9309709F42BC223DAE17011F0E2E000
:100D8A0027C2E0E0ED87EE87EF87E88BFE017196D8
:100D9A00FA93EA93EF85F88969897A890E94DC11C6
:100DAA0060DF1E2F113011F00C942C07FE01719692
:100DBA00FA93EA93EF85F88969897A890E94DC11A6
:100DCA00EEEBF1E0FA93EA93E0E1F0E0FA93EA93CA
:100DDA00AFDAE03011F013E03AC0ED89E030B9F152
:100DEA00FE017C96A081BB2788279927E8E10E940B
:100DFA001211DF01CB01FE017B96E081FF276627F6
:100E0A0077270E9441110E940111DF01CB01FE01E7
:100E1A007A96F081E0E0662777270E940111DF01C8
:100E2A00CB01E98DFF27662777270E940111ED87FD
:100E3A00FE876F87788BFE017196FA93EA93EF85A6
:100E4A00F88969897A890E94DC110BDF1E2F133019
:100E5A0011F4E1E0BDC1103011F0E7E0B9C1FE01C3
:100E6A007196FA93EA93EF85F88969897A890E94DB
:100E7A00DC11EDE0F0E0FA93EA93E4E2F0E0FA93B1
:100E8A00EA9356DAE03011F0E1E0A2C1FE01B7962A
:100E9A003D97B181A0E0E081F0E0EA2BFB2B6627C9
:100EAA007727E987FA876B877C870E94F311C9F550
:100EBA00FE01F5963D97A381BB2788279927E8E18C
:100ECA000E9412117F936F93FF93EF93FE01F596A1
:100EDA003D97A281BB2788279927FD01BC010E9463
:100EEA004111AF91BF918F919F910E940111DF0132
:100EFA00CB01FE01F5963D97F181E0E06627772761
:100F0A000E940111DF01CB01FE01F5963D97E081B8
:100F1A00FF27662777270E940111E987FA876B87DF
:100F2A007C87EC89A985BA858B859C85FF276627EE
:100F3A0077270E944B11E987FA876B877C87FE0126
:100F4A007F963D97B181A0E0E081F0E0EA2BFB2B90
:100F5A00AD85BE858F859889662777270E94ED1013
:100F6A00ADA9BEA91C960E94CE11E989ADA9BEA958
:100F7A001196EC93FE01B2963D97B181A0E0E08113
:100F8A00F0E0EA2BFB2BADA9BEA91496ED93FC93D6
:100F9A00FE01B4963D97B181A0E0E081F0E0EA2B32
:100FAA00FB2B66277727ED83FE836F8378870E9462
:100FBA00F311C9F5FE01F1963D97A381BB27882756
:100FCA009927E8E10E9412117F936F93FF93EF93A1
:100FDA00FE01F1963D97A281BB2788279927FD013B
:100FEA00BC010E944111AF91BF918F919F910E94C4
:100FFA000111DF01CB01FE01F1963D97F181E0E09D
:10100A00662777270E940111DF01CB01FE01F196C5
:10101A003D97E081FF27662777270E940111ED831C
:10102A00FE836F837887FE017F963D97B181A0E0AA
:10103A00E081F0E0EA2BFB2BAD81BE818F819885A0
:10104A00662777270E94E6110E94F210A985BA85C1
:10105A008B859C850E94F2107F936F93FF93EF9389
:10106A00EDA9FEA9A481B581FD010E943311AF91BA
:10107A00BF918F919F91662777270E94E6110E9460
:10108A00F2107F936F93FF93EF93ADA9BEA91196C8
:10109A00EC91AF91BF918F919F91FF276627772798
:1010AA000E947E11EE5FFF4F6F4F7F4FE983FA83F5
:1010BA006B837C83ADA9BEA918960E94CE1111E05C
:1010CA00A981BA818B819C81A73FEFE0BE07E0E04E
:1010DA008E07E0E09E0708F012E0A981BA818B81B1
:1010EA009C81A73FEFEFBE07E0E08E07E0E09E0796
:1010FA0008F013E0ADA9BEA91C93133041F5FE0117
:10110A00F396A081BB2788279927E8E10E9412114C
:10111A00DF01CB01FE01F296E081FF2766277727E0
:10112A000E9441110E940111DF01CB01FE01F196DB
:10113A00F081E0E0662777270E940111DF01CB01E9
:10114A00E8A9FF27662777270E9401110CC0EDA99D
:10115A00FEA9A485B58586859785E985FA856B8577
:10116A007C850E94ED10ADA9BEA950960E94CE11B1
:10117A00EDA9FEA9A485B58586859785E985FA85B1
:10118A006B857C850E94ED107F936F93FF93EF939D
:10119A00EDA9FEA9A481B581FD010E943311AF9189
:1011AA00BF918F919F91662777270E94ED10ADA975
:1011BA00BEA954960E94CE11ADA9BEA91296E0E02E
:1011CA00EC93EDA9FEA9E0936101F0936201E0E0DE
:1011DA001881E7960895EC970E94091220916101FF
:1011EA0030916201022E032A11F4E6E086C0D90189
:1011FA001296E0E0EC93FE013496D9011696ED932F
:10120A00FC93FE01B496EAABFBABFE01F096FA93AF
:10121A00EA93FE01EE5BFF4F0190F081E02DFA9315
:10122A00EA938BDC1E2F103011F0E12F66C0EC819F
:10123A00E03019F0EF85E07111F0E3E05EC0FE01E5
:10124A007996F081E0E0DF01E88DF0E0EA2BFB2BF4
:10125A00662777270E9441117F936F93FF93EF933D
:10126A00FE017F96F081E0E0DF01EE8DF0E0EA2BEF
:10127A00FB2BAF91BF918F919F91662777270E9491
:10128A000111D90190960E94CE11FE01B396A08158
:10129A00BB2788279927E8E10E941211DF01CB01B9
:1012AA00FE01B296E081FF27662777270E94411147
:1012BA000E940111DF01CB01FE01B196F081E0E04D
:1012CA00662777270E940111DF01CB01E8A1FF27DA
:1012DA00662777270E940111D9015C960E94CE11D8
:1012EA00D9015896E0E0F0E060E070E00E94CE118B
:1012FA00D9011296E1E0EC93E0E00E941012EF9619
:10130A00239608952E970E940712288D398DE09111
:10131A006101F0916201EE83FF83AC89BD89E0E04F
:10132A00F0E0ED93FC93EE81FF81309711F4E6E053
:10133A001EC1EE81FF81A281A17011F4E5E017C1FF
:10134A00EE81FF81A48DB58D868D978D9F938F93A6
:10135A00BF93AF93A08DB18D828D938DEF91FF9145
:10136A006F917F910E94F210E887F9876A877B87DD
:10137A00AE89BF89882799270E94FD1120F4E88544
:10138A00F985EE8BFF8BEE89FF89309711F40C9467
:10139A00B40AEE81FF81A08DB18D828D938DFD01FE
:1013AA00BC01F170309711F00C94590AEE81FF815B
:1013BA00A08DB18D828D938DE0E0F2E060E070E067
:1013CA000E947E117F936F93FF93EF93AE81BF814B
:1013DA001196EC91AF91BF918F919F91FF2766274C
:1013EA0077270E94A8110E94F311C1F5EE81FF81AF
:1013FA00A08DB18D828D938D0E94F71131F4AE814B
:10140A00BF8190960E94C3110AC0EE81FF81A4A1F8
:10141A00B5A186A197A10E94E1110E944102E88B21
:10142A00F98B6A8B7B8BA889B9898A899B89A230B7
:10143A00E0E0BE07E0E08E07E0E09E0708F491C016
:10144A00E889F9896A897B89AE81BF8194960E946D
:10145A00CE11AE81BF811396E0E0EC93EE81FF815D
:10146A00A4A1B5A186A197A10E94E11150D9EC8748
:10147A00FD876E877F870E94F31109F472C0AE81DF
:10148A00BF811396EC91EF5FEC93E150AC85BD857B
:10149A008E859F85FF27662777270E94ED10AE81EC
:1014AA00BF8198960E94CE11EE81FF81A08DB18DE9
:1014BA00FD01F170A0E0B2E0AE1BBF0BAD01EE89F9
:1014CA00FF89E417F50710F44E895F89E88DF98DD5
:1014DA00309719F4E0E0F0E001C0F901FA93EA93D9
:1014EA00E885F985A0A5B1A582A593A50E94E11179
:1014FA00EC85FD85A08DB18D828D938DFD01BC019A
:10150A00EF7FF17060707070FA93EA935A934A937E
:10151A000E949D011E2F103021F5EE81FF817896E1
:10152A000F01DF010E94C311DF01CB01FA01662717
:10153A0077270E94ED10D0010E94CE11240F351F8B
:10154A00EE89FF89E41BF50BEE8BFF8BAC89BD8915
:10155A00ED91FD91E40FF51FFE93EE9314CFE0E0B9
:10156A0006C0AE81BF811296E0E0EC93E1E00E94F2
:10157A000E126A96089560971A930A930091610170
:10158A0010916201002E012A11F4E6E055C1F8011A
:10159A00A281A17011F4E5E04FC1D8015C960E94C6
:1015AA00C311AA89BB898C899D890E94FD1140F4C7
:1015BA00D8015C960E94C311EA8BFB8B6C8B7D8BE6
:1015CA00D80158960E94C311EA83FB836C837D83FA
:1015DA00D8015896E0E0F0E060E070E00E94CE1199
:1015EA00AA89BB898C899D890E94F71110F00C94F5
:1015FA001A0CD8011196EC91FF2766277727A0E0ED
:10160A00B2E080E090E00E944B11EA87FB876C878A
:10161A007D87AA81BB818C819D810E94F71158F533
:10162A00EA89FB896C897D89E150F040604070400D
:10163A00DF01CB01EA85FB856C857D850E947E11E1
:10164A007F936F93FF93EF93EA81FB816C817D8196
:10165A00E150F04060407040DF01CB01EA85FB8534
:10166A006C857D850E947E11AF91BF918F919F916C
:10167A000E94021208F431C0EA81FB816C817D81EB
:10168A00E150F04060407040DF01CB01EA85FB8504
:10169A006C857D85E150F040604070400E944611A3
:1016AA000E94FC10D80158960E94CE11D801589673
:1016BA000E94C311AA89BB898C899D890E94F7104F
:1016CA00AA8BBB8B8C8B9D8BD80194960E94C311DD
:1016DA00EE87FF87688B798B0CC0D80190960E94A1
:1016EA00C311EE87FF87688B798BD80194960E9485
:1016FA00CE11EA85FB856C857D85AA89BB898C8993
:10170A009D890E94FD1110F00C94D50BEE85FF8582
:10171A00688979890E94DC110E944102EE87FF875D
:10172A00688B798BAE85BF8588899989A230E0E07C
:10173A00BE07E0E08E07E0E09E0758F0D801189651
:10174A000E94C311AE85BF85888999890E940212B9
:10175A0008F06DC0EE85FF8568897989D80194966D
:10176A000E94CE11F80178960F01DF010E94C31181
:10177A00AA85BB858C859D850E94ED10D0010E94AB
:10178A00CE11AA85BB858C859D85EA89FB896C89E2
:10179A007D890E94F210EA8BFB8B6C8B7D8BA9CF23
:1017AA00F80178960F01DF010E94C311AA89BB894B
:1017BA008C899D890E94ED10D0010E94CE11EE8580
:1017CA00FF85688979890E94DC110E948C03EE8367
:1017DA00FF83688779870E94F31149F1AA89BB8937
:1017EA008C899D89E0E0F2E060E070E00E947E1161
:1017FA00D8011396EC93EA89FB896C897D89F1708B
:10180A00309799F0D8011396EC91EF5FEC93E15081
:10181A00AE81BF8188859985FF27662777270E9431
:10182A00ED10D80198960E94CE11E0E005C0D801CB
:10183A001296E0E0EC93E1E019810881669608953A
:10184A0024971A93E3E6F1E0FA93EA93ECE0F0E0E6
:10185A00FA93EA93E3E6F3E0FA93EA9353DD1E2F51
:10186A00103031F0E1E0F0E060E070E01881C6C2CB
:10187A00A0916303B09164031C9769F5A0916E016E
:10188A00BB2788279927E8E10E941211DF01CB01C3
:10189A00E0916D01FF27662777270E9441110E9478
:1018AA000111DF01CB01F0916C01E0E06627772797
:1018BA000E940111DF01CB01E0916B01FF2766272E
:1018CA0077270E940111E735A1E4FA07A6E56A071E
:1018DA00A5E47A0731F0E0E0F0E060E070E018811A
:1018EA008DC2E3E6F1E0FA93EA93E8E0F0E0FA93D6
:1018FA00EA93E3E6F3E0FA93EA9304DD1E2FA0915C
:10190A006303B0916403189731F0E0E0F0E060E01F
:10191A0070E0188173C2A0916A01BB2788279927B2
:10192A00E8E10E941211DF01CB01E0916901FF2772
:10193A00662777270E9441110E940111DF01CB011E
:10194A00F0916801E0E0662777270E940111DF0124
:10195A00CB01E0916701FF27662777270E940111D3
:10196A00E983FA836B837C83A0916601BB2788276E
:10197A009927E8E10E941211DF01CB01E09165018C
:10198A00FF27662777270E9441110E940111DF0174
:10199A00CB01F0916401E0E0662777270E940111EC
:1019AA00DF01CB01E0916301FF27662777270E94B9
:1019BA000111E636ADE6FA07A4E76A07A0E27A075C
:1019CA0011F00C94690DE981FA816B817C81E170D7
:1019DA0061F0E981FA816B817C81EF5FFF4F6F4F84
:1019EA007F4FE983FA836B837C83A981BA818B81D8
:1019FA009C81A536E0E0BE07E0E08E07E0E09E07A6
:101A0A0040F4A031E0E0BE07E0E08E07E0E09E0788
:101A1A0030F4E0E0F0E060E070E01881EFC1E3E666
:101A2A00F1E0FA93EA93EB81FC81FA93EA93E3E615
:101A3A00F3E0FA93EA9366DC1E2FE981FA816B815F
:101A4A007C81A0916303B0916403882799270E943F
:101A5A00FD1131F0E0E0F0E060E070E01881CEC105
:101A6A00A0916301A13031F0E0E0F0E060E070E0C5
:101A7A001881C4C1A0916501A23031F0E0E0F0E024
:101A8A0060E070E01881BAC1A0917101A83031F00C
:101A9A00E0E0F0E060E070E01881B0C1B091680168
:101AAA00A0E0E0916701F0E0EA2BFB2B662777279D
:101ABA00A0E8B4E88EE190E00E94A311FF27662710
:101ACA007727E150ECBF36C0E436A1E6FA07A4E76F
:101ADA006A07A1E67A0731F4E981FA816B817C8190
:101AEA0018818CC1EC34A9E4FA07A3E56A07A4E5D6
:101AFA007A0741F0E636A1E6FA07A3E66A07A4E701
:101B0A007A0791F4E0917E03F0917F03609180035C
:101B1A0070918103A981BA818B819C810E94ED1009
:101B2A000E94DC1128DD06C0E0E0F0E060E070E031
:101B3A00188164C1D6CEAA93BA93EA93FA93EFB7FF
:101B4A00EA93442099F5F60131966F01EFEFF0E040
:101B5A00EC15FD0530F4CC24DD24E89420F8E2E00D
:101B6A002E2621FE03C0A3E6B1E002C0A3E6B2E03E
:101B7A00AC0DBD1DEC91E8BDF60131966F01EFEF9A
:101B8A00F0E0EC15FD0530F4CC24DD24E89420F8CF
:101B9A00E2E02E2621FE03C0A3E6B1E002C0A3E6DE
:101BAA00B2E0AC0DBD1DEC91EABD02C0CC24DD242F
:101BBA00E991EFBFF991E991B991A9911895249703
:101BCA001A93E1E04E2EED81FE81FA93EA9303DB4C
:101BDA001E2F103011F00C94500E32DEE983FA8376
:101BEA006B837C83A981BA818B819C81A030E1E0DF
:101BFA00BE07E0E08E07E0E09E0718F4E1E0F0E0BF
:101C0A004EC0E3E6F1E0FA93EA93E0E0F1E0FA93FA
:101C1A00EA93E3E6F3E0FA93EA9374DB1E2F6894FF
:101C2A0021F820F8442420FC15C0689420F821FEED
:101C3A0003C0E3E6F2E002C0E3E6F1E0FA93EA93D6
:101C4A00E0E0F1E0FA93EA93E3E6F3E0FA93EA9349
:101C5A0059DB1E2F9E9914C0A0916503AA3F28F450
:101C6A00E0916503EF5FE0936503A0916503A93CEA
:101C7A0030F0E0E0E0936503E1E04E2E0CC003C0D3
:101C8A00E0E0E0936503A0916303B0916403A030A0
:101C9A00E1E0BE0741F2E1E04E2EE12FF0E01881CB
:101CAA0027960895E1EFEFBDE9E0EEBDEAE0E3BF74
:101CBA00E0E0E2BFEFEFECBFE2E0E9BFE0E0EABB61
:101CCA00EFEFEBBBE0E0E4BBEFEFE5BBEEE3E1BB3C
:101CDA00E8ECE2BBE4EFF1E0FA93EA930E94DD104C
:101CEA007894E1E04E2E77240E94E5007E2EE8ECFF
:101CFA00F0E0FA93EA930E94DD107720A9F7E6E66E
:101D0A00F3E0FA93EA930E94B5067E2EE8ECF0E03F
:101D1A00FA93EA930E94DD10772089F7E9B3EF3F3F
:101D2A0061F1A0916503AA3F28F4E0916503EF5F92
:101D3A00E0936503A0916503A93CF0F0E0E0E0932D
:101D4A006503EBE9F3E0FA93EA93E8E6F0E0FA9345
:101D5A00EA93E9B3AFEF0E94EF11EA1BFF27662768
:101D6A0077270E94DC1184E00E948A102896EBE90A
:101D7A00F3E0FA93EA9323DF03C0E0E0E09365031C
:101D8A00CDCFFFCF1A930A93AA81BB8112960E94E4
:101D9A00BF11309759F1AA81BB8114960E94BF11D5
:101DAA008F01309761F00230E0E01E07F0F0F80191
:101DBA0031978F01AA81BB811496ED93FC93AA8176
:101DCA00BB811296ED91FD913196FE93EE93319778
:101DDA00AC81A083AA81BB810E94BF11FF232AF094
:101DEA00ED91FD913196FE93EE9306C0AA81BB81D7
:101DFA00EFEFFFEFED93FC93198108812596089583
:101E0A0026970E94071210E0AC85BD85E0E0F0E05D
:101E1A00ED93FC93EA89FB893196EA8BFB8B319728
:101E2A00E4912E2FE03011F40C948210E12FE0306F
:101E3A0069F4253211F411E008C02A93ED85FE8574
:101E4A00FA93EA93E989FA89099556C1E130D9F4F6
:101E5A00253249F42A93ED85FE85FA93EA93E989B6
:101E6A00FA89099548C112E040E000E02D3211F4E8
:101E7A0001E042C12B3211F44BE23EC1203211F48F
:101E8A0040E23AC102C0E23039F450E013E02033B4
:101E9A0011F4006831C104C0E33011F00C948110D0
:101EAA00203310F02A3308F007C0AAE05A9F502DB9
:101EBA00E22FE0535E0F20C1E22FE33679F4E8897E
:101ECA00F9893497E88BF98BA481AA93ED85FE856D
:101EDA00FA93EA93E989FA8909950DC1E33791F4EE
:101EEA00E889F9893497E88BF98BA889B989149616
:101EFA000E94BF11EE83FF83FA93EA930E94C810EF
:101F0A001E2F14C0E037B1F4E889F9893497E88BB9
:101F1A00F98BA889B98914960E94BF11EE83FF83B1
:101F2A00FA93EA930E94D2101E2F086002600F777C
:101F3A0030E043C0E43611F0E93611F4046002C01F
:101F4A00E53731F4E4E5F0E0EE83FF8315E00DC0F8
:101F5A00E83511F4086004C0E83711F00C948010D9
:101F6A00EEE5F0E0EE83FF8314E002FF1AC0E88991
:101F7A00F9893497E88BF98BA889B98914960E9454
:101F8A00BF11EA87FB87AB85AA232AF40E940611B0
:101F9A00EA87FB874DE2403011F01F5F01C00B7FDB
:101FAA000CC0E889F9893497E88BF98BA889B98933
:101FBA0014960E94BF11EA87FB8700FD17C0151708
:101FCA00A8F407FF08C002FF04C00B7F242F11509A
:101FDA0001C020E301C020E22A93ED85FE85FA9331
:101FEA00EA93E989FA8909955150E9CF312F01FF1E
:101FFA001DC03030D1F003FF06C0EE81FF8125916C
:10200A00EE83FF8305C0AE81BF812D91AE83BF836E
:10201A002A93ED85FE85FA93EA93E989FA89099567
:10202A00503009F051503150E4CF56C020E3EE81D0
:10203A00FF810E94D811E887F987EE81FF813296E5
:10204A00EE83FF83E885F985AA85BB85AE17BF07AE
:10205A0050F02F5FA885B985EA85FB85EA1BFB0B43
:10206A00EA87FB87EFCF2A3328F003FF02C0295FF4
:10207A0001C0295D04FD1FC0213320F4A885B9855C
:10208A00119709F409C0531710F000FF01C01EC0D0
:10209A0020E207FF10C020E3006102FF0CC00B7FA3
:1020AA004A93ED85FE85FA93EA93E989FA890995B7
:1020BA00503009F051502A93ED85FE85FA93EA9340
:1020CA00E989FA890995503009F051503150A885AB
:1020DA00B985129708F0AACF00FF0DC0503059F009
:1020EA005150E0E2EA93ED85FE85FA93EA93E98995
:1020FA00FA890995F3CF10E08DCEAC85BD850E9493
:10210A00BF110E940E1264960895FF92F82E269728
:10211A000E940912DE011C960E94E9100E94BF115A
:10212A00309719F4EFEFFFEF29C0DE0116960E94EF
:10213A00E9108D01DE011C960E94E9100E94BF1170
:10214A00EE83FF83E0E0E887E987DE011A960E94C2
:10215A00E9100E94BF11FA93EA931A930A93E7ECE3
:10216A00FEE0FA93EA93FE013A96FA93EA9348DE7E
:10217A009F01AE81BF81E0E0EC93F9010E94101249
:10218A002A96FF900895A991B991EE27FF276D919C
:10219A00662311F03196FBCF0895AA27BB27E99150
:1021AA00F9910590002011F01196FBCFFD010895D9
:1021BA00E991F991309639F080EA9FE00197F1F7B9
:1021CA00A8953197C9F708950024AF0DB01D089559
:1021DA00EA0FFB1F681F791F0895EA1BFB0B680BA8
:1021EA00790B0895AE1BBF0B860B970B0895EA2354
:1021FA00FB23682379230895EA2BFB2B682B792B81
:10220A000895F195E195F0400895F09560957095DF
:10221A00E195FF4F6F4F7F4F0895EE230E2EFD017C
:10222A00BC0131F0EE0FFF1F661F771F0A94D1F72A
:10223A000895EE230E2EFD01BC0131F076956795C7
:10224A00F795E7950A94D1F70895EE0FFF1FEE0F61
:10225A00FF1FEE0FFF1FEE0FFF1F0895F695E7957C
:10226A00F695E795F695E795F695E7950895E62F9D
:10227A00F72F60E070E008956E2F7F2FE0E0F0E026
:10228A000895E095F0956095709508957A9F702D60
:10229A006B9F700DF89F700DE99F700D6A9F602DFE
:1022AA00710DFB9F600D711DE89F600D711D8827E0
:1022BA00FA9FF02D610D781FEB9FF00D611D781FBD
:1022CA00EA9FE02DF10D681F781F0895002411245C
:1022DA0090E1AA0FBB1F001C111C0E1A1F0A18F44A
:1022EA000E0E1F1E01C0A1609A9599F7FD01D0013B
:1022FA0008953F934F935F93002411244427552751
:10230A0030E2AA0FBB1F881F991F001C111C441F13
:10231A00551F0E1A1F0A460B570B28F40E0E1F1EC6
:10232A00461F571F01C0A1603A9559F7FD01BC012C
:10233A00D001CA015F914F913F91089508D0D9DF2A
:10234A000EF463DF0895D5DFFD01BC010895E8941A
:10235A0077FF02C05ADF689497FF0BC00024A0954C
:10236A00B095809590951196801D901D00F8039464
:10237A0000FA0895ED91FC9111970895ED91FD9160
:10238A006D917C9113970895ED91FD916D917D91D9
:10239A000895ED93FD936D937C9308957E936E93C8
:1023AA00FE93EE9308950590F491E02D08957A93A3
:1023BA006A93FA93EA9308959A938A93BA93AA939B
:1023CA000895182E862F612D192E972F712D1B2EE9
:1023DA00BF2FF12D1A2EAE2FE12D089530976040B0
:1023EA007040089500240A160B0608060906089587
:1023FA00EA17FB07680779070895AE17BF0786072C
:10240A00970708955A934A933A932A931A930A93E9
:10241A0008955D814C813B812A8119810881089543
:00000001FF
